{
  "_format": "hh-sol-artifact-1",
  "contractName": "SharedWallet",
  "sourceName": "contracts/SharedWallet.sol",
  "abi": [
    {
      "inputs": [
        {
          "internalType": "contract IERC20",
          "name": "_token",
          "type": "address"
        }
      ],
      "stateMutability": "nonpayable",
      "type": "constructor"
    },
    {
      "anonymous": false,
      "inputs": [
        {
          "indexed": false,
          "internalType": "address",
          "name": "from",
          "type": "address"
        },
        {
          "indexed": false,
          "internalType": "uint256",
          "name": "amount",
          "type": "uint256"
        }
      ],
      "name": "DepositFunds",
      "type": "event"
    },
    {
      "anonymous": false,
      "inputs": [
        {
          "indexed": false,
          "internalType": "address",
          "name": "from",
          "type": "address"
        },
        {
          "indexed": false,
          "internalType": "address",
          "name": "to",
          "type": "address"
        },
        {
          "indexed": false,
          "internalType": "uint256",
          "name": "amount",
          "type": "uint256"
        }
      ],
      "name": "TransferFunds",
      "type": "event"
    },
    {
      "inputs": [
        {
          "internalType": "address",
          "name": "owner",
          "type": "address"
        }
      ],
      "name": "addOwner",
      "outputs": [],
      "stateMutability": "nonpayable",
      "type": "function"
    },
    {
      "inputs": [
        {
          "internalType": "address",
          "name": "owner",
          "type": "address"
        }
      ],
      "name": "removeOwner",
      "outputs": [],
      "stateMutability": "nonpayable",
      "type": "function"
    },
    {
      "inputs": [
        {
          "internalType": "address payable",
          "name": "_to",
          "type": "address"
        },
        {
          "internalType": "uint256",
          "name": "_amount",
          "type": "uint256"
        }
      ],
      "name": "transferCOMRADETo",
      "outputs": [],
      "stateMutability": "nonpayable",
      "type": "function"
    }
  ],
  "bytecode": "0x608060405234801561001057600080fd5b50604051610795380380610795833981810160405281019061003291906100ce565b336000806101000a81548173ffffffffffffffffffffffffffffffffffffffff021916908373ffffffffffffffffffffffffffffffffffffffff16021790555080600160006101000a81548173ffffffffffffffffffffffffffffffffffffffff021916908373ffffffffffffffffffffffffffffffffffffffff16021790555050610152565b6000815190506100c88161013b565b92915050565b6000602082840312156100e057600080fd5b60006100ee848285016100b9565b91505092915050565b60006101028261011b565b9050919050565b6000610114826100f7565b9050919050565b600073ffffffffffffffffffffffffffffffffffffffff82169050919050565b61014481610109565b811461014f57600080fd5b50565b610634806101616000396000f3fe608060405234801561001057600080fd5b50600436106100415760003560e01c8063173825d9146100465780637065cb48146100625780638ad07a981461007e575b600080fd5b610060600480360381019061005b91906103f7565b61009a565b005b61007c600480360381019061007791906103f7565b61014e565b005b61009860048036038101906100939190610420565b610202565b005b60008054906101000a900473ffffffffffffffffffffffffffffffffffffffff1673ffffffffffffffffffffffffffffffffffffffff163373ffffffffffffffffffffffffffffffffffffffff16146100f257600080fd5b6000600260008373ffffffffffffffffffffffffffffffffffffffff1673ffffffffffffffffffffffffffffffffffffffff16815260200190815260200160002060006101000a81548160ff021916908360ff16021790555050565b60008054906101000a900473ffffffffffffffffffffffffffffffffffffffff1673ffffffffffffffffffffffffffffffffffffffff163373ffffffffffffffffffffffffffffffffffffffff16146101a657600080fd5b6001600260008373ffffffffffffffffffffffffffffffffffffffff1673ffffffffffffffffffffffffffffffffffffffff16815260200190815260200160002060006101000a81548160ff021916908360ff16021790555050565b60008054906101000a900473ffffffffffffffffffffffffffffffffffffffff1673ffffffffffffffffffffffffffffffffffffffff163373ffffffffffffffffffffffffffffffffffffffff1614806102ab57506001600260003373ffffffffffffffffffffffffffffffffffffffff1673ffffffffffffffffffffffffffffffffffffffff16815260200190815260200160002060009054906101000a900460ff1660ff16145b6102b457600080fd5b600160009054906101000a900473ffffffffffffffffffffffffffffffffffffffff1673ffffffffffffffffffffffffffffffffffffffff1663a9059cbb83836040518363ffffffff1660e01b81526004016103119291906104b2565b602060405180830381600087803b15801561032b57600080fd5b505af115801561033f573d6000803e3d6000fd5b505050506040513d601f19601f82011682018060405250810190610363919061045c565b507f5a0155838afb0f859197785e575b9ad1afeb456c6e522b6f632ee8465941315e338383604051610397939291906104db565b60405180910390a15050565b6000813590506103b2816105a2565b92915050565b6000813590506103c7816105b9565b92915050565b6000815190506103dc816105d0565b92915050565b6000813590506103f1816105e7565b92915050565b60006020828403121561040957600080fd5b6000610417848285016103a3565b91505092915050565b6000806040838503121561043357600080fd5b6000610441858286016103b8565b9250506020610452858286016103e2565b9150509250929050565b60006020828403121561046e57600080fd5b600061047c848285016103cd565b91505092915050565b61048e8161056c565b82525050565b61049d81610512565b82525050565b6104ac81610562565b82525050565b60006040820190506104c76000830185610485565b6104d460208301846104a3565b9392505050565b60006060820190506104f06000830186610494565b6104fd6020830185610485565b61050a60408301846104a3565b949350505050565b600061051d82610542565b9050919050565b600061052f82610542565b9050919050565b60008115159050919050565b600073ffffffffffffffffffffffffffffffffffffffff82169050919050565b6000819050919050565b60006105778261057e565b9050919050565b600061058982610590565b9050919050565b600061059b82610542565b9050919050565b6105ab81610512565b81146105b657600080fd5b50565b6105c281610524565b81146105cd57600080fd5b50565b6105d981610536565b81146105e457600080fd5b50565b6105f081610562565b81146105fb57600080fd5b5056fea2646970667358221220ba52d7886d08df16fd87c40dd30add104b222900a1b79a9bcfbb55df360768a464736f6c63430008040033",
  "linkReferences": {},
  "deployedLinkReferences": {}
}