{
  "_format": "hh-sol-artifact-1",
  "contractName": "ComradeToken",
  "sourceName": "contracts/ComradeToken.sol",
  "abi": [
    {
      "inputs": [
        {
          "internalType": "uint16",
          "name": "_protocolPerc",
          "type": "uint16"
        },
        {
          "internalType": "address payable",
          "name": "_protocolWallet",
          "type": "address"
        },
        {
          "internalType": "string",
          "name": "_tokenName",
          "type": "string"
        },
        {
          "internalType": "string",
          "name": "_tokenSymbol",
          "type": "string"
        }
      ],
      "stateMutability": "nonpayable",
      "type": "constructor"
    },
    {
      "anonymous": false,
      "inputs": [
        {
          "indexed": false,
          "internalType": "address",
          "name": "_account",
          "type": "address"
        }
      ],
      "name": "AddedExemptAddress",
      "type": "event"
    },
    {
      "anonymous": false,
      "inputs": [
        {
          "indexed": true,
          "internalType": "address",
          "name": "owner",
          "type": "address"
        },
        {
          "indexed": true,
          "internalType": "address",
          "name": "spender",
          "type": "address"
        },
        {
          "indexed": false,
          "internalType": "uint256",
          "name": "value",
          "type": "uint256"
        }
      ],
      "name": "Approval",
      "type": "event"
    },
    {
      "anonymous": false,
      "inputs": [
        {
          "indexed": false,
          "internalType": "address",
          "name": "_payer",
          "type": "address"
        },
        {
          "indexed": false,
          "internalType": "uint256",
          "name": "feesPaid",
          "type": "uint256"
        }
      ],
      "name": "FeesPaid",
      "type": "event"
    },
    {
      "anonymous": false,
      "inputs": [
        {
          "indexed": true,
          "internalType": "address",
          "name": "previousOwner",
          "type": "address"
        },
        {
          "indexed": true,
          "internalType": "address",
          "name": "newOwner",
          "type": "address"
        }
      ],
      "name": "OwnershipTransferred",
      "type": "event"
    },
    {
      "anonymous": false,
      "inputs": [
        {
          "indexed": false,
          "internalType": "address",
          "name": "_account",
          "type": "address"
        }
      ],
      "name": "RemoveExemptAddress",
      "type": "event"
    },
    {
      "anonymous": false,
      "inputs": [
        {
          "indexed": true,
          "internalType": "address",
          "name": "from",
          "type": "address"
        },
        {
          "indexed": true,
          "internalType": "address",
          "name": "to",
          "type": "address"
        },
        {
          "indexed": false,
          "internalType": "uint256",
          "name": "value",
          "type": "uint256"
        }
      ],
      "name": "Transfer",
      "type": "event"
    },
    {
      "inputs": [
        {
          "internalType": "address",
          "name": "_user",
          "type": "address"
        }
      ],
      "name": "addExemptAddress",
      "outputs": [],
      "stateMutability": "nonpayable",
      "type": "function"
    },
    {
      "inputs": [
        {
          "internalType": "address",
          "name": "owner",
          "type": "address"
        },
        {
          "internalType": "address",
          "name": "spender",
          "type": "address"
        }
      ],
      "name": "allowance",
      "outputs": [
        {
          "internalType": "uint256",
          "name": "",
          "type": "uint256"
        }
      ],
      "stateMutability": "view",
      "type": "function"
    },
    {
      "inputs": [
        {
          "internalType": "address",
          "name": "_spender",
          "type": "address"
        },
        {
          "internalType": "uint256",
          "name": "_amount",
          "type": "uint256"
        }
      ],
      "name": "approve",
      "outputs": [
        {
          "internalType": "bool",
          "name": "",
          "type": "bool"
        }
      ],
      "stateMutability": "nonpayable",
      "type": "function"
    },
    {
      "inputs": [
        {
          "internalType": "address",
          "name": "account",
          "type": "address"
        }
      ],
      "name": "balanceOf",
      "outputs": [
        {
          "internalType": "uint256",
          "name": "",
          "type": "uint256"
        }
      ],
      "stateMutability": "view",
      "type": "function"
    },
    {
      "inputs": [
        {
          "internalType": "uint256",
          "name": "amount",
          "type": "uint256"
        }
      ],
      "name": "burn",
      "outputs": [],
      "stateMutability": "nonpayable",
      "type": "function"
    },
    {
      "inputs": [
        {
          "internalType": "address",
          "name": "account",
          "type": "address"
        },
        {
          "internalType": "uint256",
          "name": "amount",
          "type": "uint256"
        }
      ],
      "name": "burnFrom",
      "outputs": [],
      "stateMutability": "nonpayable",
      "type": "function"
    },
    {
      "inputs": [
        {
          "internalType": "uint256",
          "name": "_amount",
          "type": "uint256"
        },
        {
          "internalType": "bool",
          "name": "payTaxBeforeSend",
          "type": "bool"
        }
      ],
      "name": "calculateProtocolFeeAndAmount",
      "outputs": [
        {
          "internalType": "uint256",
          "name": "",
          "type": "uint256"
        },
        {
          "internalType": "uint256",
          "name": "",
          "type": "uint256"
        }
      ],
      "stateMutability": "view",
      "type": "function"
    },
    {
      "inputs": [],
      "name": "decimals",
      "outputs": [
        {
          "internalType": "uint8",
          "name": "",
          "type": "uint8"
        }
      ],
      "stateMutability": "view",
      "type": "function"
    },
    {
      "inputs": [
        {
          "internalType": "address",
          "name": "_spender",
          "type": "address"
        },
        {
          "internalType": "uint256",
          "name": "_subtractedValue",
          "type": "uint256"
        }
      ],
      "name": "decreaseAllowance",
      "outputs": [
        {
          "internalType": "bool",
          "name": "",
          "type": "bool"
        }
      ],
      "stateMutability": "nonpayable",
      "type": "function"
    },
    {
      "inputs": [
        {
          "internalType": "address",
          "name": "_user",
          "type": "address"
        }
      ],
      "name": "getAllowanceHolding",
      "outputs": [
        {
          "internalType": "uint256",
          "name": "",
          "type": "uint256"
        }
      ],
      "stateMutability": "view",
      "type": "function"
    },
    {
      "inputs": [
        {
          "internalType": "address",
          "name": "_user",
          "type": "address"
        }
      ],
      "name": "getExemptStatus",
      "outputs": [
        {
          "internalType": "bool",
          "name": "",
          "type": "bool"
        }
      ],
      "stateMutability": "view",
      "type": "function"
    },
    {
      "inputs": [],
      "name": "getProtocolPerc",
      "outputs": [
        {
          "internalType": "uint16",
          "name": "",
          "type": "uint16"
        }
      ],
      "stateMutability": "view",
      "type": "function"
    },
    {
      "inputs": [],
      "name": "getProtocolWallet",
      "outputs": [
        {
          "internalType": "address",
          "name": "",
          "type": "address"
        }
      ],
      "stateMutability": "view",
      "type": "function"
    },
    {
      "inputs": [
        {
          "internalType": "address",
          "name": "_user",
          "type": "address"
        }
      ],
      "name": "getTotalFeesPaid",
      "outputs": [
        {
          "internalType": "uint256",
          "name": "",
          "type": "uint256"
        }
      ],
      "stateMutability": "view",
      "type": "function"
    },
    {
      "inputs": [
        {
          "internalType": "address",
          "name": "_user",
          "type": "address"
        }
      ],
      "name": "getTotalTokensSent",
      "outputs": [
        {
          "internalType": "uint256",
          "name": "",
          "type": "uint256"
        }
      ],
      "stateMutability": "view",
      "type": "function"
    },
    {
      "inputs": [
        {
          "internalType": "address",
          "name": "_spender",
          "type": "address"
        },
        {
          "internalType": "uint256",
          "name": "_addedValue",
          "type": "uint256"
        }
      ],
      "name": "increaseAllowance",
      "outputs": [
        {
          "internalType": "bool",
          "name": "",
          "type": "bool"
        }
      ],
      "stateMutability": "nonpayable",
      "type": "function"
    },
    {
      "inputs": [],
      "name": "name",
      "outputs": [
        {
          "internalType": "string",
          "name": "",
          "type": "string"
        }
      ],
      "stateMutability": "view",
      "type": "function"
    },
    {
      "inputs": [],
      "name": "owner",
      "outputs": [
        {
          "internalType": "address",
          "name": "",
          "type": "address"
        }
      ],
      "stateMutability": "view",
      "type": "function"
    },
    {
      "inputs": [
        {
          "internalType": "address",
          "name": "_user",
          "type": "address"
        }
      ],
      "name": "removeExemptAddress",
      "outputs": [],
      "stateMutability": "nonpayable",
      "type": "function"
    },
    {
      "inputs": [],
      "name": "renounceOwnership",
      "outputs": [],
      "stateMutability": "nonpayable",
      "type": "function"
    },
    {
      "inputs": [
        {
          "internalType": "uint16",
          "name": "_newProtocolPerc",
          "type": "uint16"
        }
      ],
      "name": "setProtocolPerc",
      "outputs": [],
      "stateMutability": "nonpayable",
      "type": "function"
    },
    {
      "inputs": [
        {
          "internalType": "address payable",
          "name": "_newProtocolWallet",
          "type": "address"
        }
      ],
      "name": "setProtocolWallet",
      "outputs": [],
      "stateMutability": "nonpayable",
      "type": "function"
    },
    {
      "inputs": [],
      "name": "symbol",
      "outputs": [
        {
          "internalType": "string",
          "name": "",
          "type": "string"
        }
      ],
      "stateMutability": "view",
      "type": "function"
    },
    {
      "inputs": [],
      "name": "totalSupply",
      "outputs": [
        {
          "internalType": "uint256",
          "name": "",
          "type": "uint256"
        }
      ],
      "stateMutability": "view",
      "type": "function"
    },
    {
      "inputs": [
        {
          "internalType": "address",
          "name": "_to",
          "type": "address"
        },
        {
          "internalType": "uint256",
          "name": "_amount",
          "type": "uint256"
        }
      ],
      "name": "transfer",
      "outputs": [
        {
          "internalType": "bool",
          "name": "",
          "type": "bool"
        }
      ],
      "stateMutability": "nonpayable",
      "type": "function"
    },
    {
      "inputs": [
        {
          "internalType": "address",
          "name": "_from",
          "type": "address"
        },
        {
          "internalType": "address",
          "name": "_to",
          "type": "address"
        },
        {
          "internalType": "uint256",
          "name": "_amount",
          "type": "uint256"
        }
      ],
      "name": "transferFrom",
      "outputs": [
        {
          "internalType": "bool",
          "name": "",
          "type": "bool"
        }
      ],
      "stateMutability": "nonpayable",
      "type": "function"
    },
    {
      "inputs": [
        {
          "internalType": "address",
          "name": "newOwner",
          "type": "address"
        }
      ],
      "name": "transferOwnership",
      "outputs": [],
      "stateMutability": "nonpayable",
      "type": "function"
    }
  ],
  "bytecode": "0x6080604052612710600560146101000a81548161ffff021916908361ffff1602179055503480156200003057600080fd5b5060405162003a4938038062003a49833981810160405281019062000056919062000531565b8181816003908051906020019062000070929190620003e1565b50806004908051906020019062000089929190620003e1565b505050620000ac620000a06200019060201b60201c565b6200019860201b60201c565b600560149054906101000a900461ffff1661ffff168461ffff1611156200010a576040517f08c379a000000000000000000000000000000000000000000000000000000000815260040162000101906200062e565b60405180910390fd5b62000128336b033b2e3c9fd0803ce80000006200025e60201b60201c565b83600560166101000a81548161ffff021916908361ffff16021790555082600660006101000a81548173ffffffffffffffffffffffffffffffffffffffff021916908373ffffffffffffffffffffffffffffffffffffffff1602179055505050505062000994565b600033905090565b6000600560009054906101000a900473ffffffffffffffffffffffffffffffffffffffff16905081600560006101000a81548173ffffffffffffffffffffffffffffffffffffffff021916908373ffffffffffffffffffffffffffffffffffffffff1602179055508173ffffffffffffffffffffffffffffffffffffffff168173ffffffffffffffffffffffffffffffffffffffff167f8be0079c531659141344cd1fd0a4f28419497f9722a3daafe3b4186f6b6457e060405160405180910390a35050565b600073ffffffffffffffffffffffffffffffffffffffff168273ffffffffffffffffffffffffffffffffffffffff161415620002d1576040517f08c379a0000000000000000000000000000000000000000000000000000000008152600401620002c89062000650565b60405180910390fd5b620002e560008383620003d760201b60201c565b8060026000828254620002f99190620006ff565b92505081905550806000808473ffffffffffffffffffffffffffffffffffffffff1673ffffffffffffffffffffffffffffffffffffffff1681526020019081526020016000206000828254620003509190620006ff565b925050819055508173ffffffffffffffffffffffffffffffffffffffff16600073ffffffffffffffffffffffffffffffffffffffff167fddf252ad1be2c89b69c2b068fc378daa952ba7f163c4a11628f55a4df523b3ef83604051620003b7919062000672565b60405180910390a3620003d360008383620003dc60201b60201c565b5050565b505050565b505050565b828054620003ef90620007de565b90600052602060002090601f0160209004810192826200041357600085556200045f565b82601f106200042e57805160ff19168380011785556200045f565b828001600101855582156200045f579182015b828111156200045e57825182559160200191906001019062000441565b5b5090506200046e919062000472565b5090565b5b808211156200048d57600081600090555060010162000473565b5090565b6000620004a8620004a284620006b8565b6200068f565b905082815260208101848484011115620004c157600080fd5b620004ce848285620007a8565b509392505050565b600081519050620004e78162000960565b92915050565b600082601f830112620004ff57600080fd5b81516200051184826020860162000491565b91505092915050565b6000815190506200052b816200097a565b92915050565b600080600080608085870312156200054857600080fd5b600062000558878288016200051a565b94505060206200056b87828801620004d6565b935050604085015167ffffffffffffffff8111156200058957600080fd5b6200059787828801620004ed565b925050606085015167ffffffffffffffff811115620005b557600080fd5b620005c387828801620004ed565b91505092959194509250565b6000620005de602583620006ee565b9150620005eb82620008e8565b604082019050919050565b600062000605601f83620006ee565b9150620006128262000937565b602082019050919050565b62000628816200079e565b82525050565b600060208201905081810360008301526200064981620005cf565b9050919050565b600060208201905081810360008301526200066b81620005f6565b9050919050565b60006020820190506200068960008301846200061d565b92915050565b60006200069b620006ae565b9050620006a9828262000814565b919050565b6000604051905090565b600067ffffffffffffffff821115620006d657620006d5620008a8565b5b620006e182620008d7565b9050602081019050919050565b600082825260208201905092915050565b60006200070c826200079e565b915062000719836200079e565b9250827fffffffffffffffffffffffffffffffffffffffffffffffffffffffffffffffff038211156200075157620007506200084a565b5b828201905092915050565b600062000769826200077e565b9050919050565b600061ffff82169050919050565b600073ffffffffffffffffffffffffffffffffffffffff82169050919050565b6000819050919050565b60005b83811015620007c8578082015181840152602081019050620007ab565b83811115620007d8576000848401525b50505050565b60006002820490506001821680620007f757607f821691505b602082108114156200080e576200080d62000879565b5b50919050565b6200081f82620008d7565b810181811067ffffffffffffffff82111715620008415762000840620008a8565b5b80604052505050565b7f4e487b7100000000000000000000000000000000000000000000000000000000600052601160045260246000fd5b7f4e487b7100000000000000000000000000000000000000000000000000000000600052602260045260246000fd5b7f4e487b7100000000000000000000000000000000000000000000000000000000600052604160045260246000fd5b6000601f19601f8301169050919050565b7f43616e6e6f74207365742070726f746f636f6c2067726561746572207468616e60008201527f2031303025000000000000000000000000000000000000000000000000000000602082015250565b7f45524332303a206d696e7420746f20746865207a65726f206164647265737300600082015250565b6200096b816200075c565b81146200097757600080fd5b50565b620009858162000770565b81146200099157600080fd5b50565b6130a580620009a46000396000f3fe608060405234801561001057600080fd5b50600436106101a95760003560e01c80636668713a116100f9578063961b621911610097578063dd62ed3e11610071578063dd62ed3e146104f7578063ed84566614610527578063f01e9a8b14610557578063f2fde38b14610573576101a9565b8063961b621914610467578063a457c2d714610497578063a9059cbb146104c7576101a9565b806379cc6790116100d357806379cc6790146103f35780637b1c359c1461040f5780638da5cb5b1461042b57806395d89b4114610449576101a9565b80636668713a1461038857806370a08231146103b9578063715018a6146103e9576101a9565b8063195c07c711610166578063395093511161014057806339509351146102f057806342966c68146103205780635e8c4d761461033c5780636078c0f91461036c576101a9565b8063195c07c71461028457806323b872dd146102a2578063313ce567146102d2576101a9565b806306fdde03146101ae578063095ea7b3146101cc5780630e70e64e146101fc5780630f554be614610218578063117964341461024857806318160ddd14610266575b600080fd5b6101b661058f565b6040516101c391906126bc565b60405180910390f35b6101e660048036038101906101e19190612302565b610621565b6040516101f391906126a1565b60405180910390f35b6102166004803603810190610211919061233e565b6107c1565b005b610232600480360381019061022d9190612225565b6108b8565b60405161023f91906128d9565b60405180910390f35b610250610904565b60405161025d919061265d565b60405180910390f35b61026e61092e565b60405161027b91906128d9565b60405180910390f35b61028c610938565b60405161029991906128be565b60405180910390f35b6102bc60048036038101906102b791906122b3565b610950565b6040516102c991906126a1565b60405180910390f35b6102da610b81565b6040516102e7919061291d565b60405180910390f35b61030a60048036038101906103059190612302565b610b8a565b60405161031791906126a1565b60405180910390f35b61033a60048036038101906103359190612367565b610ca8565b005b61035660048036038101906103519190612225565b610cbc565b60405161036391906126a1565b60405180910390f35b61038660048036038101906103819190612225565b610d15565b005b6103a2600480360381019061039d9190612390565b610eb6565b6040516103b09291906128f4565b60405180910390f35b6103d360048036038101906103ce9190612225565b610f85565b6040516103e091906128d9565b60405180910390f35b6103f1610fcd565b005b61040d60048036038101906104089190612302565b611055565b005b61042960048036038101906104249190612225565b611075565b005b610433611215565b604051610440919061265d565b60405180910390f35b61045161123f565b60405161045e91906126bc565b60405180910390f35b610481600480360381019061047c9190612225565b6112d1565b60405161048e91906128d9565b60405180910390f35b6104b160048036038101906104ac9190612302565b61131d565b6040516104be91906126a1565b60405180910390f35b6104e160048036038101906104dc9190612302565b611474565b6040516104ee91906126a1565b60405180910390f35b610511600480360381019061050c9190612277565b611738565b60405161051e91906128d9565b60405180910390f35b610541600480360381019061053c9190612225565b6117bf565b60405161054e91906128d9565b60405180910390f35b610571600480360381019061056c919061224e565b611808565b005b61058d60048036038101906105889190612225565b6118c8565b005b60606003805461059e90612b49565b80601f01602080910402602001604051908101604052809291908181526020018280546105ca90612b49565b80156106175780601f106105ec57610100808354040283529160200191610617565b820191906000526020600020905b8154815290600101906020018083116105fa57829003601f168201915b5050505050905090565b60008061062c6119c0565b90506000600860008373ffffffffffffffffffffffffffffffffffffffff1673ffffffffffffffffffffffffffffffffffffffff16815260200190815260200160002060020160009054906101000a900460ff166107a6576000806106af866106aa8673ffffffffffffffffffffffffffffffffffffffff166119c8565b610eb6565b9150915080925060006106c28589611738565b905060006106ee826106e98873ffffffffffffffffffffffffffffffffffffffff166119c8565b610eb6565b50905080600760008873ffffffffffffffffffffffffffffffffffffffff1673ffffffffffffffffffffffffffffffffffffffff16815260200190815260200160002060008282546107409190612a6d565b9250508190555083600760008873ffffffffffffffffffffffffffffffffffffffff1673ffffffffffffffffffffffffffffffffffffffff1681526020019081526020016000206000828254610796919061298c565b92505081905550505050506107aa565b8390505b6107b58286866119eb565b60019250505092915050565b6107c96119c0565b73ffffffffffffffffffffffffffffffffffffffff166107e7611215565b73ffffffffffffffffffffffffffffffffffffffff161461083d576040517f08c379a0000000000000000000000000000000000000000000000000000000008152600401610834906127de565b60405180910390fd5b600560149054906101000a900461ffff1661ffff168161ffff161115610898576040517f08c379a000000000000000000000000000000000000000000000000000000000815260040161088f9061279e565b60405180910390fd5b80600560166101000a81548161ffff021916908361ffff16021790555050565b6000600860008373ffffffffffffffffffffffffffffffffffffffff1673ffffffffffffffffffffffffffffffffffffffff168152602001908152602001600020600001549050919050565b6000600660009054906101000a900473ffffffffffffffffffffffffffffffffffffffff16905090565b6000600254905090565b6000600560169054906101000a900461ffff16905090565b60008061095b6119c0565b90506000600860008773ffffffffffffffffffffffffffffffffffffffff1673ffffffffffffffffffffffffffffffffffffffff16815260200190815260200160002060020160009054906101000a900460ff16610b01576000806109de866109d98a73ffffffffffffffffffffffffffffffffffffffff166119c8565b610eb6565b9150915080925081600860008a73ffffffffffffffffffffffffffffffffffffffff1673ffffffffffffffffffffffffffffffffffffffff1681526020019081526020016000206000016000828254610a37919061298c565b9250508190555081600760008a73ffffffffffffffffffffffffffffffffffffffff1673ffffffffffffffffffffffffffffffffffffffff1681526020019081526020016000206000828254610a8d9190612a6d565b92505081905550610ac188600660009054906101000a900473ffffffffffffffffffffffffffffffffffffffff1684611bb6565b7f6a41f86b2a18fe00e10a9bd078e790ae82c2627a6f940166bddc2db475194a5f8883604051610af2929190612678565b60405180910390a15050610b05565b8390505b80600860008873ffffffffffffffffffffffffffffffffffffffff1673ffffffffffffffffffffffffffffffffffffffff1681526020019081526020016000206001016000828254610b57919061298c565b92505081905550610b69868383611e37565b610b74868683611bb6565b6001925050509392505050565b60006012905090565b600080610b956119c0565b90506000600860008373ffffffffffffffffffffffffffffffffffffffff1673ffffffffffffffffffffffffffffffffffffffff16815260200190815260200160002060020160009054906101000a900460ff16610c7c57600080610c1886610c138673ffffffffffffffffffffffffffffffffffffffff166119c8565b610eb6565b9150915080925081600760008673ffffffffffffffffffffffffffffffffffffffff1673ffffffffffffffffffffffffffffffffffffffff1681526020019081526020016000206000828254610c6e919061298c565b925050819055505050610c7d565b5b610c9c828683610c8d868a611738565b610c97919061298c565b6119eb565b60019250505092915050565b610cb9610cb36119c0565b82611ec3565b50565b6000600860008373ffffffffffffffffffffffffffffffffffffffff1673ffffffffffffffffffffffffffffffffffffffff16815260200190815260200160002060020160009054906101000a900460ff169050919050565b610d1d6119c0565b73ffffffffffffffffffffffffffffffffffffffff16610d3b611215565b73ffffffffffffffffffffffffffffffffffffffff1614610d91576040517f08c379a0000000000000000000000000000000000000000000000000000000008152600401610d88906127de565b60405180910390fd5b600860008273ffffffffffffffffffffffffffffffffffffffff1673ffffffffffffffffffffffffffffffffffffffff16815260200190815260200160002060020160009054906101000a900460ff1615610e21576040517f08c379a0000000000000000000000000000000000000000000000000000000008152600401610e18906127be565b60405180910390fd5b6001600860008373ffffffffffffffffffffffffffffffffffffffff1673ffffffffffffffffffffffffffffffffffffffff16815260200190815260200160002060020160006101000a81548160ff0219169083151502179055507f2855d8fdeb755569f022752e2e80be94a19af7938137573ffa7968c47bc79b1681604051610eab919061265d565b60405180910390a150565b6000806000808415610f3157600560169054906101000a900461ffff1661ffff16600560149054906101000a900461ffff16600560169054906101000a900461ffff16610f039190612954565b61ffff1687610f1291906129e2565b610f1c9190612a13565b91508186610f2a9190612a6d565b9050610f76565b600560149054906101000a900461ffff1661ffff16600560169054906101000a900461ffff1661ffff1687610f669190612a13565b610f7091906129e2565b91508590505b81819350935050509250929050565b60008060008373ffffffffffffffffffffffffffffffffffffffff1673ffffffffffffffffffffffffffffffffffffffff168152602001908152602001600020549050919050565b610fd56119c0565b73ffffffffffffffffffffffffffffffffffffffff16610ff3611215565b73ffffffffffffffffffffffffffffffffffffffff1614611049576040517f08c379a0000000000000000000000000000000000000000000000000000000008152600401611040906127de565b60405180910390fd5b611053600061209a565b565b611067826110616119c0565b83611e37565b6110718282611ec3565b5050565b61107d6119c0565b73ffffffffffffffffffffffffffffffffffffffff1661109b611215565b73ffffffffffffffffffffffffffffffffffffffff16146110f1576040517f08c379a00000000000000000000000000000000000000000000000000000000081526004016110e8906127de565b60405180910390fd5b600860008273ffffffffffffffffffffffffffffffffffffffff1673ffffffffffffffffffffffffffffffffffffffff16815260200190815260200160002060020160009054906101000a900460ff16611180576040517f08c379a00000000000000000000000000000000000000000000000000000000081526004016111779061285e565b60405180910390fd5b6000600860008373ffffffffffffffffffffffffffffffffffffffff1673ffffffffffffffffffffffffffffffffffffffff16815260200190815260200160002060020160006101000a81548160ff0219169083151502179055507fe55c7e430b1d0b626877b391caf1cf762b5c2bfec72d5cdb1df87f7090a07a358160405161120a919061265d565b60405180910390a150565b6000600560009054906101000a900473ffffffffffffffffffffffffffffffffffffffff16905090565b60606004805461124e90612b49565b80601f016020809104026020016040519081016040528092919081815260200182805461127a90612b49565b80156112c75780601f1061129c576101008083540402835291602001916112c7565b820191906000526020600020905b8154815290600101906020018083116112aa57829003601f168201915b5050505050905090565b6000600860008373ffffffffffffffffffffffffffffffffffffffff1673ffffffffffffffffffffffffffffffffffffffff168152602001908152602001600020600101549050919050565b6000806113286119c0565b90506000806113378387611738565b90508481101561137c576040517f08c379a00000000000000000000000000000000000000000000000000000000081526004016113739061289e565b60405180910390fd5b600860008473ffffffffffffffffffffffffffffffffffffffff1673ffffffffffffffffffffffffffffffffffffffff16815260200190815260200160002060020160009054906101000a900460ff16611456576000806113fb876113f68773ffffffffffffffffffffffffffffffffffffffff166119c8565b610eb6565b9150915080935081600760008773ffffffffffffffffffffffffffffffffffffffff1673ffffffffffffffffffffffffffffffffffffffff16815260200190815260200160002060008282540392505081905550505061145a565b8491505b61146783878784036119eb565b6001935050505092915050565b600061147e6119c0565b828061148983610f85565b10156114ca576040517f08c379a00000000000000000000000000000000000000000000000000000000081526004016114c19061277e565b60405180910390fd5b600860008373ffffffffffffffffffffffffffffffffffffffff1673ffffffffffffffffffffffffffffffffffffffff16815260200190815260200160002060020160009054906101000a900460ff16611568576115288282612160565b611567576040517f08c379a000000000000000000000000000000000000000000000000000000000815260040161155e9061283e565b60405180910390fd5b5b60006115726119c0565b90506000600860008373ffffffffffffffffffffffffffffffffffffffff1673ffffffffffffffffffffffffffffffffffffffff16815260200190815260200160002060020160009054906101000a900460ff166116c2576000806115f5886115f08673ffffffffffffffffffffffffffffffffffffffff166119c8565b610eb6565b9150915080925081600860008673ffffffffffffffffffffffffffffffffffffffff1673ffffffffffffffffffffffffffffffffffffffff168152602001908152602001600020600001600082825461164e919061298c565b9250508190555061168284600660009054906101000a900473ffffffffffffffffffffffffffffffffffffffff1684611bb6565b7f6a41f86b2a18fe00e10a9bd078e790ae82c2627a6f940166bddc2db475194a5f84836040516116b3929190612678565b60405180910390a150506116c6565b8590505b80600860008473ffffffffffffffffffffffffffffffffffffffff1673ffffffffffffffffffffffffffffffffffffffff1681526020019081526020016000206001016000828254611718919061298c565b9250508190555061172a828883611bb6565b600194505050505092915050565b6000600160008473ffffffffffffffffffffffffffffffffffffffff1673ffffffffffffffffffffffffffffffffffffffff16815260200190815260200160002060008373ffffffffffffffffffffffffffffffffffffffff1673ffffffffffffffffffffffffffffffffffffffff16815260200190815260200160002054905092915050565b6000600760008373ffffffffffffffffffffffffffffffffffffffff1673ffffffffffffffffffffffffffffffffffffffff168152602001908152602001600020549050919050565b6118106119c0565b73ffffffffffffffffffffffffffffffffffffffff1661182e611215565b73ffffffffffffffffffffffffffffffffffffffff1614611884576040517f08c379a000000000000000000000000000000000000000000000000000000000815260040161187b906127de565b60405180910390fd5b80600660006101000a81548173ffffffffffffffffffffffffffffffffffffffff021916908373ffffffffffffffffffffffffffffffffffffffff16021790555050565b6118d06119c0565b73ffffffffffffffffffffffffffffffffffffffff166118ee611215565b73ffffffffffffffffffffffffffffffffffffffff1614611944576040517f08c379a000000000000000000000000000000000000000000000000000000000815260040161193b906127de565b60405180910390fd5b600073ffffffffffffffffffffffffffffffffffffffff168173ffffffffffffffffffffffffffffffffffffffff1614156119b4576040517f08c379a00000000000000000000000000000000000000000000000000000000081526004016119ab9061271e565b60405180910390fd5b6119bd8161209a565b50565b600033905090565b6000808273ffffffffffffffffffffffffffffffffffffffff163b119050919050565b600073ffffffffffffffffffffffffffffffffffffffff168373ffffffffffffffffffffffffffffffffffffffff161415611a5b576040517f08c379a0000000000000000000000000000000000000000000000000000000008152600401611a529061287e565b60405180910390fd5b600073ffffffffffffffffffffffffffffffffffffffff168273ffffffffffffffffffffffffffffffffffffffff161415611acb576040517f08c379a0000000000000000000000000000000000000000000000000000000008152600401611ac29061273e565b60405180910390fd5b80600160008573ffffffffffffffffffffffffffffffffffffffff1673ffffffffffffffffffffffffffffffffffffffff16815260200190815260200160002060008473ffffffffffffffffffffffffffffffffffffffff1673ffffffffffffffffffffffffffffffffffffffff168152602001908152602001600020819055508173ffffffffffffffffffffffffffffffffffffffff168373ffffffffffffffffffffffffffffffffffffffff167f8c5be1e5ebec7d5bd14f71427d1e84f3dd0314c0f7b2291e5b200ac8c7c3b92583604051611ba991906128d9565b60405180910390a3505050565b600073ffffffffffffffffffffffffffffffffffffffff168373ffffffffffffffffffffffffffffffffffffffff161415611c26576040517f08c379a0000000000000000000000000000000000000000000000000000000008152600401611c1d9061281e565b60405180910390fd5b600073ffffffffffffffffffffffffffffffffffffffff168273ffffffffffffffffffffffffffffffffffffffff161415611c96576040517f08c379a0000000000000000000000000000000000000000000000000000000008152600401611c8d906126de565b60405180910390fd5b611ca18383836121b2565b60008060008573ffffffffffffffffffffffffffffffffffffffff1673ffffffffffffffffffffffffffffffffffffffff16815260200190815260200160002054905081811015611d27576040517f08c379a0000000000000000000000000000000000000000000000000000000008152600401611d1e9061277e565b60405180910390fd5b8181036000808673ffffffffffffffffffffffffffffffffffffffff1673ffffffffffffffffffffffffffffffffffffffff16815260200190815260200160002081905550816000808573ffffffffffffffffffffffffffffffffffffffff1673ffffffffffffffffffffffffffffffffffffffff1681526020019081526020016000206000828254611dba919061298c565b925050819055508273ffffffffffffffffffffffffffffffffffffffff168473ffffffffffffffffffffffffffffffffffffffff167fddf252ad1be2c89b69c2b068fc378daa952ba7f163c4a11628f55a4df523b3ef84604051611e1e91906128d9565b60405180910390a3611e318484846121b7565b50505050565b6000611e438484611738565b90507fffffffffffffffffffffffffffffffffffffffffffffffffffffffffffffffff8114611ebd5781811015611eaf576040517f08c379a0000000000000000000000000000000000000000000000000000000008152600401611ea69061275e565b60405180910390fd5b611ebc84848484036119eb565b5b50505050565b600073ffffffffffffffffffffffffffffffffffffffff168273ffffffffffffffffffffffffffffffffffffffff161415611f33576040517f08c379a0000000000000000000000000000000000000000000000000000000008152600401611f2a906127fe565b60405180910390fd5b611f3f826000836121b2565b60008060008473ffffffffffffffffffffffffffffffffffffffff1673ffffffffffffffffffffffffffffffffffffffff16815260200190815260200160002054905081811015611fc5576040517f08c379a0000000000000000000000000000000000000000000000000000000008152600401611fbc906126fe565b60405180910390fd5b8181036000808573ffffffffffffffffffffffffffffffffffffffff1673ffffffffffffffffffffffffffffffffffffffff16815260200190815260200160002081905550816002600082825461201c9190612a6d565b92505081905550600073ffffffffffffffffffffffffffffffffffffffff168373ffffffffffffffffffffffffffffffffffffffff167fddf252ad1be2c89b69c2b068fc378daa952ba7f163c4a11628f55a4df523b3ef8460405161208191906128d9565b60405180910390a3612095836000846121b7565b505050565b6000600560009054906101000a900473ffffffffffffffffffffffffffffffffffffffff16905081600560006101000a81548173ffffffffffffffffffffffffffffffffffffffff021916908373ffffffffffffffffffffffffffffffffffffffff1602179055508173ffffffffffffffffffffffffffffffffffffffff168173ffffffffffffffffffffffffffffffffffffffff167f8be0079c531659141344cd1fd0a4f28419497f9722a3daafe3b4186f6b6457e060405160405180910390a35050565b600080600061218d846121888773ffffffffffffffffffffffffffffffffffffffff166119c8565b610eb6565b91509150808261219d919061298c565b6121a686610f85565b10159250505092915050565b505050565b505050565b6000813590506121cb81612ffc565b92915050565b6000813590506121e081613013565b92915050565b6000813590506121f58161302a565b92915050565b60008135905061220a81613041565b92915050565b60008135905061221f81613058565b92915050565b60006020828403121561223757600080fd5b6000612245848285016121bc565b91505092915050565b60006020828403121561226057600080fd5b600061226e848285016121d1565b91505092915050565b6000806040838503121561228a57600080fd5b6000612298858286016121bc565b92505060206122a9858286016121bc565b9150509250929050565b6000806000606084860312156122c857600080fd5b60006122d6868287016121bc565b93505060206122e7868287016121bc565b92505060406122f886828701612210565b9150509250925092565b6000806040838503121561231557600080fd5b6000612323858286016121bc565b925050602061233485828601612210565b9150509250929050565b60006020828403121561235057600080fd5b600061235e848285016121fb565b91505092915050565b60006020828403121561237957600080fd5b600061238784828501612210565b91505092915050565b600080604083850312156123a357600080fd5b60006123b185828601612210565b92505060206123c2858286016121e6565b9150509250929050565b6123d581612aa1565b82525050565b6123e481612ac5565b82525050565b60006123f582612938565b6123ff8185612943565b935061240f818560208601612b16565b61241881612c08565b840191505092915050565b6000612430602383612943565b915061243b82612c19565b604082019050919050565b6000612453602283612943565b915061245e82612c68565b604082019050919050565b6000612476602683612943565b915061248182612cb7565b604082019050919050565b6000612499602283612943565b91506124a482612d06565b604082019050919050565b60006124bc601d83612943565b91506124c782612d55565b602082019050919050565b60006124df602683612943565b91506124ea82612d7e565b604082019050919050565b6000612502602583612943565b915061250d82612dcd565b604082019050919050565b6000612525601983612943565b915061253082612e1c565b602082019050919050565b6000612548602083612943565b915061255382612e45565b602082019050919050565b600061256b602183612943565b915061257682612e6e565b604082019050919050565b600061258e602583612943565b915061259982612ebd565b604082019050919050565b60006125b1602083612943565b91506125bc82612f0c565b602082019050919050565b60006125d4601583612943565b91506125df82612f35565b602082019050919050565b60006125f7602483612943565b915061260282612f5e565b604082019050919050565b600061261a602583612943565b915061262582612fad565b604082019050919050565b61263981612ad1565b82525050565b61264881612aff565b82525050565b61265781612b09565b82525050565b600060208201905061267260008301846123cc565b92915050565b600060408201905061268d60008301856123cc565b61269a602083018461263f565b9392505050565b60006020820190506126b660008301846123db565b92915050565b600060208201905081810360008301526126d681846123ea565b905092915050565b600060208201905081810360008301526126f781612423565b9050919050565b6000602082019050818103600083015261271781612446565b9050919050565b6000602082019050818103600083015261273781612469565b9050919050565b600060208201905081810360008301526127578161248c565b9050919050565b60006020820190508181036000830152612777816124af565b9050919050565b60006020820190508181036000830152612797816124d2565b9050919050565b600060208201905081810360008301526127b7816124f5565b9050919050565b600060208201905081810360008301526127d781612518565b9050919050565b600060208201905081810360008301526127f78161253b565b9050919050565b600060208201905081810360008301526128178161255e565b9050919050565b6000602082019050818103600083015261283781612581565b9050919050565b60006020820190508181036000830152612857816125a4565b9050919050565b60006020820190508181036000830152612877816125c7565b9050919050565b60006020820190508181036000830152612897816125ea565b9050919050565b600060208201905081810360008301526128b78161260d565b9050919050565b60006020820190506128d36000830184612630565b92915050565b60006020820190506128ee600083018461263f565b92915050565b6000604082019050612909600083018561263f565b612916602083018461263f565b9392505050565b6000602082019050612932600083018461264e565b92915050565b600081519050919050565b600082825260208201905092915050565b600061295f82612ad1565b915061296a83612ad1565b92508261ffff0382111561298157612980612b7b565b5b828201905092915050565b600061299782612aff565b91506129a283612aff565b9250827fffffffffffffffffffffffffffffffffffffffffffffffffffffffffffffffff038211156129d7576129d6612b7b565b5b828201905092915050565b60006129ed82612aff565b91506129f883612aff565b925082612a0857612a07612baa565b5b828204905092915050565b6000612a1e82612aff565b9150612a2983612aff565b9250817fffffffffffffffffffffffffffffffffffffffffffffffffffffffffffffffff0483118215151615612a6257612a61612b7b565b5b828202905092915050565b6000612a7882612aff565b9150612a8383612aff565b925082821015612a9657612a95612b7b565b5b828203905092915050565b6000612aac82612adf565b9050919050565b6000612abe82612adf565b9050919050565b60008115159050919050565b600061ffff82169050919050565b600073ffffffffffffffffffffffffffffffffffffffff82169050919050565b6000819050919050565b600060ff82169050919050565b60005b83811015612b34578082015181840152602081019050612b19565b83811115612b43576000848401525b50505050565b60006002820490506001821680612b6157607f821691505b60208210811415612b7557612b74612bd9565b5b50919050565b7f4e487b7100000000000000000000000000000000000000000000000000000000600052601160045260246000fd5b7f4e487b7100000000000000000000000000000000000000000000000000000000600052601260045260246000fd5b7f4e487b7100000000000000000000000000000000000000000000000000000000600052602260045260246000fd5b6000601f19601f8301169050919050565b7f45524332303a207472616e7366657220746f20746865207a65726f206164647260008201527f6573730000000000000000000000000000000000000000000000000000000000602082015250565b7f45524332303a206275726e20616d6f756e7420657863656564732062616c616e60008201527f6365000000000000000000000000000000000000000000000000000000000000602082015250565b7f4f776e61626c653a206e6577206f776e657220697320746865207a65726f206160008201527f6464726573730000000000000000000000000000000000000000000000000000602082015250565b7f45524332303a20617070726f766520746f20746865207a65726f20616464726560008201527f7373000000000000000000000000000000000000000000000000000000000000602082015250565b7f45524332303a20696e73756666696369656e7420616c6c6f77616e6365000000600082015250565b7f45524332303a207472616e7366657220616d6f756e742065786365656473206260008201527f616c616e63650000000000000000000000000000000000000000000000000000602082015250565b7f43616e6e6f74207365742070726f746f636f6c2067726561746572207468616e60008201527f2031303025000000000000000000000000000000000000000000000000000000602082015250565b7f4163636f756e7420697320616c7265616479206578656d707400000000000000600082015250565b7f4f776e61626c653a2063616c6c6572206973206e6f7420746865206f776e6572600082015250565b7f45524332303a206275726e2066726f6d20746865207a65726f2061646472657360008201527f7300000000000000000000000000000000000000000000000000000000000000602082015250565b7f45524332303a207472616e736665722066726f6d20746865207a65726f20616460008201527f6472657373000000000000000000000000000000000000000000000000000000602082015250565b7f434f4d524144453a2043616e6e6f74207061792070726f746f636f6c20666565600082015250565b7f4163636f756e74206973206e6f74206578656d70740000000000000000000000600082015250565b7f45524332303a20617070726f76652066726f6d20746865207a65726f2061646460008201527f7265737300000000000000000000000000000000000000000000000000000000602082015250565b7f45524332303a2064656372656173656420616c6c6f77616e63652062656c6f7760008201527f207a65726f000000000000000000000000000000000000000000000000000000602082015250565b61300581612aa1565b811461301057600080fd5b50565b61301c81612ab3565b811461302757600080fd5b50565b61303381612ac5565b811461303e57600080fd5b50565b61304a81612ad1565b811461305557600080fd5b50565b61306181612aff565b811461306c57600080fd5b5056fea26469706673582212201eec2b7438726ee2ac3e2f5d7b006f4947630b3697c4506bf92b497edc6d3b7c64736f6c63430008040033",
  "linkReferences": {},
  "deployedLinkReferences": {}
}