{
  "_format": "hh-sol-artifact-1",
  "contractName": "ComradeToken",
  "sourceName": "contracts/ComradeToken.sol",
  "abi": [
    {
      "inputs": [
        {
          "internalType": "uint16",
          "name": "_protocolPerc",
          "type": "uint16"
        },
        {
          "internalType": "address payable",
          "name": "_protocolWallet",
          "type": "address"
        }
      ],
      "stateMutability": "nonpayable",
      "type": "constructor"
    },
    {
      "anonymous": false,
      "inputs": [
        {
          "indexed": true,
          "internalType": "address",
          "name": "owner",
          "type": "address"
        },
        {
          "indexed": true,
          "internalType": "address",
          "name": "spender",
          "type": "address"
        },
        {
          "indexed": false,
          "internalType": "uint256",
          "name": "value",
          "type": "uint256"
        }
      ],
      "name": "Approval",
      "type": "event"
    },
    {
      "anonymous": false,
      "inputs": [
        {
          "indexed": true,
          "internalType": "address",
          "name": "from",
          "type": "address"
        },
        {
          "indexed": true,
          "internalType": "address",
          "name": "to",
          "type": "address"
        },
        {
          "indexed": false,
          "internalType": "uint256",
          "name": "value",
          "type": "uint256"
        }
      ],
      "name": "Transfer",
      "type": "event"
    },
    {
      "inputs": [
        {
          "internalType": "address",
          "name": "owner",
          "type": "address"
        },
        {
          "internalType": "address",
          "name": "spender",
          "type": "address"
        }
      ],
      "name": "allowance",
      "outputs": [
        {
          "internalType": "uint256",
          "name": "",
          "type": "uint256"
        }
      ],
      "stateMutability": "view",
      "type": "function"
    },
    {
      "inputs": [
        {
          "internalType": "address",
          "name": "spender",
          "type": "address"
        },
        {
          "internalType": "uint256",
          "name": "amount",
          "type": "uint256"
        }
      ],
      "name": "approve",
      "outputs": [
        {
          "internalType": "bool",
          "name": "",
          "type": "bool"
        }
      ],
      "stateMutability": "nonpayable",
      "type": "function"
    },
    {
      "inputs": [
        {
          "internalType": "address",
          "name": "account",
          "type": "address"
        }
      ],
      "name": "balanceOf",
      "outputs": [
        {
          "internalType": "uint256",
          "name": "",
          "type": "uint256"
        }
      ],
      "stateMutability": "view",
      "type": "function"
    },
    {
      "inputs": [
        {
          "internalType": "uint256",
          "name": "amount",
          "type": "uint256"
        }
      ],
      "name": "burn",
      "outputs": [],
      "stateMutability": "nonpayable",
      "type": "function"
    },
    {
      "inputs": [
        {
          "internalType": "address",
          "name": "account",
          "type": "address"
        },
        {
          "internalType": "uint256",
          "name": "amount",
          "type": "uint256"
        }
      ],
      "name": "burnFrom",
      "outputs": [],
      "stateMutability": "nonpayable",
      "type": "function"
    },
    {
      "inputs": [
        {
          "internalType": "uint256",
          "name": "_amount",
          "type": "uint256"
        }
      ],
      "name": "calculateProtocolFee",
      "outputs": [
        {
          "internalType": "uint256",
          "name": "",
          "type": "uint256"
        }
      ],
      "stateMutability": "view",
      "type": "function"
    },
    {
      "inputs": [],
      "name": "decimals",
      "outputs": [
        {
          "internalType": "uint8",
          "name": "",
          "type": "uint8"
        }
      ],
      "stateMutability": "view",
      "type": "function"
    },
    {
      "inputs": [
        {
          "internalType": "address",
          "name": "spender",
          "type": "address"
        },
        {
          "internalType": "uint256",
          "name": "subtractedValue",
          "type": "uint256"
        }
      ],
      "name": "decreaseAllowance",
      "outputs": [
        {
          "internalType": "bool",
          "name": "",
          "type": "bool"
        }
      ],
      "stateMutability": "nonpayable",
      "type": "function"
    },
    {
      "inputs": [
        {
          "internalType": "address",
          "name": "spender",
          "type": "address"
        },
        {
          "internalType": "uint256",
          "name": "addedValue",
          "type": "uint256"
        }
      ],
      "name": "increaseAllowance",
      "outputs": [
        {
          "internalType": "bool",
          "name": "",
          "type": "bool"
        }
      ],
      "stateMutability": "nonpayable",
      "type": "function"
    },
    {
      "inputs": [],
      "name": "name",
      "outputs": [
        {
          "internalType": "string",
          "name": "",
          "type": "string"
        }
      ],
      "stateMutability": "view",
      "type": "function"
    },
    {
      "inputs": [],
      "name": "symbol",
      "outputs": [
        {
          "internalType": "string",
          "name": "",
          "type": "string"
        }
      ],
      "stateMutability": "view",
      "type": "function"
    },
    {
      "inputs": [],
      "name": "totalSupply",
      "outputs": [
        {
          "internalType": "uint256",
          "name": "",
          "type": "uint256"
        }
      ],
      "stateMutability": "view",
      "type": "function"
    },
    {
      "inputs": [
        {
          "internalType": "address",
          "name": "_to",
          "type": "address"
        },
        {
          "internalType": "uint256",
          "name": "_amount",
          "type": "uint256"
        }
      ],
      "name": "transfer",
      "outputs": [
        {
          "internalType": "bool",
          "name": "",
          "type": "bool"
        }
      ],
      "stateMutability": "nonpayable",
      "type": "function"
    },
    {
      "inputs": [
        {
          "internalType": "address",
          "name": "from",
          "type": "address"
        },
        {
          "internalType": "address",
          "name": "to",
          "type": "address"
        },
        {
          "internalType": "uint256",
          "name": "amount",
          "type": "uint256"
        }
      ],
      "name": "transferFrom",
      "outputs": [
        {
          "internalType": "bool",
          "name": "",
          "type": "bool"
        }
      ],
      "stateMutability": "nonpayable",
      "type": "function"
    }
  ],
  "bytecode": "0x60806040523480156200001157600080fd5b506040516200222e3803806200222e8339818101604052810190620000379190620003e7565b6040518060400160405280600d81526020017f436f6d7261646520546f6b656e000000000000000000000000000000000000008152506040518060400160405280600781526020017f434f4d52414445000000000000000000000000000000000000000000000000008152508160039080519060200190620000bb92919062000309565b508060049080519060200190620000d492919062000309565b5050506200011733620000ec6200017d60201b60201c565b6012620000fa919062000568565b633b9aca006200010b9190620006a5565b6200018660201b60201c565b81600560006101000a81548161ffff021916908361ffff16021790555080600560026101000a81548173ffffffffffffffffffffffffffffffffffffffff021916908373ffffffffffffffffffffffffffffffffffffffff16021790555050506200085d565b60006012905090565b600073ffffffffffffffffffffffffffffffffffffffff168273ffffffffffffffffffffffffffffffffffffffff161415620001f9576040517f08c379a0000000000000000000000000000000000000000000000000000000008152600401620001f09062000460565b60405180910390fd5b6200020d60008383620002ff60201b60201c565b8060026000828254620002219190620004b0565b92505081905550806000808473ffffffffffffffffffffffffffffffffffffffff1673ffffffffffffffffffffffffffffffffffffffff1681526020019081526020016000206000828254620002789190620004b0565b925050819055508173ffffffffffffffffffffffffffffffffffffffff16600073ffffffffffffffffffffffffffffffffffffffff167fddf252ad1be2c89b69c2b068fc378daa952ba7f163c4a11628f55a4df523b3ef83604051620002df919062000482565b60405180910390a3620002fb600083836200030460201b60201c565b5050565b505050565b505050565b82805462000317906200075f565b90600052602060002090601f0160209004810192826200033b576000855562000387565b82601f106200035657805160ff191683800117855562000387565b8280016001018555821562000387579182015b828111156200038657825182559160200191906001019062000369565b5b5090506200039691906200039a565b5090565b5b80821115620003b55760008160009055506001016200039b565b5090565b600081519050620003ca8162000829565b92915050565b600081519050620003e18162000843565b92915050565b60008060408385031215620003fb57600080fd5b60006200040b85828601620003d0565b92505060206200041e85828601620003b9565b9150509250929050565b600062000437601f836200049f565b9150620004448262000800565b602082019050919050565b6200045a8162000748565b82525050565b600060208201905081810360008301526200047b8162000428565b9050919050565b60006020820190506200049960008301846200044f565b92915050565b600082825260208201905092915050565b6000620004bd8262000748565b9150620004ca8362000748565b9250827fffffffffffffffffffffffffffffffffffffffffffffffffffffffffffffffff0382111562000502576200050162000795565b5b828201905092915050565b6000808291508390505b60018511156200055f5780860481111562000537576200053662000795565b5b6001851615620005475780820291505b80810290506200055785620007f3565b945062000517565b94509492505050565b6000620005758262000748565b9150620005828362000752565b9250620005b17fffffffffffffffffffffffffffffffffffffffffffffffffffffffffffffffff8484620005b9565b905092915050565b600082620005cb57600190506200069e565b81620005db57600090506200069e565b8160018114620005f45760028114620005ff5762000635565b60019150506200069e565b60ff84111562000614576200061362000795565b5b8360020a9150848211156200062e576200062d62000795565b5b506200069e565b5060208310610133831016604e8410600b84101617156200066f5782820a90508381111562000669576200066862000795565b5b6200069e565b6200067e84848460016200050d565b9250905081840481111562000698576200069762000795565b5b81810290505b9392505050565b6000620006b28262000748565b9150620006bf8362000748565b9250817fffffffffffffffffffffffffffffffffffffffffffffffffffffffffffffffff0483118215151615620006fb57620006fa62000795565b5b828202905092915050565b6000620007138262000728565b9050919050565b600061ffff82169050919050565b600073ffffffffffffffffffffffffffffffffffffffff82169050919050565b6000819050919050565b600060ff82169050919050565b600060028204905060018216806200077857607f821691505b602082108114156200078f576200078e620007c4565b5b50919050565b7f4e487b7100000000000000000000000000000000000000000000000000000000600052601160045260246000fd5b7f4e487b7100000000000000000000000000000000000000000000000000000000600052602260045260246000fd5b60008160011c9050919050565b7f45524332303a206d696e7420746f20746865207a65726f206164647265737300600082015250565b620008348162000706565b81146200084057600080fd5b50565b6200084e816200071a565b81146200085a57600080fd5b50565b6119c1806200086d6000396000f3fe608060405234801561001057600080fd5b50600436106100ea5760003560e01c806370a082311161008c5780639c7c270c116100665780639c7c270c1461025f578063a457c2d71461028f578063a9059cbb146102bf578063dd62ed3e146102ef576100ea565b806370a08231146101f557806379cc67901461022557806395d89b4114610241576100ea565b806323b872dd116100c857806323b872dd1461015b578063313ce5671461018b57806339509351146101a957806342966c68146101d9576100ea565b806306fdde03146100ef578063095ea7b31461010d57806318160ddd1461013d575b600080fd5b6100f761031f565b6040516101049190611272565b60405180910390f35b6101276004803603810190610122919061102e565b6103b1565b6040516101349190611257565b60405180910390f35b6101456103d4565b60405161015291906113d4565b60405180910390f35b61017560048036038101906101709190610fdf565b6103de565b6040516101829190611257565b60405180910390f35b61019361040d565b6040516101a091906113ef565b60405180910390f35b6101c360048036038101906101be919061102e565b610416565b6040516101d09190611257565b60405180910390f35b6101f360048036038101906101ee919061106a565b6104c0565b005b61020f600480360381019061020a9190610f7a565b6104d4565b60405161021c91906113d4565b60405180910390f35b61023f600480360381019061023a919061102e565b61051c565b005b61024961053c565b6040516102569190611272565b60405180910390f35b6102796004803603810190610274919061106a565b6105ce565b60405161028691906113d4565b60405180910390f35b6102a960048036038101906102a4919061102e565b610604565b6040516102b69190611257565b60405180910390f35b6102d960048036038101906102d4919061102e565b6106ee565b6040516102e69190611257565b60405180910390f35b61030960048036038101906103049190610fa3565b6107da565b60405161031691906113d4565b60405180910390f35b60606003805461032e906115c3565b80601f016020809104026020016040519081016040528092919081815260200182805461035a906115c3565b80156103a75780601f1061037c576101008083540402835291602001916103a7565b820191906000526020600020905b81548152906001019060200180831161038a57829003601f168201915b5050505050905090565b6000806103bc610861565b90506103c9818585610869565b600191505092915050565b6000600254905090565b6000806103e9610861565b90506103f6858285610a34565b610401858585610ac0565b60019150509392505050565b60006012905090565b600080610421610861565b90506104b5818585600160008673ffffffffffffffffffffffffffffffffffffffff1673ffffffffffffffffffffffffffffffffffffffff16815260200190815260200160002060008973ffffffffffffffffffffffffffffffffffffffff1673ffffffffffffffffffffffffffffffffffffffff168152602001908152602001600020546104b09190611426565b610869565b600191505092915050565b6104d16104cb610861565b82610d41565b50565b60008060008373ffffffffffffffffffffffffffffffffffffffff1673ffffffffffffffffffffffffffffffffffffffff168152602001908152602001600020549050919050565b61052e82610528610861565b83610a34565b6105388282610d41565b5050565b60606004805461054b906115c3565b80601f0160208091040260200160405190810160405280929190818152602001828054610577906115c3565b80156105c45780601f10610599576101008083540402835291602001916105c4565b820191906000526020600020905b8154815290600101906020018083116105a757829003601f168201915b5050505050905090565b6000612710600560009054906101000a900461ffff1661ffff16836105f391906114ad565b6105fd919061147c565b9050919050565b60008061060f610861565b90506000600160008373ffffffffffffffffffffffffffffffffffffffff1673ffffffffffffffffffffffffffffffffffffffff16815260200190815260200160002060008673ffffffffffffffffffffffffffffffffffffffff1673ffffffffffffffffffffffffffffffffffffffff168152602001908152602001600020549050838110156106d5576040517f08c379a00000000000000000000000000000000000000000000000000000000081526004016106cc906113b4565b60405180910390fd5b6106e28286868403610869565b60019250505092915050565b6000806106f9610861565b905082610705826104d4565b1015610746576040517f08c379a000000000000000000000000000000000000000000000000000000000815260040161073d90611314565b60405180910390fd5b6107508184610f18565b61078f576040517f08c379a000000000000000000000000000000000000000000000000000000000815260040161078690611374565b60405180910390fd5b6107c481600560029054906101000a900473ffffffffffffffffffffffffffffffffffffffff166107bf866105ce565b610ac0565b6107cf818585610ac0565b600191505092915050565b6000600160008473ffffffffffffffffffffffffffffffffffffffff1673ffffffffffffffffffffffffffffffffffffffff16815260200190815260200160002060008373ffffffffffffffffffffffffffffffffffffffff1673ffffffffffffffffffffffffffffffffffffffff16815260200190815260200160002054905092915050565b600033905090565b600073ffffffffffffffffffffffffffffffffffffffff168373ffffffffffffffffffffffffffffffffffffffff1614156108d9576040517f08c379a00000000000000000000000000000000000000000000000000000000081526004016108d090611394565b60405180910390fd5b600073ffffffffffffffffffffffffffffffffffffffff168273ffffffffffffffffffffffffffffffffffffffff161415610949576040517f08c379a0000000000000000000000000000000000000000000000000000000008152600401610940906112d4565b60405180910390fd5b80600160008573ffffffffffffffffffffffffffffffffffffffff1673ffffffffffffffffffffffffffffffffffffffff16815260200190815260200160002060008473ffffffffffffffffffffffffffffffffffffffff1673ffffffffffffffffffffffffffffffffffffffff168152602001908152602001600020819055508173ffffffffffffffffffffffffffffffffffffffff168373ffffffffffffffffffffffffffffffffffffffff167f8c5be1e5ebec7d5bd14f71427d1e84f3dd0314c0f7b2291e5b200ac8c7c3b92583604051610a2791906113d4565b60405180910390a3505050565b6000610a4084846107da565b90507fffffffffffffffffffffffffffffffffffffffffffffffffffffffffffffffff8114610aba5781811015610aac576040517f08c379a0000000000000000000000000000000000000000000000000000000008152600401610aa3906112f4565b60405180910390fd5b610ab98484848403610869565b5b50505050565b600073ffffffffffffffffffffffffffffffffffffffff168373ffffffffffffffffffffffffffffffffffffffff161415610b30576040517f08c379a0000000000000000000000000000000000000000000000000000000008152600401610b2790611354565b60405180910390fd5b600073ffffffffffffffffffffffffffffffffffffffff168273ffffffffffffffffffffffffffffffffffffffff161415610ba0576040517f08c379a0000000000000000000000000000000000000000000000000000000008152600401610b9790611294565b60405180910390fd5b610bab838383610f46565b60008060008573ffffffffffffffffffffffffffffffffffffffff1673ffffffffffffffffffffffffffffffffffffffff16815260200190815260200160002054905081811015610c31576040517f08c379a0000000000000000000000000000000000000000000000000000000008152600401610c2890611314565b60405180910390fd5b8181036000808673ffffffffffffffffffffffffffffffffffffffff1673ffffffffffffffffffffffffffffffffffffffff16815260200190815260200160002081905550816000808573ffffffffffffffffffffffffffffffffffffffff1673ffffffffffffffffffffffffffffffffffffffff1681526020019081526020016000206000828254610cc49190611426565b925050819055508273ffffffffffffffffffffffffffffffffffffffff168473ffffffffffffffffffffffffffffffffffffffff167fddf252ad1be2c89b69c2b068fc378daa952ba7f163c4a11628f55a4df523b3ef84604051610d2891906113d4565b60405180910390a3610d3b848484610f4b565b50505050565b600073ffffffffffffffffffffffffffffffffffffffff168273ffffffffffffffffffffffffffffffffffffffff161415610db1576040517f08c379a0000000000000000000000000000000000000000000000000000000008152600401610da890611334565b60405180910390fd5b610dbd82600083610f46565b60008060008473ffffffffffffffffffffffffffffffffffffffff1673ffffffffffffffffffffffffffffffffffffffff16815260200190815260200160002054905081811015610e43576040517f08c379a0000000000000000000000000000000000000000000000000000000008152600401610e3a906112b4565b60405180910390fd5b8181036000808573ffffffffffffffffffffffffffffffffffffffff1673ffffffffffffffffffffffffffffffffffffffff168152602001908152602001600020819055508160026000828254610e9a9190611507565b92505081905550600073ffffffffffffffffffffffffffffffffffffffff168373ffffffffffffffffffffffffffffffffffffffff167fddf252ad1be2c89b69c2b068fc378daa952ba7f163c4a11628f55a4df523b3ef84604051610eff91906113d4565b60405180910390a3610f1383600084610f4b565b505050565b600080610f24836105ce565b83610f2f9190611426565b905080610f3b856104d4565b101591505092915050565b505050565b505050565b600081359050610f5f8161195d565b92915050565b600081359050610f7481611974565b92915050565b600060208284031215610f8c57600080fd5b6000610f9a84828501610f50565b91505092915050565b60008060408385031215610fb657600080fd5b6000610fc485828601610f50565b9250506020610fd585828601610f50565b9150509250929050565b600080600060608486031215610ff457600080fd5b600061100286828701610f50565b935050602061101386828701610f50565b925050604061102486828701610f65565b9150509250925092565b6000806040838503121561104157600080fd5b600061104f85828601610f50565b925050602061106085828601610f65565b9150509250929050565b60006020828403121561107c57600080fd5b600061108a84828501610f65565b91505092915050565b61109c8161154d565b82525050565b60006110ad8261140a565b6110b78185611415565b93506110c7818560208601611590565b6110d081611682565b840191505092915050565b60006110e8602383611415565b91506110f382611693565b604082019050919050565b600061110b602283611415565b9150611116826116e2565b604082019050919050565b600061112e602283611415565b915061113982611731565b604082019050919050565b6000611151601d83611415565b915061115c82611780565b602082019050919050565b6000611174602683611415565b915061117f826117a9565b604082019050919050565b6000611197602183611415565b91506111a2826117f8565b604082019050919050565b60006111ba602583611415565b91506111c582611847565b604082019050919050565b60006111dd602083611415565b91506111e882611896565b602082019050919050565b6000611200602483611415565b915061120b826118bf565b604082019050919050565b6000611223602583611415565b915061122e8261190e565b604082019050919050565b61124281611579565b82525050565b61125181611583565b82525050565b600060208201905061126c6000830184611093565b92915050565b6000602082019050818103600083015261128c81846110a2565b905092915050565b600060208201905081810360008301526112ad816110db565b9050919050565b600060208201905081810360008301526112cd816110fe565b9050919050565b600060208201905081810360008301526112ed81611121565b9050919050565b6000602082019050818103600083015261130d81611144565b9050919050565b6000602082019050818103600083015261132d81611167565b9050919050565b6000602082019050818103600083015261134d8161118a565b9050919050565b6000602082019050818103600083015261136d816111ad565b9050919050565b6000602082019050818103600083015261138d816111d0565b9050919050565b600060208201905081810360008301526113ad816111f3565b9050919050565b600060208201905081810360008301526113cd81611216565b9050919050565b60006020820190506113e96000830184611239565b92915050565b60006020820190506114046000830184611248565b92915050565b600081519050919050565b600082825260208201905092915050565b600061143182611579565b915061143c83611579565b9250827fffffffffffffffffffffffffffffffffffffffffffffffffffffffffffffffff03821115611471576114706115f5565b5b828201905092915050565b600061148782611579565b915061149283611579565b9250826114a2576114a1611624565b5b828204905092915050565b60006114b882611579565b91506114c383611579565b9250817fffffffffffffffffffffffffffffffffffffffffffffffffffffffffffffffff04831182151516156114fc576114fb6115f5565b5b828202905092915050565b600061151282611579565b915061151d83611579565b9250828210156115305761152f6115f5565b5b828203905092915050565b600061154682611559565b9050919050565b60008115159050919050565b600073ffffffffffffffffffffffffffffffffffffffff82169050919050565b6000819050919050565b600060ff82169050919050565b60005b838110156115ae578082015181840152602081019050611593565b838111156115bd576000848401525b50505050565b600060028204905060018216806115db57607f821691505b602082108114156115ef576115ee611653565b5b50919050565b7f4e487b7100000000000000000000000000000000000000000000000000000000600052601160045260246000fd5b7f4e487b7100000000000000000000000000000000000000000000000000000000600052601260045260246000fd5b7f4e487b7100000000000000000000000000000000000000000000000000000000600052602260045260246000fd5b6000601f19601f8301169050919050565b7f45524332303a207472616e7366657220746f20746865207a65726f206164647260008201527f6573730000000000000000000000000000000000000000000000000000000000602082015250565b7f45524332303a206275726e20616d6f756e7420657863656564732062616c616e60008201527f6365000000000000000000000000000000000000000000000000000000000000602082015250565b7f45524332303a20617070726f766520746f20746865207a65726f20616464726560008201527f7373000000000000000000000000000000000000000000000000000000000000602082015250565b7f45524332303a20696e73756666696369656e7420616c6c6f77616e6365000000600082015250565b7f45524332303a207472616e7366657220616d6f756e742065786365656473206260008201527f616c616e63650000000000000000000000000000000000000000000000000000602082015250565b7f45524332303a206275726e2066726f6d20746865207a65726f2061646472657360008201527f7300000000000000000000000000000000000000000000000000000000000000602082015250565b7f45524332303a207472616e736665722066726f6d20746865207a65726f20616460008201527f6472657373000000000000000000000000000000000000000000000000000000602082015250565b7f434f4d524144453a2043616e6e6f74207061792070726f746f636f6c20666565600082015250565b7f45524332303a20617070726f76652066726f6d20746865207a65726f2061646460008201527f7265737300000000000000000000000000000000000000000000000000000000602082015250565b7f45524332303a2064656372656173656420616c6c6f77616e63652062656c6f7760008201527f207a65726f000000000000000000000000000000000000000000000000000000602082015250565b6119668161153b565b811461197157600080fd5b50565b61197d81611579565b811461198857600080fd5b5056fea264697066735822122071bd502682635f2a5f54dd09df429b174dba41150a8749f6ba6fc4cb09862d7464736f6c63430008040033",
  "linkReferences": {},
  "deployedLinkReferences": {}
}