{
  "_format": "hh-sol-artifact-1",
  "contractName": "ComradeToken",
  "sourceName": "contracts/ComradeToken.sol",
  "abi": [
    {
      "inputs": [
        {
          "internalType": "uint16",
          "name": "_protocolPerc",
          "type": "uint16"
        },
        {
          "internalType": "address payable",
          "name": "_protocolWallet",
          "type": "address"
        }
      ],
      "stateMutability": "nonpayable",
      "type": "constructor"
    },
    {
      "anonymous": false,
      "inputs": [
        {
          "indexed": true,
          "internalType": "address",
          "name": "owner",
          "type": "address"
        },
        {
          "indexed": true,
          "internalType": "address",
          "name": "spender",
          "type": "address"
        },
        {
          "indexed": false,
          "internalType": "uint256",
          "name": "value",
          "type": "uint256"
        }
      ],
      "name": "Approval",
      "type": "event"
    },
    {
      "anonymous": false,
      "inputs": [
        {
          "indexed": true,
          "internalType": "address",
          "name": "from",
          "type": "address"
        },
        {
          "indexed": true,
          "internalType": "address",
          "name": "to",
          "type": "address"
        },
        {
          "indexed": false,
          "internalType": "uint256",
          "name": "value",
          "type": "uint256"
        }
      ],
      "name": "Transfer",
      "type": "event"
    },
    {
      "inputs": [
        {
          "internalType": "address",
          "name": "owner",
          "type": "address"
        },
        {
          "internalType": "address",
          "name": "spender",
          "type": "address"
        }
      ],
      "name": "allowance",
      "outputs": [
        {
          "internalType": "uint256",
          "name": "",
          "type": "uint256"
        }
      ],
      "stateMutability": "view",
      "type": "function"
    },
    {
      "inputs": [
        {
          "internalType": "address",
          "name": "_spender",
          "type": "address"
        },
        {
          "internalType": "uint256",
          "name": "_amount",
          "type": "uint256"
        }
      ],
      "name": "approve",
      "outputs": [
        {
          "internalType": "bool",
          "name": "",
          "type": "bool"
        }
      ],
      "stateMutability": "nonpayable",
      "type": "function"
    },
    {
      "inputs": [
        {
          "internalType": "address",
          "name": "account",
          "type": "address"
        }
      ],
      "name": "balanceOf",
      "outputs": [
        {
          "internalType": "uint256",
          "name": "",
          "type": "uint256"
        }
      ],
      "stateMutability": "view",
      "type": "function"
    },
    {
      "inputs": [
        {
          "internalType": "uint256",
          "name": "amount",
          "type": "uint256"
        }
      ],
      "name": "burn",
      "outputs": [],
      "stateMutability": "nonpayable",
      "type": "function"
    },
    {
      "inputs": [
        {
          "internalType": "address",
          "name": "account",
          "type": "address"
        },
        {
          "internalType": "uint256",
          "name": "amount",
          "type": "uint256"
        }
      ],
      "name": "burnFrom",
      "outputs": [],
      "stateMutability": "nonpayable",
      "type": "function"
    },
    {
      "inputs": [
        {
          "internalType": "uint256",
          "name": "_amount",
          "type": "uint256"
        }
      ],
      "name": "calculateProtocolFee",
      "outputs": [
        {
          "internalType": "uint256",
          "name": "",
          "type": "uint256"
        }
      ],
      "stateMutability": "view",
      "type": "function"
    },
    {
      "inputs": [],
      "name": "decimals",
      "outputs": [
        {
          "internalType": "uint8",
          "name": "",
          "type": "uint8"
        }
      ],
      "stateMutability": "view",
      "type": "function"
    },
    {
      "inputs": [
        {
          "internalType": "address",
          "name": "spender",
          "type": "address"
        },
        {
          "internalType": "uint256",
          "name": "subtractedValue",
          "type": "uint256"
        }
      ],
      "name": "decreaseAllowance",
      "outputs": [
        {
          "internalType": "bool",
          "name": "",
          "type": "bool"
        }
      ],
      "stateMutability": "nonpayable",
      "type": "function"
    },
    {
      "inputs": [
        {
          "internalType": "address",
          "name": "spender",
          "type": "address"
        },
        {
          "internalType": "uint256",
          "name": "addedValue",
          "type": "uint256"
        }
      ],
      "name": "increaseAllowance",
      "outputs": [
        {
          "internalType": "bool",
          "name": "",
          "type": "bool"
        }
      ],
      "stateMutability": "nonpayable",
      "type": "function"
    },
    {
      "inputs": [],
      "name": "name",
      "outputs": [
        {
          "internalType": "string",
          "name": "",
          "type": "string"
        }
      ],
      "stateMutability": "view",
      "type": "function"
    },
    {
      "inputs": [],
      "name": "symbol",
      "outputs": [
        {
          "internalType": "string",
          "name": "",
          "type": "string"
        }
      ],
      "stateMutability": "view",
      "type": "function"
    },
    {
      "inputs": [],
      "name": "totalSupply",
      "outputs": [
        {
          "internalType": "uint256",
          "name": "",
          "type": "uint256"
        }
      ],
      "stateMutability": "view",
      "type": "function"
    },
    {
      "inputs": [
        {
          "internalType": "address",
          "name": "_to",
          "type": "address"
        },
        {
          "internalType": "uint256",
          "name": "_amount",
          "type": "uint256"
        }
      ],
      "name": "transfer",
      "outputs": [
        {
          "internalType": "bool",
          "name": "",
          "type": "bool"
        }
      ],
      "stateMutability": "nonpayable",
      "type": "function"
    },
    {
      "inputs": [
        {
          "internalType": "address",
          "name": "from",
          "type": "address"
        },
        {
          "internalType": "address",
          "name": "to",
          "type": "address"
        },
        {
          "internalType": "uint256",
          "name": "amount",
          "type": "uint256"
        }
      ],
      "name": "transferFrom",
      "outputs": [
        {
          "internalType": "bool",
          "name": "",
          "type": "bool"
        }
      ],
      "stateMutability": "nonpayable",
      "type": "function"
    }
  ],
  "bytecode": "0x60806040523480156200001157600080fd5b5060405162002389380380620023898339818101604052810190620000379190620003e7565b6040518060400160405280600d81526020017f436f6d7261646520546f6b656e000000000000000000000000000000000000008152506040518060400160405280600781526020017f434f4d52414445000000000000000000000000000000000000000000000000008152508160039080519060200190620000bb92919062000309565b508060049080519060200190620000d492919062000309565b5050506200011733620000ec6200017d60201b60201c565b6012620000fa919062000568565b633b9aca006200010b9190620006a5565b6200018660201b60201c565b81600560006101000a81548161ffff021916908361ffff16021790555080600560026101000a81548173ffffffffffffffffffffffffffffffffffffffff021916908373ffffffffffffffffffffffffffffffffffffffff16021790555050506200085d565b60006012905090565b600073ffffffffffffffffffffffffffffffffffffffff168273ffffffffffffffffffffffffffffffffffffffff161415620001f9576040517f08c379a0000000000000000000000000000000000000000000000000000000008152600401620001f09062000460565b60405180910390fd5b6200020d60008383620002ff60201b60201c565b8060026000828254620002219190620004b0565b92505081905550806000808473ffffffffffffffffffffffffffffffffffffffff1673ffffffffffffffffffffffffffffffffffffffff1681526020019081526020016000206000828254620002789190620004b0565b925050819055508173ffffffffffffffffffffffffffffffffffffffff16600073ffffffffffffffffffffffffffffffffffffffff167fddf252ad1be2c89b69c2b068fc378daa952ba7f163c4a11628f55a4df523b3ef83604051620002df919062000482565b60405180910390a3620002fb600083836200030460201b60201c565b5050565b505050565b505050565b82805462000317906200075f565b90600052602060002090601f0160209004810192826200033b576000855562000387565b82601f106200035657805160ff191683800117855562000387565b8280016001018555821562000387579182015b828111156200038657825182559160200191906001019062000369565b5b5090506200039691906200039a565b5090565b5b80821115620003b55760008160009055506001016200039b565b5090565b600081519050620003ca8162000829565b92915050565b600081519050620003e18162000843565b92915050565b60008060408385031215620003fb57600080fd5b60006200040b85828601620003d0565b92505060206200041e85828601620003b9565b9150509250929050565b600062000437601f836200049f565b9150620004448262000800565b602082019050919050565b6200045a8162000748565b82525050565b600060208201905081810360008301526200047b8162000428565b9050919050565b60006020820190506200049960008301846200044f565b92915050565b600082825260208201905092915050565b6000620004bd8262000748565b9150620004ca8362000748565b9250827fffffffffffffffffffffffffffffffffffffffffffffffffffffffffffffffff0382111562000502576200050162000795565b5b828201905092915050565b6000808291508390505b60018511156200055f5780860481111562000537576200053662000795565b5b6001851615620005475780820291505b80810290506200055785620007f3565b945062000517565b94509492505050565b6000620005758262000748565b9150620005828362000752565b9250620005b17fffffffffffffffffffffffffffffffffffffffffffffffffffffffffffffffff8484620005b9565b905092915050565b600082620005cb57600190506200069e565b81620005db57600090506200069e565b8160018114620005f45760028114620005ff5762000635565b60019150506200069e565b60ff84111562000614576200061362000795565b5b8360020a9150848211156200062e576200062d62000795565b5b506200069e565b5060208310610133831016604e8410600b84101617156200066f5782820a90508381111562000669576200066862000795565b5b6200069e565b6200067e84848460016200050d565b9250905081840481111562000698576200069762000795565b5b81810290505b9392505050565b6000620006b28262000748565b9150620006bf8362000748565b9250817fffffffffffffffffffffffffffffffffffffffffffffffffffffffffffffffff0483118215151615620006fb57620006fa62000795565b5b828202905092915050565b6000620007138262000728565b9050919050565b600061ffff82169050919050565b600073ffffffffffffffffffffffffffffffffffffffff82169050919050565b6000819050919050565b600060ff82169050919050565b600060028204905060018216806200077857607f821691505b602082108114156200078f576200078e620007c4565b5b50919050565b7f4e487b7100000000000000000000000000000000000000000000000000000000600052601160045260246000fd5b7f4e487b7100000000000000000000000000000000000000000000000000000000600052602260045260246000fd5b60008160011c9050919050565b7f45524332303a206d696e7420746f20746865207a65726f206164647265737300600082015250565b620008348162000706565b81146200084057600080fd5b50565b6200084e816200071a565b81146200085a57600080fd5b50565b611b1c806200086d6000396000f3fe608060405234801561001057600080fd5b50600436106100ea5760003560e01c806370a082311161008c5780639c7c270c116100665780639c7c270c1461025f578063a457c2d71461028f578063a9059cbb146102bf578063dd62ed3e146102ef576100ea565b806370a08231146101f557806379cc67901461022557806395d89b4114610241576100ea565b806323b872dd116100c857806323b872dd1461015b578063313ce5671461018b57806339509351146101a957806342966c68146101d9576100ea565b806306fdde03146100ef578063095ea7b31461010d57806318160ddd1461013d575b600080fd5b6100f761031f565b604051610104919061135e565b60405180910390f35b610127600480360381019061012291906110f7565b6103b1565b6040516101349190611343565b60405180910390f35b61014561049d565b60405161015291906114e0565b60405180910390f35b610175600480360381019061017091906110a8565b6104a7565b6040516101829190611343565b60405180910390f35b6101936104d6565b6040516101a091906114fb565b60405180910390f35b6101c360048036038101906101be91906110f7565b6104df565b6040516101d09190611343565b60405180910390f35b6101f360048036038101906101ee9190611133565b610589565b005b61020f600480360381019061020a9190611043565b61059d565b60405161021c91906114e0565b60405180910390f35b61023f600480360381019061023a91906110f7565b6105e5565b005b610249610605565b604051610256919061135e565b60405180910390f35b61027960048036038101906102749190611133565b610697565b60405161028691906114e0565b60405180910390f35b6102a960048036038101906102a491906110f7565b6106cd565b6040516102b69190611343565b60405180910390f35b6102d960048036038101906102d491906110f7565b6107b7565b6040516102e69190611343565b60405180910390f35b6103096004803603810190610304919061106c565b6108a3565b60405161031691906114e0565b60405180910390f35b60606003805461032e906116cf565b80601f016020809104026020016040519081016040528092919081815260200182805461035a906116cf565b80156103a75780601f1061037c576101008083540402835291602001916103a7565b820191906000526020600020905b81548152906001019060200180831161038a57829003601f168201915b5050505050905090565b6000806103bc61092a565b9050826103c88261059d565b1015610409576040517f08c379a0000000000000000000000000000000000000000000000000000000008152600401610400906113e0565b60405180910390fd5b6104138184610932565b610452576040517f08c379a000000000000000000000000000000000000000000000000000000000815260040161044990611480565b60405180910390fd5b61048781600560029054906101000a900473ffffffffffffffffffffffffffffffffffffffff1661048286610697565b610960565b610492818585610be1565b600191505092915050565b6000600254905090565b6000806104b261092a565b90506104bf858285610dac565b6104ca858585610960565b60019150509392505050565b60006012905090565b6000806104ea61092a565b905061057e818585600160008673ffffffffffffffffffffffffffffffffffffffff1673ffffffffffffffffffffffffffffffffffffffff16815260200190815260200160002060008973ffffffffffffffffffffffffffffffffffffffff1673ffffffffffffffffffffffffffffffffffffffff168152602001908152602001600020546105799190611532565b610be1565b600191505092915050565b61059a61059461092a565b82610e38565b50565b60008060008373ffffffffffffffffffffffffffffffffffffffff1673ffffffffffffffffffffffffffffffffffffffff168152602001908152602001600020549050919050565b6105f7826105f161092a565b83610dac565b6106018282610e38565b5050565b606060048054610614906116cf565b80601f0160208091040260200160405190810160405280929190818152602001828054610640906116cf565b801561068d5780601f106106625761010080835404028352916020019161068d565b820191906000526020600020905b81548152906001019060200180831161067057829003601f168201915b5050505050905090565b6000612710600560009054906101000a900461ffff1661ffff16836106bc91906115b9565b6106c69190611588565b9050919050565b6000806106d861092a565b90506000600160008373ffffffffffffffffffffffffffffffffffffffff1673ffffffffffffffffffffffffffffffffffffffff16815260200190815260200160002060008673ffffffffffffffffffffffffffffffffffffffff1673ffffffffffffffffffffffffffffffffffffffff1681526020019081526020016000205490508381101561079e576040517f08c379a0000000000000000000000000000000000000000000000000000000008152600401610795906114c0565b60405180910390fd5b6107ab8286868403610be1565b60019250505092915050565b6000806107c261092a565b9050826107ce8261059d565b101561080f576040517f08c379a000000000000000000000000000000000000000000000000000000000815260040161080690611420565b60405180910390fd5b6108198184610932565b610858576040517f08c379a000000000000000000000000000000000000000000000000000000000815260040161084f90611480565b60405180910390fd5b61088d81600560029054906101000a900473ffffffffffffffffffffffffffffffffffffffff1661088886610697565b610960565b610898818585610960565b600191505092915050565b6000600160008473ffffffffffffffffffffffffffffffffffffffff1673ffffffffffffffffffffffffffffffffffffffff16815260200190815260200160002060008373ffffffffffffffffffffffffffffffffffffffff1673ffffffffffffffffffffffffffffffffffffffff16815260200190815260200160002054905092915050565b600033905090565b60008061093e83610697565b836109499190611532565b9050806109558561059d565b101591505092915050565b600073ffffffffffffffffffffffffffffffffffffffff168373ffffffffffffffffffffffffffffffffffffffff1614156109d0576040517f08c379a00000000000000000000000000000000000000000000000000000000081526004016109c790611460565b60405180910390fd5b600073ffffffffffffffffffffffffffffffffffffffff168273ffffffffffffffffffffffffffffffffffffffff161415610a40576040517f08c379a0000000000000000000000000000000000000000000000000000000008152600401610a3790611380565b60405180910390fd5b610a4b83838361100f565b60008060008573ffffffffffffffffffffffffffffffffffffffff1673ffffffffffffffffffffffffffffffffffffffff16815260200190815260200160002054905081811015610ad1576040517f08c379a0000000000000000000000000000000000000000000000000000000008152600401610ac890611420565b60405180910390fd5b8181036000808673ffffffffffffffffffffffffffffffffffffffff1673ffffffffffffffffffffffffffffffffffffffff16815260200190815260200160002081905550816000808573ffffffffffffffffffffffffffffffffffffffff1673ffffffffffffffffffffffffffffffffffffffff1681526020019081526020016000206000828254610b649190611532565b925050819055508273ffffffffffffffffffffffffffffffffffffffff168473ffffffffffffffffffffffffffffffffffffffff167fddf252ad1be2c89b69c2b068fc378daa952ba7f163c4a11628f55a4df523b3ef84604051610bc891906114e0565b60405180910390a3610bdb848484611014565b50505050565b600073ffffffffffffffffffffffffffffffffffffffff168373ffffffffffffffffffffffffffffffffffffffff161415610c51576040517f08c379a0000000000000000000000000000000000000000000000000000000008152600401610c48906114a0565b60405180910390fd5b600073ffffffffffffffffffffffffffffffffffffffff168273ffffffffffffffffffffffffffffffffffffffff161415610cc1576040517f08c379a0000000000000000000000000000000000000000000000000000000008152600401610cb8906113c0565b60405180910390fd5b80600160008573ffffffffffffffffffffffffffffffffffffffff1673ffffffffffffffffffffffffffffffffffffffff16815260200190815260200160002060008473ffffffffffffffffffffffffffffffffffffffff1673ffffffffffffffffffffffffffffffffffffffff168152602001908152602001600020819055508173ffffffffffffffffffffffffffffffffffffffff168373ffffffffffffffffffffffffffffffffffffffff167f8c5be1e5ebec7d5bd14f71427d1e84f3dd0314c0f7b2291e5b200ac8c7c3b92583604051610d9f91906114e0565b60405180910390a3505050565b6000610db884846108a3565b90507fffffffffffffffffffffffffffffffffffffffffffffffffffffffffffffffff8114610e325781811015610e24576040517f08c379a0000000000000000000000000000000000000000000000000000000008152600401610e1b90611400565b60405180910390fd5b610e318484848403610be1565b5b50505050565b600073ffffffffffffffffffffffffffffffffffffffff168273ffffffffffffffffffffffffffffffffffffffff161415610ea8576040517f08c379a0000000000000000000000000000000000000000000000000000000008152600401610e9f90611440565b60405180910390fd5b610eb48260008361100f565b60008060008473ffffffffffffffffffffffffffffffffffffffff1673ffffffffffffffffffffffffffffffffffffffff16815260200190815260200160002054905081811015610f3a576040517f08c379a0000000000000000000000000000000000000000000000000000000008152600401610f31906113a0565b60405180910390fd5b8181036000808573ffffffffffffffffffffffffffffffffffffffff1673ffffffffffffffffffffffffffffffffffffffff168152602001908152602001600020819055508160026000828254610f919190611613565b92505081905550600073ffffffffffffffffffffffffffffffffffffffff168373ffffffffffffffffffffffffffffffffffffffff167fddf252ad1be2c89b69c2b068fc378daa952ba7f163c4a11628f55a4df523b3ef84604051610ff691906114e0565b60405180910390a361100a83600084611014565b505050565b505050565b505050565b60008135905061102881611ab8565b92915050565b60008135905061103d81611acf565b92915050565b60006020828403121561105557600080fd5b600061106384828501611019565b91505092915050565b6000806040838503121561107f57600080fd5b600061108d85828601611019565b925050602061109e85828601611019565b9150509250929050565b6000806000606084860312156110bd57600080fd5b60006110cb86828701611019565b93505060206110dc86828701611019565b92505060406110ed8682870161102e565b9150509250925092565b6000806040838503121561110a57600080fd5b600061111885828601611019565b92505060206111298582860161102e565b9150509250929050565b60006020828403121561114557600080fd5b60006111538482850161102e565b91505092915050565b61116581611659565b82525050565b600061117682611516565b6111808185611521565b935061119081856020860161169c565b6111998161178e565b840191505092915050565b60006111b1602383611521565b91506111bc8261179f565b604082019050919050565b60006111d4602283611521565b91506111df826117ee565b604082019050919050565b60006111f7602283611521565b91506112028261183d565b604082019050919050565b600061121a602583611521565b91506112258261188c565b604082019050919050565b600061123d601d83611521565b9150611248826118db565b602082019050919050565b6000611260602683611521565b915061126b82611904565b604082019050919050565b6000611283602183611521565b915061128e82611953565b604082019050919050565b60006112a6602583611521565b91506112b1826119a2565b604082019050919050565b60006112c9602083611521565b91506112d4826119f1565b602082019050919050565b60006112ec602483611521565b91506112f782611a1a565b604082019050919050565b600061130f602583611521565b915061131a82611a69565b604082019050919050565b61132e81611685565b82525050565b61133d8161168f565b82525050565b6000602082019050611358600083018461115c565b92915050565b60006020820190508181036000830152611378818461116b565b905092915050565b60006020820190508181036000830152611399816111a4565b9050919050565b600060208201905081810360008301526113b9816111c7565b9050919050565b600060208201905081810360008301526113d9816111ea565b9050919050565b600060208201905081810360008301526113f98161120d565b9050919050565b6000602082019050818103600083015261141981611230565b9050919050565b6000602082019050818103600083015261143981611253565b9050919050565b6000602082019050818103600083015261145981611276565b9050919050565b6000602082019050818103600083015261147981611299565b9050919050565b60006020820190508181036000830152611499816112bc565b9050919050565b600060208201905081810360008301526114b9816112df565b9050919050565b600060208201905081810360008301526114d981611302565b9050919050565b60006020820190506114f56000830184611325565b92915050565b60006020820190506115106000830184611334565b92915050565b600081519050919050565b600082825260208201905092915050565b600061153d82611685565b915061154883611685565b9250827fffffffffffffffffffffffffffffffffffffffffffffffffffffffffffffffff0382111561157d5761157c611701565b5b828201905092915050565b600061159382611685565b915061159e83611685565b9250826115ae576115ad611730565b5b828204905092915050565b60006115c482611685565b91506115cf83611685565b9250817fffffffffffffffffffffffffffffffffffffffffffffffffffffffffffffffff048311821515161561160857611607611701565b5b828202905092915050565b600061161e82611685565b915061162983611685565b92508282101561163c5761163b611701565b5b828203905092915050565b600061165282611665565b9050919050565b60008115159050919050565b600073ffffffffffffffffffffffffffffffffffffffff82169050919050565b6000819050919050565b600060ff82169050919050565b60005b838110156116ba57808201518184015260208101905061169f565b838111156116c9576000848401525b50505050565b600060028204905060018216806116e757607f821691505b602082108114156116fb576116fa61175f565b5b50919050565b7f4e487b7100000000000000000000000000000000000000000000000000000000600052601160045260246000fd5b7f4e487b7100000000000000000000000000000000000000000000000000000000600052601260045260246000fd5b7f4e487b7100000000000000000000000000000000000000000000000000000000600052602260045260246000fd5b6000601f19601f8301169050919050565b7f45524332303a207472616e7366657220746f20746865207a65726f206164647260008201527f6573730000000000000000000000000000000000000000000000000000000000602082015250565b7f45524332303a206275726e20616d6f756e7420657863656564732062616c616e60008201527f6365000000000000000000000000000000000000000000000000000000000000602082015250565b7f45524332303a20617070726f766520746f20746865207a65726f20616464726560008201527f7373000000000000000000000000000000000000000000000000000000000000602082015250565b7f45524332303a20617070726f766520616d6f756e74206578636565647320626160008201527f6c616e6365000000000000000000000000000000000000000000000000000000602082015250565b7f45524332303a20696e73756666696369656e7420616c6c6f77616e6365000000600082015250565b7f45524332303a207472616e7366657220616d6f756e742065786365656473206260008201527f616c616e63650000000000000000000000000000000000000000000000000000602082015250565b7f45524332303a206275726e2066726f6d20746865207a65726f2061646472657360008201527f7300000000000000000000000000000000000000000000000000000000000000602082015250565b7f45524332303a207472616e736665722066726f6d20746865207a65726f20616460008201527f6472657373000000000000000000000000000000000000000000000000000000602082015250565b7f434f4d524144453a2043616e6e6f74207061792070726f746f636f6c20666565600082015250565b7f45524332303a20617070726f76652066726f6d20746865207a65726f2061646460008201527f7265737300000000000000000000000000000000000000000000000000000000602082015250565b7f45524332303a2064656372656173656420616c6c6f77616e63652062656c6f7760008201527f207a65726f000000000000000000000000000000000000000000000000000000602082015250565b611ac181611647565b8114611acc57600080fd5b50565b611ad881611685565b8114611ae357600080fd5b5056fea2646970667358221220802116aa5133264580ee3b474cda566b435c2ab38f68ff74344dc094a21f7c1564736f6c63430008040033",
  "linkReferences": {},
  "deployedLinkReferences": {}
}