{
  "_format": "hh-sol-artifact-1",
  "contractName": "ComradeToken",
  "sourceName": "contracts/ComradeToken.sol",
  "abi": [
    {
      "inputs": [
        {
          "internalType": "uint16",
          "name": "_protocolPerc",
          "type": "uint16"
        },
        {
          "internalType": "address payable",
          "name": "_protocolWallet",
          "type": "address"
        },
        {
          "internalType": "string",
          "name": "_tokenName",
          "type": "string"
        },
        {
          "internalType": "string",
          "name": "_tokenSymbol",
          "type": "string"
        }
      ],
      "stateMutability": "nonpayable",
      "type": "constructor"
    },
    {
      "anonymous": false,
      "inputs": [
        {
          "indexed": true,
          "internalType": "address",
          "name": "owner",
          "type": "address"
        },
        {
          "indexed": true,
          "internalType": "address",
          "name": "spender",
          "type": "address"
        },
        {
          "indexed": false,
          "internalType": "uint256",
          "name": "value",
          "type": "uint256"
        }
      ],
      "name": "Approval",
      "type": "event"
    },
    {
      "anonymous": false,
      "inputs": [
        {
          "indexed": true,
          "internalType": "address",
          "name": "previousOwner",
          "type": "address"
        },
        {
          "indexed": true,
          "internalType": "address",
          "name": "newOwner",
          "type": "address"
        }
      ],
      "name": "OwnershipTransferred",
      "type": "event"
    },
    {
      "anonymous": false,
      "inputs": [
        {
          "indexed": true,
          "internalType": "address",
          "name": "from",
          "type": "address"
        },
        {
          "indexed": true,
          "internalType": "address",
          "name": "to",
          "type": "address"
        },
        {
          "indexed": false,
          "internalType": "uint256",
          "name": "value",
          "type": "uint256"
        }
      ],
      "name": "Transfer",
      "type": "event"
    },
    {
      "inputs": [
        {
          "internalType": "address",
          "name": "_user",
          "type": "address"
        }
      ],
      "name": "addExemptAddress",
      "outputs": [],
      "stateMutability": "nonpayable",
      "type": "function"
    },
    {
      "inputs": [
        {
          "internalType": "address",
          "name": "owner",
          "type": "address"
        },
        {
          "internalType": "address",
          "name": "spender",
          "type": "address"
        }
      ],
      "name": "allowance",
      "outputs": [
        {
          "internalType": "uint256",
          "name": "",
          "type": "uint256"
        }
      ],
      "stateMutability": "view",
      "type": "function"
    },
    {
      "inputs": [
        {
          "internalType": "address",
          "name": "_spender",
          "type": "address"
        },
        {
          "internalType": "uint256",
          "name": "_amount",
          "type": "uint256"
        }
      ],
      "name": "approve",
      "outputs": [
        {
          "internalType": "bool",
          "name": "",
          "type": "bool"
        }
      ],
      "stateMutability": "nonpayable",
      "type": "function"
    },
    {
      "inputs": [
        {
          "internalType": "address",
          "name": "account",
          "type": "address"
        }
      ],
      "name": "balanceOf",
      "outputs": [
        {
          "internalType": "uint256",
          "name": "",
          "type": "uint256"
        }
      ],
      "stateMutability": "view",
      "type": "function"
    },
    {
      "inputs": [
        {
          "internalType": "uint256",
          "name": "amount",
          "type": "uint256"
        }
      ],
      "name": "burn",
      "outputs": [],
      "stateMutability": "nonpayable",
      "type": "function"
    },
    {
      "inputs": [
        {
          "internalType": "address",
          "name": "account",
          "type": "address"
        },
        {
          "internalType": "uint256",
          "name": "amount",
          "type": "uint256"
        }
      ],
      "name": "burnFrom",
      "outputs": [],
      "stateMutability": "nonpayable",
      "type": "function"
    },
    {
      "inputs": [
        {
          "internalType": "uint256",
          "name": "_amount",
          "type": "uint256"
        }
      ],
      "name": "calculateProtocolFee",
      "outputs": [
        {
          "internalType": "uint256",
          "name": "",
          "type": "uint256"
        }
      ],
      "stateMutability": "view",
      "type": "function"
    },
    {
      "inputs": [],
      "name": "decimals",
      "outputs": [
        {
          "internalType": "uint8",
          "name": "",
          "type": "uint8"
        }
      ],
      "stateMutability": "view",
      "type": "function"
    },
    {
      "inputs": [
        {
          "internalType": "address",
          "name": "_spender",
          "type": "address"
        },
        {
          "internalType": "uint256",
          "name": "_subtractedValue",
          "type": "uint256"
        }
      ],
      "name": "decreaseAllowance",
      "outputs": [
        {
          "internalType": "bool",
          "name": "",
          "type": "bool"
        }
      ],
      "stateMutability": "nonpayable",
      "type": "function"
    },
    {
      "inputs": [
        {
          "internalType": "address",
          "name": "_user",
          "type": "address"
        }
      ],
      "name": "getAllowanceHolding",
      "outputs": [
        {
          "internalType": "uint256",
          "name": "",
          "type": "uint256"
        }
      ],
      "stateMutability": "view",
      "type": "function"
    },
    {
      "inputs": [
        {
          "internalType": "address",
          "name": "_user",
          "type": "address"
        }
      ],
      "name": "getExemptStatus",
      "outputs": [
        {
          "internalType": "bool",
          "name": "",
          "type": "bool"
        }
      ],
      "stateMutability": "view",
      "type": "function"
    },
    {
      "inputs": [],
      "name": "getProtocolPerc",
      "outputs": [
        {
          "internalType": "uint16",
          "name": "",
          "type": "uint16"
        }
      ],
      "stateMutability": "view",
      "type": "function"
    },
    {
      "inputs": [],
      "name": "getProtocolWallet",
      "outputs": [
        {
          "internalType": "address",
          "name": "",
          "type": "address"
        }
      ],
      "stateMutability": "view",
      "type": "function"
    },
    {
      "inputs": [
        {
          "internalType": "address",
          "name": "_user",
          "type": "address"
        }
      ],
      "name": "getTotalFeesPaid",
      "outputs": [
        {
          "internalType": "uint256",
          "name": "",
          "type": "uint256"
        }
      ],
      "stateMutability": "view",
      "type": "function"
    },
    {
      "inputs": [
        {
          "internalType": "address",
          "name": "_user",
          "type": "address"
        }
      ],
      "name": "getTotalTokensSent",
      "outputs": [
        {
          "internalType": "uint256",
          "name": "",
          "type": "uint256"
        }
      ],
      "stateMutability": "view",
      "type": "function"
    },
    {
      "inputs": [
        {
          "internalType": "address",
          "name": "_spender",
          "type": "address"
        },
        {
          "internalType": "uint256",
          "name": "_addedValue",
          "type": "uint256"
        }
      ],
      "name": "increaseAllowance",
      "outputs": [
        {
          "internalType": "bool",
          "name": "",
          "type": "bool"
        }
      ],
      "stateMutability": "nonpayable",
      "type": "function"
    },
    {
      "inputs": [],
      "name": "name",
      "outputs": [
        {
          "internalType": "string",
          "name": "",
          "type": "string"
        }
      ],
      "stateMutability": "view",
      "type": "function"
    },
    {
      "inputs": [],
      "name": "owner",
      "outputs": [
        {
          "internalType": "address",
          "name": "",
          "type": "address"
        }
      ],
      "stateMutability": "view",
      "type": "function"
    },
    {
      "inputs": [
        {
          "internalType": "address",
          "name": "_user",
          "type": "address"
        }
      ],
      "name": "removeExemptAddress",
      "outputs": [],
      "stateMutability": "nonpayable",
      "type": "function"
    },
    {
      "inputs": [],
      "name": "renounceOwnership",
      "outputs": [],
      "stateMutability": "nonpayable",
      "type": "function"
    },
    {
      "inputs": [
        {
          "internalType": "uint16",
          "name": "_newProtocolPerc",
          "type": "uint16"
        }
      ],
      "name": "setProtocolPerc",
      "outputs": [],
      "stateMutability": "nonpayable",
      "type": "function"
    },
    {
      "inputs": [
        {
          "internalType": "address payable",
          "name": "_newProtocolWallet",
          "type": "address"
        }
      ],
      "name": "setProtocolWallet",
      "outputs": [],
      "stateMutability": "nonpayable",
      "type": "function"
    },
    {
      "inputs": [],
      "name": "symbol",
      "outputs": [
        {
          "internalType": "string",
          "name": "",
          "type": "string"
        }
      ],
      "stateMutability": "view",
      "type": "function"
    },
    {
      "inputs": [],
      "name": "totalSupply",
      "outputs": [
        {
          "internalType": "uint256",
          "name": "",
          "type": "uint256"
        }
      ],
      "stateMutability": "view",
      "type": "function"
    },
    {
      "inputs": [
        {
          "internalType": "address",
          "name": "_to",
          "type": "address"
        },
        {
          "internalType": "uint256",
          "name": "_amount",
          "type": "uint256"
        }
      ],
      "name": "transfer",
      "outputs": [
        {
          "internalType": "bool",
          "name": "",
          "type": "bool"
        }
      ],
      "stateMutability": "nonpayable",
      "type": "function"
    },
    {
      "inputs": [
        {
          "internalType": "address",
          "name": "_from",
          "type": "address"
        },
        {
          "internalType": "address",
          "name": "_to",
          "type": "address"
        },
        {
          "internalType": "uint256",
          "name": "_amount",
          "type": "uint256"
        }
      ],
      "name": "transferFrom",
      "outputs": [
        {
          "internalType": "bool",
          "name": "",
          "type": "bool"
        }
      ],
      "stateMutability": "nonpayable",
      "type": "function"
    },
    {
      "inputs": [
        {
          "internalType": "address",
          "name": "newOwner",
          "type": "address"
        }
      ],
      "name": "transferOwnership",
      "outputs": [],
      "stateMutability": "nonpayable",
      "type": "function"
    }
  ],
  "bytecode": "0x6080604052612710600560146101000a81548161ffff021916908361ffff1602179055503480156200003057600080fd5b5060405162003a4238038062003a4283398181016040528101906200005691906200055c565b81818160039080519060200190620000709291906200040c565b508060049080519060200190620000899291906200040c565b505050620000ac620000a0620001b260201b60201c565b620001ba60201b60201c565b600560149054906101000a900461ffff1661ffff168461ffff1611156200010a576040517f08c379a0000000000000000000000000000000000000000000000000000000008152600401620001019062000659565b60405180910390fd5b6200014a336200011f6200028060201b60201c565b60126200012d9190620007e2565b633b9aca006200013e91906200091f565b6200028960201b60201c565b83600560166101000a81548161ffff021916908361ffff16021790555082600660006101000a81548173ffffffffffffffffffffffffffffffffffffffff021916908373ffffffffffffffffffffffffffffffffffffffff1602179055505050505062000bd2565b600033905090565b6000600560009054906101000a900473ffffffffffffffffffffffffffffffffffffffff16905081600560006101000a81548173ffffffffffffffffffffffffffffffffffffffff021916908373ffffffffffffffffffffffffffffffffffffffff1602179055508173ffffffffffffffffffffffffffffffffffffffff168173ffffffffffffffffffffffffffffffffffffffff167f8be0079c531659141344cd1fd0a4f28419497f9722a3daafe3b4186f6b6457e060405160405180910390a35050565b60006012905090565b600073ffffffffffffffffffffffffffffffffffffffff168273ffffffffffffffffffffffffffffffffffffffff161415620002fc576040517f08c379a0000000000000000000000000000000000000000000000000000000008152600401620002f3906200067b565b60405180910390fd5b62000310600083836200040260201b60201c565b80600260008282546200032491906200072a565b92505081905550806000808473ffffffffffffffffffffffffffffffffffffffff1673ffffffffffffffffffffffffffffffffffffffff16815260200190815260200160002060008282546200037b91906200072a565b925050819055508173ffffffffffffffffffffffffffffffffffffffff16600073ffffffffffffffffffffffffffffffffffffffff167fddf252ad1be2c89b69c2b068fc378daa952ba7f163c4a11628f55a4df523b3ef83604051620003e291906200069d565b60405180910390a3620003fe600083836200040760201b60201c565b5050565b505050565b505050565b8280546200041a9062000a0f565b90600052602060002090601f0160209004810192826200043e57600085556200048a565b82601f106200045957805160ff19168380011785556200048a565b828001600101855582156200048a579182015b82811115620004895782518255916020019190600101906200046c565b5b5090506200049991906200049d565b5090565b5b80821115620004b85760008160009055506001016200049e565b5090565b6000620004d3620004cd84620006e3565b620006ba565b905082815260208101848484011115620004ec57600080fd5b620004f9848285620009d9565b509392505050565b600081519050620005128162000b9e565b92915050565b600082601f8301126200052a57600080fd5b81516200053c848260208601620004bc565b91505092915050565b600081519050620005568162000bb8565b92915050565b600080600080608085870312156200057357600080fd5b6000620005838782880162000545565b9450506020620005968782880162000501565b935050604085015167ffffffffffffffff811115620005b457600080fd5b620005c28782880162000518565b925050606085015167ffffffffffffffff811115620005e057600080fd5b620005ee8782880162000518565b91505092959194509250565b60006200060960258362000719565b9150620006168262000b26565b604082019050919050565b600062000630601f8362000719565b91506200063d8262000b75565b602082019050919050565b6200065381620009c2565b82525050565b600060208201905081810360008301526200067481620005fa565b9050919050565b60006020820190508181036000830152620006968162000621565b9050919050565b6000602082019050620006b4600083018462000648565b92915050565b6000620006c6620006d9565b9050620006d4828262000a45565b919050565b6000604051905090565b600067ffffffffffffffff82111562000701576200070062000ad9565b5b6200070c8262000b08565b9050602081019050919050565b600082825260208201905092915050565b60006200073782620009c2565b91506200074483620009c2565b9250827fffffffffffffffffffffffffffffffffffffffffffffffffffffffffffffffff038211156200077c576200077b62000a7b565b5b828201905092915050565b6000808291508390505b6001851115620007d957808604811115620007b157620007b062000a7b565b5b6001851615620007c15780820291505b8081029050620007d18562000b19565b945062000791565b94509492505050565b6000620007ef82620009c2565b9150620007fc83620009cc565b92506200082b7fffffffffffffffffffffffffffffffffffffffffffffffffffffffffffffffff848462000833565b905092915050565b60008262000845576001905062000918565b8162000855576000905062000918565b81600181146200086e57600281146200087957620008af565b600191505062000918565b60ff8411156200088e576200088d62000a7b565b5b8360020a915084821115620008a857620008a762000a7b565b5b5062000918565b5060208310610133831016604e8410600b8410161715620008e95782820a905083811115620008e357620008e262000a7b565b5b62000918565b620008f8848484600162000787565b9250905081840481111562000912576200091162000a7b565b5b81810290505b9392505050565b60006200092c82620009c2565b91506200093983620009c2565b9250817fffffffffffffffffffffffffffffffffffffffffffffffffffffffffffffffff048311821515161562000975576200097462000a7b565b5b828202905092915050565b60006200098d82620009a2565b9050919050565b600061ffff82169050919050565b600073ffffffffffffffffffffffffffffffffffffffff82169050919050565b6000819050919050565b600060ff82169050919050565b60005b83811015620009f9578082015181840152602081019050620009dc565b8381111562000a09576000848401525b50505050565b6000600282049050600182168062000a2857607f821691505b6020821081141562000a3f5762000a3e62000aaa565b5b50919050565b62000a508262000b08565b810181811067ffffffffffffffff8211171562000a725762000a7162000ad9565b5b80604052505050565b7f4e487b7100000000000000000000000000000000000000000000000000000000600052601160045260246000fd5b7f4e487b7100000000000000000000000000000000000000000000000000000000600052602260045260246000fd5b7f4e487b7100000000000000000000000000000000000000000000000000000000600052604160045260246000fd5b6000601f19601f8301169050919050565b60008160011c9050919050565b7f43616e6e6f74207365742070726f746f636f6c2067726561746572207468616e60008201527f2031303025000000000000000000000000000000000000000000000000000000602082015250565b7f45524332303a206d696e7420746f20746865207a65726f206164647265737300600082015250565b62000ba98162000980565b811462000bb557600080fd5b50565b62000bc38162000994565b811462000bcf57600080fd5b50565b612e608062000be26000396000f3fe608060405234801561001057600080fd5b50600436106101a95760003560e01c806370a08231116100f95780639c7c270c11610097578063dd62ed3e11610071578063dd62ed3e146104f6578063ed84566614610526578063f01e9a8b14610556578063f2fde38b14610572576101a9565b80639c7c270c14610466578063a457c2d714610496578063a9059cbb146104c6576101a9565b80637b1c359c116100d35780637b1c359c146103de5780638da5cb5b146103fa57806395d89b4114610418578063961b621914610436576101a9565b806370a0823114610388578063715018a6146103b857806379cc6790146103c2576101a9565b8063195c07c711610166578063395093511161014057806339509351146102f057806342966c68146103205780635e8c4d761461033c5780636078c0f91461036c576101a9565b8063195c07c71461028457806323b872dd146102a2578063313ce567146102d2576101a9565b806306fdde03146101ae578063095ea7b3146101cc5780630e70e64e146101fc5780630f554be614610218578063117964341461024857806318160ddd14610266575b600080fd5b6101b661058e565b6040516101c391906124ef565b60405180910390f35b6101e660048036038101906101e1919061219a565b610620565b6040516101f391906124d4565b60405180910390f35b610216600480360381019061021191906121d6565b6107eb565b005b610232600480360381019061022d91906120bd565b6108e2565b60405161023f919061270c565b60405180910390f35b61025061092e565b60405161025d91906124b9565b60405180910390f35b61026e610958565b60405161027b919061270c565b60405180910390f35b61028c610962565b60405161029991906126f1565b60405180910390f35b6102bc60048036038101906102b7919061214b565b61097a565b6040516102c991906124d4565b60405180910390f35b6102da610b41565b6040516102e79190612727565b60405180910390f35b61030a6004803603810190610305919061219a565b610b4a565b60405161031791906124d4565b60405180910390f35b61033a600480360381019061033591906121ff565b610d29565b005b610356600480360381019061035191906120bd565b610d3d565b60405161036391906124d4565b60405180910390f35b610386600480360381019061038191906120bd565b610d96565b005b6103a2600480360381019061039d91906120bd565b610f00565b6040516103af919061270c565b60405180910390f35b6103c0610f48565b005b6103dc60048036038101906103d7919061219a565b610fd0565b005b6103f860048036038101906103f391906120bd565b610ff0565b005b610402611159565b60405161040f91906124b9565b60405180910390f35b610420611183565b60405161042d91906124ef565b60405180910390f35b610450600480360381019061044b91906120bd565b611215565b60405161045d919061270c565b60405180910390f35b610480600480360381019061047b91906121ff565b611261565b60405161048d919061270c565b60405180910390f35b6104b060048036038101906104ab919061219a565b6112a9565b6040516104bd91906124d4565b60405180910390f35b6104e060048036038101906104db919061219a565b6113ca565b6040516104ed91906124d4565b60405180910390f35b610510600480360381019061050b919061210f565b61162c565b60405161051d919061270c565b60405180910390f35b610540600480360381019061053b91906120bd565b6116b3565b60405161054d919061270c565b60405180910390f35b610570600480360381019061056b91906120e6565b6116fc565b005b61058c600480360381019061058791906120bd565b6117bc565b005b60606003805461059d9061291b565b80601f01602080910402602001604051908101604052809291908181526020018280546105c99061291b565b80156106165780601f106105eb57610100808354040283529160200191610616565b820191906000526020600020905b8154815290600101906020018083116105f957829003601f168201915b5050505050905090565b600061062a6118b4565b828061063583610f00565b1015610676576040517f08c379a000000000000000000000000000000000000000000000000000000000815260040161066d906125b1565b60405180910390fd5b600860008373ffffffffffffffffffffffffffffffffffffffff1673ffffffffffffffffffffffffffffffffffffffff16815260200190815260200160002060020160009054906101000a900460ff16610714576106d482826118bc565b610713576040517f08c379a000000000000000000000000000000000000000000000000000000000815260040161070a90612671565b60405180910390fd5b5b600061071e6118b4565b9050600860008273ffffffffffffffffffffffffffffffffffffffff1673ffffffffffffffffffffffffffffffffffffffff16815260200190815260200160002060020160009054906101000a900460ff166107d35761077d85611261565b600760008373ffffffffffffffffffffffffffffffffffffffff1673ffffffffffffffffffffffffffffffffffffffff16815260200190815260200160002060008282546107cb919061275e565b925050819055505b6107de8187876118ea565b6001935050505092915050565b6107f36118b4565b73ffffffffffffffffffffffffffffffffffffffff16610811611159565b73ffffffffffffffffffffffffffffffffffffffff1614610867576040517f08c379a000000000000000000000000000000000000000000000000000000000815260040161085e90612611565b60405180910390fd5b600560149054906101000a900461ffff1661ffff168161ffff1611156108c2576040517f08c379a00000000000000000000000000000000000000000000000000000000081526004016108b9906125d1565b60405180910390fd5b80600560166101000a81548161ffff021916908361ffff16021790555050565b6000600860008373ffffffffffffffffffffffffffffffffffffffff1673ffffffffffffffffffffffffffffffffffffffff168152602001908152602001600020600001549050919050565b6000600660009054906101000a900473ffffffffffffffffffffffffffffffffffffffff16905090565b6000600254905090565b6000600560169054906101000a900461ffff16905090565b6000806109856118b4565b9050600061099284611261565b9050600860008773ffffffffffffffffffffffffffffffffffffffff1673ffffffffffffffffffffffffffffffffffffffff16815260200190815260200160002060020160009054906101000a900460ff16610ac55780600860008873ffffffffffffffffffffffffffffffffffffffff1673ffffffffffffffffffffffffffffffffffffffff1681526020019081526020016000206000016000828254610a3a919061275e565b9250508190555080600760008873ffffffffffffffffffffffffffffffffffffffff1673ffffffffffffffffffffffffffffffffffffffff1681526020019081526020016000206000828254610a90919061283f565b92505081905550610ac486600660009054906101000a900473ffffffffffffffffffffffffffffffffffffffff1683611ab5565b5b83600860008873ffffffffffffffffffffffffffffffffffffffff1673ffffffffffffffffffffffffffffffffffffffff1681526020019081526020016000206001016000828254610b17919061275e565b92505081905550610b29868386611d36565b610b34868686611ab5565b6001925050509392505050565b60006012905090565b6000610b546118b4565b8280610b5f83610f00565b1015610ba0576040517f08c379a0000000000000000000000000000000000000000000000000000000008152600401610b97906125b1565b60405180910390fd5b600860008373ffffffffffffffffffffffffffffffffffffffff1673ffffffffffffffffffffffffffffffffffffffff16815260200190815260200160002060020160009054906101000a900460ff16610c3e57610bfe82826118bc565b610c3d576040517f08c379a0000000000000000000000000000000000000000000000000000000008152600401610c3490612671565b60405180910390fd5b5b6000610c486118b4565b9050600860008273ffffffffffffffffffffffffffffffffffffffff1673ffffffffffffffffffffffffffffffffffffffff16815260200190815260200160002060020160009054906101000a900460ff16610cfd57610ca785611261565b600760008373ffffffffffffffffffffffffffffffffffffffff1673ffffffffffffffffffffffffffffffffffffffff1681526020019081526020016000206000828254610cf5919061275e565b925050819055505b610d1c818787610d0d858b61162c565b610d17919061275e565b6118ea565b6001935050505092915050565b610d3a610d346118b4565b82611dc2565b50565b6000600860008373ffffffffffffffffffffffffffffffffffffffff1673ffffffffffffffffffffffffffffffffffffffff16815260200190815260200160002060020160009054906101000a900460ff169050919050565b610d9e6118b4565b73ffffffffffffffffffffffffffffffffffffffff16610dbc611159565b73ffffffffffffffffffffffffffffffffffffffff1614610e12576040517f08c379a0000000000000000000000000000000000000000000000000000000008152600401610e0990612611565b60405180910390fd5b600860008273ffffffffffffffffffffffffffffffffffffffff1673ffffffffffffffffffffffffffffffffffffffff16815260200190815260200160002060020160009054906101000a900460ff1615610ea2576040517f08c379a0000000000000000000000000000000000000000000000000000000008152600401610e99906125f1565b60405180910390fd5b6001600860008373ffffffffffffffffffffffffffffffffffffffff1673ffffffffffffffffffffffffffffffffffffffff16815260200190815260200160002060020160006101000a81548160ff02191690831515021790555050565b60008060008373ffffffffffffffffffffffffffffffffffffffff1673ffffffffffffffffffffffffffffffffffffffff168152602001908152602001600020549050919050565b610f506118b4565b73ffffffffffffffffffffffffffffffffffffffff16610f6e611159565b73ffffffffffffffffffffffffffffffffffffffff1614610fc4576040517f08c379a0000000000000000000000000000000000000000000000000000000008152600401610fbb90612611565b60405180910390fd5b610fce6000611f99565b565b610fe282610fdc6118b4565b83611d36565b610fec8282611dc2565b5050565b610ff86118b4565b73ffffffffffffffffffffffffffffffffffffffff16611016611159565b73ffffffffffffffffffffffffffffffffffffffff161461106c576040517f08c379a000000000000000000000000000000000000000000000000000000000815260040161106390612611565b60405180910390fd5b600860008273ffffffffffffffffffffffffffffffffffffffff1673ffffffffffffffffffffffffffffffffffffffff16815260200190815260200160002060020160009054906101000a900460ff166110fb576040517f08c379a00000000000000000000000000000000000000000000000000000000081526004016110f290612691565b60405180910390fd5b6000600860008373ffffffffffffffffffffffffffffffffffffffff1673ffffffffffffffffffffffffffffffffffffffff16815260200190815260200160002060020160006101000a81548160ff02191690831515021790555050565b6000600560009054906101000a900473ffffffffffffffffffffffffffffffffffffffff16905090565b6060600480546111929061291b565b80601f01602080910402602001604051908101604052809291908181526020018280546111be9061291b565b801561120b5780601f106111e05761010080835404028352916020019161120b565b820191906000526020600020905b8154815290600101906020018083116111ee57829003601f168201915b5050505050905090565b6000600860008373ffffffffffffffffffffffffffffffffffffffff1673ffffffffffffffffffffffffffffffffffffffff168152602001908152602001600020600101549050919050565b6000600560149054906101000a900461ffff1661ffff16600560169054906101000a900461ffff1661ffff168361129891906127e5565b6112a291906127b4565b9050919050565b6000806112b46118b4565b905060006112c2828661162c565b905083811015611307576040517f08c379a00000000000000000000000000000000000000000000000000000000081526004016112fe906126d1565b60405180910390fd5b600860008373ffffffffffffffffffffffffffffffffffffffff1673ffffffffffffffffffffffffffffffffffffffff16815260200190815260200160002060020160009054906101000a900460ff166113b15761136484611261565b600760008473ffffffffffffffffffffffffffffffffffffffff1673ffffffffffffffffffffffffffffffffffffffff168152602001908152602001600020600082825403925050819055505b6113be82868684036118ea565b60019250505092915050565b60006113d46118b4565b82806113df83610f00565b1015611420576040517f08c379a0000000000000000000000000000000000000000000000000000000008152600401611417906125b1565b60405180910390fd5b600860008373ffffffffffffffffffffffffffffffffffffffff1673ffffffffffffffffffffffffffffffffffffffff16815260200190815260200160002060020160009054906101000a900460ff166114be5761147e82826118bc565b6114bd576040517f08c379a00000000000000000000000000000000000000000000000000000000081526004016114b490612671565b60405180910390fd5b5b60006114c86118b4565b9050600860008273ffffffffffffffffffffffffffffffffffffffff1673ffffffffffffffffffffffffffffffffffffffff16815260200190815260200160002060020160009054906101000a900460ff166115bb57600061152986611261565b905080600860008473ffffffffffffffffffffffffffffffffffffffff1673ffffffffffffffffffffffffffffffffffffffff168152602001908152602001600020600001600082825461157d919061275e565b925050819055506115b982600660009054906101000a900473ffffffffffffffffffffffffffffffffffffffff166115b489611261565b611ab5565b505b84600860008373ffffffffffffffffffffffffffffffffffffffff1673ffffffffffffffffffffffffffffffffffffffff168152602001908152602001600020600101600082825461160d919061275e565b9250508190555061161f818787611ab5565b6001935050505092915050565b6000600160008473ffffffffffffffffffffffffffffffffffffffff1673ffffffffffffffffffffffffffffffffffffffff16815260200190815260200160002060008373ffffffffffffffffffffffffffffffffffffffff1673ffffffffffffffffffffffffffffffffffffffff16815260200190815260200160002054905092915050565b6000600760008373ffffffffffffffffffffffffffffffffffffffff1673ffffffffffffffffffffffffffffffffffffffff168152602001908152602001600020549050919050565b6117046118b4565b73ffffffffffffffffffffffffffffffffffffffff16611722611159565b73ffffffffffffffffffffffffffffffffffffffff1614611778576040517f08c379a000000000000000000000000000000000000000000000000000000000815260040161176f90612611565b60405180910390fd5b80600660006101000a81548173ffffffffffffffffffffffffffffffffffffffff021916908373ffffffffffffffffffffffffffffffffffffffff16021790555050565b6117c46118b4565b73ffffffffffffffffffffffffffffffffffffffff166117e2611159565b73ffffffffffffffffffffffffffffffffffffffff1614611838576040517f08c379a000000000000000000000000000000000000000000000000000000000815260040161182f90612611565b60405180910390fd5b600073ffffffffffffffffffffffffffffffffffffffff168173ffffffffffffffffffffffffffffffffffffffff1614156118a8576040517f08c379a000000000000000000000000000000000000000000000000000000000815260040161189f90612551565b60405180910390fd5b6118b181611f99565b50565b600033905090565b6000806118c883611261565b836118d3919061275e565b9050806118df85610f00565b101591505092915050565b600073ffffffffffffffffffffffffffffffffffffffff168373ffffffffffffffffffffffffffffffffffffffff16141561195a576040517f08c379a0000000000000000000000000000000000000000000000000000000008152600401611951906126b1565b60405180910390fd5b600073ffffffffffffffffffffffffffffffffffffffff168273ffffffffffffffffffffffffffffffffffffffff1614156119ca576040517f08c379a00000000000000000000000000000000000000000000000000000000081526004016119c190612571565b60405180910390fd5b80600160008573ffffffffffffffffffffffffffffffffffffffff1673ffffffffffffffffffffffffffffffffffffffff16815260200190815260200160002060008473ffffffffffffffffffffffffffffffffffffffff1673ffffffffffffffffffffffffffffffffffffffff168152602001908152602001600020819055508173ffffffffffffffffffffffffffffffffffffffff168373ffffffffffffffffffffffffffffffffffffffff167f8c5be1e5ebec7d5bd14f71427d1e84f3dd0314c0f7b2291e5b200ac8c7c3b92583604051611aa8919061270c565b60405180910390a3505050565b600073ffffffffffffffffffffffffffffffffffffffff168373ffffffffffffffffffffffffffffffffffffffff161415611b25576040517f08c379a0000000000000000000000000000000000000000000000000000000008152600401611b1c90612651565b60405180910390fd5b600073ffffffffffffffffffffffffffffffffffffffff168273ffffffffffffffffffffffffffffffffffffffff161415611b95576040517f08c379a0000000000000000000000000000000000000000000000000000000008152600401611b8c90612511565b60405180910390fd5b611ba083838361205f565b60008060008573ffffffffffffffffffffffffffffffffffffffff1673ffffffffffffffffffffffffffffffffffffffff16815260200190815260200160002054905081811015611c26576040517f08c379a0000000000000000000000000000000000000000000000000000000008152600401611c1d906125b1565b60405180910390fd5b8181036000808673ffffffffffffffffffffffffffffffffffffffff1673ffffffffffffffffffffffffffffffffffffffff16815260200190815260200160002081905550816000808573ffffffffffffffffffffffffffffffffffffffff1673ffffffffffffffffffffffffffffffffffffffff1681526020019081526020016000206000828254611cb9919061275e565b925050819055508273ffffffffffffffffffffffffffffffffffffffff168473ffffffffffffffffffffffffffffffffffffffff167fddf252ad1be2c89b69c2b068fc378daa952ba7f163c4a11628f55a4df523b3ef84604051611d1d919061270c565b60405180910390a3611d30848484612064565b50505050565b6000611d42848461162c565b90507fffffffffffffffffffffffffffffffffffffffffffffffffffffffffffffffff8114611dbc5781811015611dae576040517f08c379a0000000000000000000000000000000000000000000000000000000008152600401611da590612591565b60405180910390fd5b611dbb84848484036118ea565b5b50505050565b600073ffffffffffffffffffffffffffffffffffffffff168273ffffffffffffffffffffffffffffffffffffffff161415611e32576040517f08c379a0000000000000000000000000000000000000000000000000000000008152600401611e2990612631565b60405180910390fd5b611e3e8260008361205f565b60008060008473ffffffffffffffffffffffffffffffffffffffff1673ffffffffffffffffffffffffffffffffffffffff16815260200190815260200160002054905081811015611ec4576040517f08c379a0000000000000000000000000000000000000000000000000000000008152600401611ebb90612531565b60405180910390fd5b8181036000808573ffffffffffffffffffffffffffffffffffffffff1673ffffffffffffffffffffffffffffffffffffffff168152602001908152602001600020819055508160026000828254611f1b919061283f565b92505081905550600073ffffffffffffffffffffffffffffffffffffffff168373ffffffffffffffffffffffffffffffffffffffff167fddf252ad1be2c89b69c2b068fc378daa952ba7f163c4a11628f55a4df523b3ef84604051611f80919061270c565b60405180910390a3611f9483600084612064565b505050565b6000600560009054906101000a900473ffffffffffffffffffffffffffffffffffffffff16905081600560006101000a81548173ffffffffffffffffffffffffffffffffffffffff021916908373ffffffffffffffffffffffffffffffffffffffff1602179055508173ffffffffffffffffffffffffffffffffffffffff168173ffffffffffffffffffffffffffffffffffffffff167f8be0079c531659141344cd1fd0a4f28419497f9722a3daafe3b4186f6b6457e060405160405180910390a35050565b505050565b505050565b60008135905061207881612dce565b92915050565b60008135905061208d81612de5565b92915050565b6000813590506120a281612dfc565b92915050565b6000813590506120b781612e13565b92915050565b6000602082840312156120cf57600080fd5b60006120dd84828501612069565b91505092915050565b6000602082840312156120f857600080fd5b60006121068482850161207e565b91505092915050565b6000806040838503121561212257600080fd5b600061213085828601612069565b925050602061214185828601612069565b9150509250929050565b60008060006060848603121561216057600080fd5b600061216e86828701612069565b935050602061217f86828701612069565b9250506040612190868287016120a8565b9150509250925092565b600080604083850312156121ad57600080fd5b60006121bb85828601612069565b92505060206121cc858286016120a8565b9150509250929050565b6000602082840312156121e857600080fd5b60006121f684828501612093565b91505092915050565b60006020828403121561221157600080fd5b600061221f848285016120a8565b91505092915050565b61223181612873565b82525050565b61224081612897565b82525050565b600061225182612742565b61225b818561274d565b935061226b8185602086016128e8565b612274816129da565b840191505092915050565b600061228c60238361274d565b9150612297826129eb565b604082019050919050565b60006122af60228361274d565b91506122ba82612a3a565b604082019050919050565b60006122d260268361274d565b91506122dd82612a89565b604082019050919050565b60006122f560228361274d565b915061230082612ad8565b604082019050919050565b6000612318601d8361274d565b915061232382612b27565b602082019050919050565b600061233b60268361274d565b915061234682612b50565b604082019050919050565b600061235e60258361274d565b915061236982612b9f565b604082019050919050565b600061238160198361274d565b915061238c82612bee565b602082019050919050565b60006123a460208361274d565b91506123af82612c17565b602082019050919050565b60006123c760218361274d565b91506123d282612c40565b604082019050919050565b60006123ea60258361274d565b91506123f582612c8f565b604082019050919050565b600061240d60208361274d565b915061241882612cde565b602082019050919050565b600061243060158361274d565b915061243b82612d07565b602082019050919050565b600061245360248361274d565b915061245e82612d30565b604082019050919050565b600061247660258361274d565b915061248182612d7f565b604082019050919050565b612495816128a3565b82525050565b6124a4816128d1565b82525050565b6124b3816128db565b82525050565b60006020820190506124ce6000830184612228565b92915050565b60006020820190506124e96000830184612237565b92915050565b600060208201905081810360008301526125098184612246565b905092915050565b6000602082019050818103600083015261252a8161227f565b9050919050565b6000602082019050818103600083015261254a816122a2565b9050919050565b6000602082019050818103600083015261256a816122c5565b9050919050565b6000602082019050818103600083015261258a816122e8565b9050919050565b600060208201905081810360008301526125aa8161230b565b9050919050565b600060208201905081810360008301526125ca8161232e565b9050919050565b600060208201905081810360008301526125ea81612351565b9050919050565b6000602082019050818103600083015261260a81612374565b9050919050565b6000602082019050818103600083015261262a81612397565b9050919050565b6000602082019050818103600083015261264a816123ba565b9050919050565b6000602082019050818103600083015261266a816123dd565b9050919050565b6000602082019050818103600083015261268a81612400565b9050919050565b600060208201905081810360008301526126aa81612423565b9050919050565b600060208201905081810360008301526126ca81612446565b9050919050565b600060208201905081810360008301526126ea81612469565b9050919050565b6000602082019050612706600083018461248c565b92915050565b6000602082019050612721600083018461249b565b92915050565b600060208201905061273c60008301846124aa565b92915050565b600081519050919050565b600082825260208201905092915050565b6000612769826128d1565b9150612774836128d1565b9250827fffffffffffffffffffffffffffffffffffffffffffffffffffffffffffffffff038211156127a9576127a861294d565b5b828201905092915050565b60006127bf826128d1565b91506127ca836128d1565b9250826127da576127d961297c565b5b828204905092915050565b60006127f0826128d1565b91506127fb836128d1565b9250817fffffffffffffffffffffffffffffffffffffffffffffffffffffffffffffffff04831182151516156128345761283361294d565b5b828202905092915050565b600061284a826128d1565b9150612855836128d1565b9250828210156128685761286761294d565b5b828203905092915050565b600061287e826128b1565b9050919050565b6000612890826128b1565b9050919050565b60008115159050919050565b600061ffff82169050919050565b600073ffffffffffffffffffffffffffffffffffffffff82169050919050565b6000819050919050565b600060ff82169050919050565b60005b838110156129065780820151818401526020810190506128eb565b83811115612915576000848401525b50505050565b6000600282049050600182168061293357607f821691505b60208210811415612947576129466129ab565b5b50919050565b7f4e487b7100000000000000000000000000000000000000000000000000000000600052601160045260246000fd5b7f4e487b7100000000000000000000000000000000000000000000000000000000600052601260045260246000fd5b7f4e487b7100000000000000000000000000000000000000000000000000000000600052602260045260246000fd5b6000601f19601f8301169050919050565b7f45524332303a207472616e7366657220746f20746865207a65726f206164647260008201527f6573730000000000000000000000000000000000000000000000000000000000602082015250565b7f45524332303a206275726e20616d6f756e7420657863656564732062616c616e60008201527f6365000000000000000000000000000000000000000000000000000000000000602082015250565b7f4f776e61626c653a206e6577206f776e657220697320746865207a65726f206160008201527f6464726573730000000000000000000000000000000000000000000000000000602082015250565b7f45524332303a20617070726f766520746f20746865207a65726f20616464726560008201527f7373000000000000000000000000000000000000000000000000000000000000602082015250565b7f45524332303a20696e73756666696369656e7420616c6c6f77616e6365000000600082015250565b7f45524332303a207472616e7366657220616d6f756e742065786365656473206260008201527f616c616e63650000000000000000000000000000000000000000000000000000602082015250565b7f43616e6e6f74207365742070726f746f636f6c2067726561746572207468616e60008201527f2031303025000000000000000000000000000000000000000000000000000000602082015250565b7f4163636f756e7420697320616c7265616479206578656d707400000000000000600082015250565b7f4f776e61626c653a2063616c6c6572206973206e6f7420746865206f776e6572600082015250565b7f45524332303a206275726e2066726f6d20746865207a65726f2061646472657360008201527f7300000000000000000000000000000000000000000000000000000000000000602082015250565b7f45524332303a207472616e736665722066726f6d20746865207a65726f20616460008201527f6472657373000000000000000000000000000000000000000000000000000000602082015250565b7f434f4d524144453a2043616e6e6f74207061792070726f746f636f6c20666565600082015250565b7f4163636f756e74206973206e6f74206578656d70740000000000000000000000600082015250565b7f45524332303a20617070726f76652066726f6d20746865207a65726f2061646460008201527f7265737300000000000000000000000000000000000000000000000000000000602082015250565b7f45524332303a2064656372656173656420616c6c6f77616e63652062656c6f7760008201527f207a65726f000000000000000000000000000000000000000000000000000000602082015250565b612dd781612873565b8114612de257600080fd5b50565b612dee81612885565b8114612df957600080fd5b50565b612e05816128a3565b8114612e1057600080fd5b50565b612e1c816128d1565b8114612e2757600080fd5b5056fea2646970667358221220760f758e7cc0b4882611c912ce518da36542e8b5c4b8b2ed66cc5a52692d2a7c64736f6c63430008040033",
  "linkReferences": {},
  "deployedLinkReferences": {}
}