{
  "_format": "hh-sol-artifact-1",
  "contractName": "ComradeToken",
  "sourceName": "contracts/ComradeToken.sol",
  "abi": [
    {
      "inputs": [
        {
          "internalType": "uint16",
          "name": "_protocolPerc",
          "type": "uint16"
        },
        {
          "internalType": "address payable",
          "name": "_protocolWallet",
          "type": "address"
        },
        {
          "internalType": "string",
          "name": "_tokenName",
          "type": "string"
        },
        {
          "internalType": "string",
          "name": "_tokenSymbol",
          "type": "string"
        }
      ],
      "stateMutability": "nonpayable",
      "type": "constructor"
    },
    {
      "anonymous": false,
      "inputs": [
        {
          "indexed": true,
          "internalType": "address",
          "name": "owner",
          "type": "address"
        },
        {
          "indexed": true,
          "internalType": "address",
          "name": "spender",
          "type": "address"
        },
        {
          "indexed": false,
          "internalType": "uint256",
          "name": "value",
          "type": "uint256"
        }
      ],
      "name": "Approval",
      "type": "event"
    },
    {
      "anonymous": false,
      "inputs": [
        {
          "indexed": true,
          "internalType": "address",
          "name": "previousOwner",
          "type": "address"
        },
        {
          "indexed": true,
          "internalType": "address",
          "name": "newOwner",
          "type": "address"
        }
      ],
      "name": "OwnershipTransferred",
      "type": "event"
    },
    {
      "anonymous": false,
      "inputs": [
        {
          "indexed": true,
          "internalType": "address",
          "name": "from",
          "type": "address"
        },
        {
          "indexed": true,
          "internalType": "address",
          "name": "to",
          "type": "address"
        },
        {
          "indexed": false,
          "internalType": "uint256",
          "name": "value",
          "type": "uint256"
        }
      ],
      "name": "Transfer",
      "type": "event"
    },
    {
      "inputs": [
        {
          "internalType": "address",
          "name": "_user",
          "type": "address"
        }
      ],
      "name": "addExemptAddress",
      "outputs": [],
      "stateMutability": "nonpayable",
      "type": "function"
    },
    {
      "inputs": [
        {
          "internalType": "address",
          "name": "owner",
          "type": "address"
        },
        {
          "internalType": "address",
          "name": "spender",
          "type": "address"
        }
      ],
      "name": "allowance",
      "outputs": [
        {
          "internalType": "uint256",
          "name": "",
          "type": "uint256"
        }
      ],
      "stateMutability": "view",
      "type": "function"
    },
    {
      "inputs": [
        {
          "internalType": "address",
          "name": "_spender",
          "type": "address"
        },
        {
          "internalType": "uint256",
          "name": "_amount",
          "type": "uint256"
        }
      ],
      "name": "approve",
      "outputs": [
        {
          "internalType": "bool",
          "name": "",
          "type": "bool"
        }
      ],
      "stateMutability": "nonpayable",
      "type": "function"
    },
    {
      "inputs": [
        {
          "internalType": "address",
          "name": "account",
          "type": "address"
        }
      ],
      "name": "balanceOf",
      "outputs": [
        {
          "internalType": "uint256",
          "name": "",
          "type": "uint256"
        }
      ],
      "stateMutability": "view",
      "type": "function"
    },
    {
      "inputs": [
        {
          "internalType": "uint256",
          "name": "amount",
          "type": "uint256"
        }
      ],
      "name": "burn",
      "outputs": [],
      "stateMutability": "nonpayable",
      "type": "function"
    },
    {
      "inputs": [
        {
          "internalType": "address",
          "name": "account",
          "type": "address"
        },
        {
          "internalType": "uint256",
          "name": "amount",
          "type": "uint256"
        }
      ],
      "name": "burnFrom",
      "outputs": [],
      "stateMutability": "nonpayable",
      "type": "function"
    },
    {
      "inputs": [
        {
          "internalType": "uint256",
          "name": "_amount",
          "type": "uint256"
        },
        {
          "internalType": "bool",
          "name": "payTaxBeforeSend",
          "type": "bool"
        }
      ],
      "name": "calculateProtocolFeeAndAmount",
      "outputs": [
        {
          "internalType": "uint256",
          "name": "",
          "type": "uint256"
        },
        {
          "internalType": "uint256",
          "name": "",
          "type": "uint256"
        }
      ],
      "stateMutability": "view",
      "type": "function"
    },
    {
      "inputs": [],
      "name": "decimals",
      "outputs": [
        {
          "internalType": "uint8",
          "name": "",
          "type": "uint8"
        }
      ],
      "stateMutability": "view",
      "type": "function"
    },
    {
      "inputs": [
        {
          "internalType": "address",
          "name": "_spender",
          "type": "address"
        },
        {
          "internalType": "uint256",
          "name": "_subtractedValue",
          "type": "uint256"
        }
      ],
      "name": "decreaseAllowance",
      "outputs": [
        {
          "internalType": "bool",
          "name": "",
          "type": "bool"
        }
      ],
      "stateMutability": "nonpayable",
      "type": "function"
    },
    {
      "inputs": [
        {
          "internalType": "address",
          "name": "_user",
          "type": "address"
        }
      ],
      "name": "getAllowanceHolding",
      "outputs": [
        {
          "internalType": "uint256",
          "name": "",
          "type": "uint256"
        }
      ],
      "stateMutability": "view",
      "type": "function"
    },
    {
      "inputs": [
        {
          "internalType": "address",
          "name": "_user",
          "type": "address"
        }
      ],
      "name": "getExemptStatus",
      "outputs": [
        {
          "internalType": "bool",
          "name": "",
          "type": "bool"
        }
      ],
      "stateMutability": "view",
      "type": "function"
    },
    {
      "inputs": [],
      "name": "getProtocolPerc",
      "outputs": [
        {
          "internalType": "uint16",
          "name": "",
          "type": "uint16"
        }
      ],
      "stateMutability": "view",
      "type": "function"
    },
    {
      "inputs": [],
      "name": "getProtocolWallet",
      "outputs": [
        {
          "internalType": "address",
          "name": "",
          "type": "address"
        }
      ],
      "stateMutability": "view",
      "type": "function"
    },
    {
      "inputs": [
        {
          "internalType": "address",
          "name": "_user",
          "type": "address"
        }
      ],
      "name": "getTotalFeesPaid",
      "outputs": [
        {
          "internalType": "uint256",
          "name": "",
          "type": "uint256"
        }
      ],
      "stateMutability": "view",
      "type": "function"
    },
    {
      "inputs": [
        {
          "internalType": "address",
          "name": "_user",
          "type": "address"
        }
      ],
      "name": "getTotalTokensSent",
      "outputs": [
        {
          "internalType": "uint256",
          "name": "",
          "type": "uint256"
        }
      ],
      "stateMutability": "view",
      "type": "function"
    },
    {
      "inputs": [
        {
          "internalType": "address",
          "name": "_spender",
          "type": "address"
        },
        {
          "internalType": "uint256",
          "name": "_addedValue",
          "type": "uint256"
        }
      ],
      "name": "increaseAllowance",
      "outputs": [
        {
          "internalType": "bool",
          "name": "",
          "type": "bool"
        }
      ],
      "stateMutability": "nonpayable",
      "type": "function"
    },
    {
      "inputs": [],
      "name": "name",
      "outputs": [
        {
          "internalType": "string",
          "name": "",
          "type": "string"
        }
      ],
      "stateMutability": "view",
      "type": "function"
    },
    {
      "inputs": [],
      "name": "owner",
      "outputs": [
        {
          "internalType": "address",
          "name": "",
          "type": "address"
        }
      ],
      "stateMutability": "view",
      "type": "function"
    },
    {
      "inputs": [
        {
          "internalType": "address",
          "name": "_user",
          "type": "address"
        }
      ],
      "name": "removeExemptAddress",
      "outputs": [],
      "stateMutability": "nonpayable",
      "type": "function"
    },
    {
      "inputs": [],
      "name": "renounceOwnership",
      "outputs": [],
      "stateMutability": "nonpayable",
      "type": "function"
    },
    {
      "inputs": [
        {
          "internalType": "uint16",
          "name": "_newProtocolPerc",
          "type": "uint16"
        }
      ],
      "name": "setProtocolPerc",
      "outputs": [],
      "stateMutability": "nonpayable",
      "type": "function"
    },
    {
      "inputs": [
        {
          "internalType": "address payable",
          "name": "_newProtocolWallet",
          "type": "address"
        }
      ],
      "name": "setProtocolWallet",
      "outputs": [],
      "stateMutability": "nonpayable",
      "type": "function"
    },
    {
      "inputs": [],
      "name": "symbol",
      "outputs": [
        {
          "internalType": "string",
          "name": "",
          "type": "string"
        }
      ],
      "stateMutability": "view",
      "type": "function"
    },
    {
      "inputs": [],
      "name": "totalSupply",
      "outputs": [
        {
          "internalType": "uint256",
          "name": "",
          "type": "uint256"
        }
      ],
      "stateMutability": "view",
      "type": "function"
    },
    {
      "inputs": [
        {
          "internalType": "address",
          "name": "_to",
          "type": "address"
        },
        {
          "internalType": "uint256",
          "name": "_amount",
          "type": "uint256"
        }
      ],
      "name": "transfer",
      "outputs": [
        {
          "internalType": "bool",
          "name": "",
          "type": "bool"
        }
      ],
      "stateMutability": "nonpayable",
      "type": "function"
    },
    {
      "inputs": [
        {
          "internalType": "address",
          "name": "_from",
          "type": "address"
        },
        {
          "internalType": "address",
          "name": "_to",
          "type": "address"
        },
        {
          "internalType": "uint256",
          "name": "_amount",
          "type": "uint256"
        }
      ],
      "name": "transferFrom",
      "outputs": [
        {
          "internalType": "bool",
          "name": "",
          "type": "bool"
        }
      ],
      "stateMutability": "nonpayable",
      "type": "function"
    },
    {
      "inputs": [
        {
          "internalType": "address",
          "name": "newOwner",
          "type": "address"
        }
      ],
      "name": "transferOwnership",
      "outputs": [],
      "stateMutability": "nonpayable",
      "type": "function"
    }
  ],
  "bytecode": "0x6080604052612710600560146101000a81548161ffff021916908361ffff1602179055503480156200003057600080fd5b5060405162003d6838038062003d6883398181016040528101906200005691906200055c565b81818160039080519060200190620000709291906200040c565b508060049080519060200190620000899291906200040c565b505050620000ac620000a0620001b260201b60201c565b620001ba60201b60201c565b600560149054906101000a900461ffff1661ffff168461ffff1611156200010a576040517f08c379a0000000000000000000000000000000000000000000000000000000008152600401620001019062000659565b60405180910390fd5b6200014a336200011f6200028060201b60201c565b60126200012d9190620007e2565b633b9aca006200013e91906200091f565b6200028960201b60201c565b83600560166101000a81548161ffff021916908361ffff16021790555082600660006101000a81548173ffffffffffffffffffffffffffffffffffffffff021916908373ffffffffffffffffffffffffffffffffffffffff1602179055505050505062000bd2565b600033905090565b6000600560009054906101000a900473ffffffffffffffffffffffffffffffffffffffff16905081600560006101000a81548173ffffffffffffffffffffffffffffffffffffffff021916908373ffffffffffffffffffffffffffffffffffffffff1602179055508173ffffffffffffffffffffffffffffffffffffffff168173ffffffffffffffffffffffffffffffffffffffff167f8be0079c531659141344cd1fd0a4f28419497f9722a3daafe3b4186f6b6457e060405160405180910390a35050565b60006012905090565b600073ffffffffffffffffffffffffffffffffffffffff168273ffffffffffffffffffffffffffffffffffffffff161415620002fc576040517f08c379a0000000000000000000000000000000000000000000000000000000008152600401620002f3906200067b565b60405180910390fd5b62000310600083836200040260201b60201c565b80600260008282546200032491906200072a565b92505081905550806000808473ffffffffffffffffffffffffffffffffffffffff1673ffffffffffffffffffffffffffffffffffffffff16815260200190815260200160002060008282546200037b91906200072a565b925050819055508173ffffffffffffffffffffffffffffffffffffffff16600073ffffffffffffffffffffffffffffffffffffffff167fddf252ad1be2c89b69c2b068fc378daa952ba7f163c4a11628f55a4df523b3ef83604051620003e291906200069d565b60405180910390a3620003fe600083836200040760201b60201c565b5050565b505050565b505050565b8280546200041a9062000a0f565b90600052602060002090601f0160209004810192826200043e57600085556200048a565b82601f106200045957805160ff19168380011785556200048a565b828001600101855582156200048a579182015b82811115620004895782518255916020019190600101906200046c565b5b5090506200049991906200049d565b5090565b5b80821115620004b85760008160009055506001016200049e565b5090565b6000620004d3620004cd84620006e3565b620006ba565b905082815260208101848484011115620004ec57600080fd5b620004f9848285620009d9565b509392505050565b600081519050620005128162000b9e565b92915050565b600082601f8301126200052a57600080fd5b81516200053c848260208601620004bc565b91505092915050565b600081519050620005568162000bb8565b92915050565b600080600080608085870312156200057357600080fd5b6000620005838782880162000545565b9450506020620005968782880162000501565b935050604085015167ffffffffffffffff811115620005b457600080fd5b620005c28782880162000518565b925050606085015167ffffffffffffffff811115620005e057600080fd5b620005ee8782880162000518565b91505092959194509250565b60006200060960258362000719565b9150620006168262000b26565b604082019050919050565b600062000630601f8362000719565b91506200063d8262000b75565b602082019050919050565b6200065381620009c2565b82525050565b600060208201905081810360008301526200067481620005fa565b9050919050565b60006020820190508181036000830152620006968162000621565b9050919050565b6000602082019050620006b4600083018462000648565b92915050565b6000620006c6620006d9565b9050620006d4828262000a45565b919050565b6000604051905090565b600067ffffffffffffffff82111562000701576200070062000ad9565b5b6200070c8262000b08565b9050602081019050919050565b600082825260208201905092915050565b60006200073782620009c2565b91506200074483620009c2565b9250827fffffffffffffffffffffffffffffffffffffffffffffffffffffffffffffffff038211156200077c576200077b62000a7b565b5b828201905092915050565b6000808291508390505b6001851115620007d957808604811115620007b157620007b062000a7b565b5b6001851615620007c15780820291505b8081029050620007d18562000b19565b945062000791565b94509492505050565b6000620007ef82620009c2565b9150620007fc83620009cc565b92506200082b7fffffffffffffffffffffffffffffffffffffffffffffffffffffffffffffffff848462000833565b905092915050565b60008262000845576001905062000918565b8162000855576000905062000918565b81600181146200086e57600281146200087957620008af565b600191505062000918565b60ff8411156200088e576200088d62000a7b565b5b8360020a915084821115620008a857620008a762000a7b565b5b5062000918565b5060208310610133831016604e8410600b8410161715620008e95782820a905083811115620008e357620008e262000a7b565b5b62000918565b620008f8848484600162000787565b9250905081840481111562000912576200091162000a7b565b5b81810290505b9392505050565b60006200092c82620009c2565b91506200093983620009c2565b9250817fffffffffffffffffffffffffffffffffffffffffffffffffffffffffffffffff048311821515161562000975576200097462000a7b565b5b828202905092915050565b60006200098d82620009a2565b9050919050565b600061ffff82169050919050565b600073ffffffffffffffffffffffffffffffffffffffff82169050919050565b6000819050919050565b600060ff82169050919050565b60005b83811015620009f9578082015181840152602081019050620009dc565b8381111562000a09576000848401525b50505050565b6000600282049050600182168062000a2857607f821691505b6020821081141562000a3f5762000a3e62000aaa565b5b50919050565b62000a508262000b08565b810181811067ffffffffffffffff8211171562000a725762000a7162000ad9565b5b80604052505050565b7f4e487b7100000000000000000000000000000000000000000000000000000000600052601160045260246000fd5b7f4e487b7100000000000000000000000000000000000000000000000000000000600052602260045260246000fd5b7f4e487b7100000000000000000000000000000000000000000000000000000000600052604160045260246000fd5b6000601f19601f8301169050919050565b60008160011c9050919050565b7f43616e6e6f74207365742070726f746f636f6c2067726561746572207468616e60008201527f2031303025000000000000000000000000000000000000000000000000000000602082015250565b7f45524332303a206d696e7420746f20746865207a65726f206164647265737300600082015250565b62000ba98162000980565b811462000bb557600080fd5b50565b62000bc38162000994565b811462000bcf57600080fd5b50565b6131868062000be26000396000f3fe608060405234801561001057600080fd5b50600436106101a95760003560e01c80636668713a116100f9578063961b621911610097578063dd62ed3e11610071578063dd62ed3e146104f7578063ed84566614610527578063f01e9a8b14610557578063f2fde38b14610573576101a9565b8063961b621914610467578063a457c2d714610497578063a9059cbb146104c7576101a9565b806379cc6790116100d357806379cc6790146103f35780637b1c359c1461040f5780638da5cb5b1461042b57806395d89b4114610449576101a9565b80636668713a1461038857806370a08231146103b9578063715018a6146103e9576101a9565b8063195c07c711610166578063395093511161014057806339509351146102f057806342966c68146103205780635e8c4d761461033c5780636078c0f91461036c576101a9565b8063195c07c71461028457806323b872dd146102a2578063313ce567146102d2576101a9565b806306fdde03146101ae578063095ea7b3146101cc5780630e70e64e146101fc5780630f554be614610218578063117964341461024857806318160ddd14610266575b600080fd5b6101b661058f565b6040516101c3919061279d565b60405180910390f35b6101e660048036038101906101e1919061240c565b610621565b6040516101f39190612782565b60405180910390f35b61021660048036038101906102119190612448565b6108b6565b005b610232600480360381019061022d919061232f565b6109ad565b60405161023f91906129ba565b60405180910390f35b6102506109f9565b60405161025d9190612767565b60405180910390f35b61026e610a23565b60405161027b91906129ba565b60405180910390f35b61028c610a2d565b604051610299919061299f565b60405180910390f35b6102bc60048036038101906102b791906123bd565b610a45565b6040516102c99190612782565b60405180910390f35b6102da610c3d565b6040516102e791906129fe565b60405180910390f35b61030a6004803603810190610305919061240c565b610c46565b6040516103179190612782565b60405180910390f35b61033a60048036038101906103359190612471565b610e59565b005b6103566004803603810190610351919061232f565b610e6d565b6040516103639190612782565b60405180910390f35b6103866004803603810190610381919061232f565b610ec6565b005b6103a2600480360381019061039d919061249a565b611030565b6040516103b09291906129d5565b60405180910390f35b6103d360048036038101906103ce919061232f565b6110ff565b6040516103e091906129ba565b60405180910390f35b6103f1611147565b005b61040d6004803603810190610408919061240c565b6111cf565b005b6104296004803603810190610424919061232f565b6111ef565b005b610433611358565b6040516104409190612767565b60405180910390f35b610451611382565b60405161045e919061279d565b60405180910390f35b610481600480360381019061047c919061232f565b611414565b60405161048e91906129ba565b60405180910390f35b6104b160048036038101906104ac919061240c565b611460565b6040516104be9190612782565b60405180910390f35b6104e160048036038101906104dc919061240c565b6115b7565b6040516104ee9190612782565b60405180910390f35b610511600480360381019061050c9190612381565b611842565b60405161051e91906129ba565b60405180910390f35b610541600480360381019061053c919061232f565b6118c9565b60405161054e91906129ba565b60405180910390f35b610571600480360381019061056c9190612358565b611912565b005b61058d6004803603810190610588919061232f565b6119d2565b005b60606003805461059e90612c2a565b80601f01602080910402602001604051908101604052809291908181526020018280546105ca90612c2a565b80156106175780601f106105ec57610100808354040283529160200191610617565b820191906000526020600020905b8154815290600101906020018083116105fa57829003601f168201915b5050505050905090565b600061062b611aca565b8280610636836110ff565b1015610677576040517f08c379a000000000000000000000000000000000000000000000000000000000815260040161066e9061285f565b60405180910390fd5b600860008373ffffffffffffffffffffffffffffffffffffffff1673ffffffffffffffffffffffffffffffffffffffff16815260200190815260200160002060020160009054906101000a900460ff16610715576106d58282611ad2565b610714576040517f08c379a000000000000000000000000000000000000000000000000000000000815260040161070b9061291f565b60405180910390fd5b5b600061071f611aca565b90506000600860008373ffffffffffffffffffffffffffffffffffffffff1673ffffffffffffffffffffffffffffffffffffffff16815260200190815260200160002060020160009054906101000a900460ff16610899576000806107a28861079d8673ffffffffffffffffffffffffffffffffffffffff16611b24565b611030565b9150915080925060006107b5858b611842565b905060006107e1826107dc8873ffffffffffffffffffffffffffffffffffffffff16611b24565b611030565b50905080600760008873ffffffffffffffffffffffffffffffffffffffff1673ffffffffffffffffffffffffffffffffffffffff16815260200190815260200160002060008282546108339190612b4e565b9250508190555083600760008873ffffffffffffffffffffffffffffffffffffffff1673ffffffffffffffffffffffffffffffffffffffff16815260200190815260200160002060008282546108899190612a6d565b925050819055505050505061089d565b8590505b6108a8828888611b47565b600194505050505092915050565b6108be611aca565b73ffffffffffffffffffffffffffffffffffffffff166108dc611358565b73ffffffffffffffffffffffffffffffffffffffff1614610932576040517f08c379a0000000000000000000000000000000000000000000000000000000008152600401610929906128bf565b60405180910390fd5b600560149054906101000a900461ffff1661ffff168161ffff16111561098d576040517f08c379a00000000000000000000000000000000000000000000000000000000081526004016109849061287f565b60405180910390fd5b80600560166101000a81548161ffff021916908361ffff16021790555050565b6000600860008373ffffffffffffffffffffffffffffffffffffffff1673ffffffffffffffffffffffffffffffffffffffff168152602001908152602001600020600001549050919050565b6000600660009054906101000a900473ffffffffffffffffffffffffffffffffffffffff16905090565b6000600254905090565b6000600560169054906101000a900461ffff16905090565b600080610a50611aca565b90506000600860008773ffffffffffffffffffffffffffffffffffffffff1673ffffffffffffffffffffffffffffffffffffffff16815260200190815260200160002060020160009054906101000a900460ff16610bbd57600080610ad386610ace8a73ffffffffffffffffffffffffffffffffffffffff16611b24565b611030565b9150915080925081600860008a73ffffffffffffffffffffffffffffffffffffffff1673ffffffffffffffffffffffffffffffffffffffff1681526020019081526020016000206000016000828254610b2c9190612a6d565b9250508190555081600760008a73ffffffffffffffffffffffffffffffffffffffff1673ffffffffffffffffffffffffffffffffffffffff1681526020019081526020016000206000828254610b829190612b4e565b92505081905550610bb688600660009054906101000a900473ffffffffffffffffffffffffffffffffffffffff1684611d12565b5050610bc1565b8390505b80600860008873ffffffffffffffffffffffffffffffffffffffff1673ffffffffffffffffffffffffffffffffffffffff1681526020019081526020016000206001016000828254610c139190612a6d565b92505081905550610c25868383611f93565b610c30868683611d12565b6001925050509392505050565b60006012905090565b6000610c50611aca565b8280610c5b836110ff565b1015610c9c576040517f08c379a0000000000000000000000000000000000000000000000000000000008152600401610c939061285f565b60405180910390fd5b600860008373ffffffffffffffffffffffffffffffffffffffff1673ffffffffffffffffffffffffffffffffffffffff16815260200190815260200160002060020160009054906101000a900460ff16610d3a57610cfa8282611ad2565b610d39576040517f08c379a0000000000000000000000000000000000000000000000000000000008152600401610d309061291f565b60405180910390fd5b5b6000610d44611aca565b90506000600860008373ffffffffffffffffffffffffffffffffffffffff1673ffffffffffffffffffffffffffffffffffffffff16815260200190815260200160002060020160009054906101000a900460ff16610e2b57600080610dc788610dc28673ffffffffffffffffffffffffffffffffffffffff16611b24565b611030565b9150915080925081600760008673ffffffffffffffffffffffffffffffffffffffff1673ffffffffffffffffffffffffffffffffffffffff1681526020019081526020016000206000828254610e1d9190612a6d565b925050819055505050610e2c565b5b610e4b828883610e3c868c611842565b610e469190612a6d565b611b47565b600194505050505092915050565b610e6a610e64611aca565b8261201f565b50565b6000600860008373ffffffffffffffffffffffffffffffffffffffff1673ffffffffffffffffffffffffffffffffffffffff16815260200190815260200160002060020160009054906101000a900460ff169050919050565b610ece611aca565b73ffffffffffffffffffffffffffffffffffffffff16610eec611358565b73ffffffffffffffffffffffffffffffffffffffff1614610f42576040517f08c379a0000000000000000000000000000000000000000000000000000000008152600401610f39906128bf565b60405180910390fd5b600860008273ffffffffffffffffffffffffffffffffffffffff1673ffffffffffffffffffffffffffffffffffffffff16815260200190815260200160002060020160009054906101000a900460ff1615610fd2576040517f08c379a0000000000000000000000000000000000000000000000000000000008152600401610fc99061289f565b60405180910390fd5b6001600860008373ffffffffffffffffffffffffffffffffffffffff1673ffffffffffffffffffffffffffffffffffffffff16815260200190815260200160002060020160006101000a81548160ff02191690831515021790555050565b60008060008084156110ab57600560169054906101000a900461ffff1661ffff16600560149054906101000a900461ffff16600560169054906101000a900461ffff1661107d9190612a35565b61ffff168761108c9190612ac3565b6110969190612af4565b915081866110a49190612b4e565b90506110f0565b600560149054906101000a900461ffff1661ffff16600560169054906101000a900461ffff1661ffff16876110e09190612af4565b6110ea9190612ac3565b91508590505b81819350935050509250929050565b60008060008373ffffffffffffffffffffffffffffffffffffffff1673ffffffffffffffffffffffffffffffffffffffff168152602001908152602001600020549050919050565b61114f611aca565b73ffffffffffffffffffffffffffffffffffffffff1661116d611358565b73ffffffffffffffffffffffffffffffffffffffff16146111c3576040517f08c379a00000000000000000000000000000000000000000000000000000000081526004016111ba906128bf565b60405180910390fd5b6111cd60006121f6565b565b6111e1826111db611aca565b83611f93565b6111eb828261201f565b5050565b6111f7611aca565b73ffffffffffffffffffffffffffffffffffffffff16611215611358565b73ffffffffffffffffffffffffffffffffffffffff161461126b576040517f08c379a0000000000000000000000000000000000000000000000000000000008152600401611262906128bf565b60405180910390fd5b600860008273ffffffffffffffffffffffffffffffffffffffff1673ffffffffffffffffffffffffffffffffffffffff16815260200190815260200160002060020160009054906101000a900460ff166112fa576040517f08c379a00000000000000000000000000000000000000000000000000000000081526004016112f19061293f565b60405180910390fd5b6000600860008373ffffffffffffffffffffffffffffffffffffffff1673ffffffffffffffffffffffffffffffffffffffff16815260200190815260200160002060020160006101000a81548160ff02191690831515021790555050565b6000600560009054906101000a900473ffffffffffffffffffffffffffffffffffffffff16905090565b60606004805461139190612c2a565b80601f01602080910402602001604051908101604052809291908181526020018280546113bd90612c2a565b801561140a5780601f106113df5761010080835404028352916020019161140a565b820191906000526020600020905b8154815290600101906020018083116113ed57829003601f168201915b5050505050905090565b6000600860008373ffffffffffffffffffffffffffffffffffffffff1673ffffffffffffffffffffffffffffffffffffffff168152602001908152602001600020600101549050919050565b60008061146b611aca565b905060008061147a8387611842565b9050848110156114bf576040517f08c379a00000000000000000000000000000000000000000000000000000000081526004016114b69061297f565b60405180910390fd5b600860008473ffffffffffffffffffffffffffffffffffffffff1673ffffffffffffffffffffffffffffffffffffffff16815260200190815260200160002060020160009054906101000a900460ff166115995760008061153e876115398773ffffffffffffffffffffffffffffffffffffffff16611b24565b611030565b9150915080935081600760008773ffffffffffffffffffffffffffffffffffffffff1673ffffffffffffffffffffffffffffffffffffffff16815260200190815260200160002060008282540392505081905550505061159d565b8491505b6115aa8387878403611b47565b6001935050505092915050565b60006115c1611aca565b82806115cc836110ff565b101561160d576040517f08c379a00000000000000000000000000000000000000000000000000000000081526004016116049061285f565b60405180910390fd5b600860008373ffffffffffffffffffffffffffffffffffffffff1673ffffffffffffffffffffffffffffffffffffffff16815260200190815260200160002060020160009054906101000a900460ff166116ab5761166b8282611ad2565b6116aa576040517f08c379a00000000000000000000000000000000000000000000000000000000081526004016116a19061291f565b60405180910390fd5b5b60006116b5611aca565b90506000600860008373ffffffffffffffffffffffffffffffffffffffff1673ffffffffffffffffffffffffffffffffffffffff16815260200190815260200160002060020160009054906101000a900460ff166117cc57600080611738886117338673ffffffffffffffffffffffffffffffffffffffff16611b24565b611030565b9150915080925081600860008673ffffffffffffffffffffffffffffffffffffffff1673ffffffffffffffffffffffffffffffffffffffff16815260200190815260200160002060000160008282546117919190612a6d565b925050819055506117c584600660009054906101000a900473ffffffffffffffffffffffffffffffffffffffff1684611d12565b50506117d0565b8590505b80600860008473ffffffffffffffffffffffffffffffffffffffff1673ffffffffffffffffffffffffffffffffffffffff16815260200190815260200160002060010160008282546118229190612a6d565b92505081905550611834828883611d12565b600194505050505092915050565b6000600160008473ffffffffffffffffffffffffffffffffffffffff1673ffffffffffffffffffffffffffffffffffffffff16815260200190815260200160002060008373ffffffffffffffffffffffffffffffffffffffff1673ffffffffffffffffffffffffffffffffffffffff16815260200190815260200160002054905092915050565b6000600760008373ffffffffffffffffffffffffffffffffffffffff1673ffffffffffffffffffffffffffffffffffffffff168152602001908152602001600020549050919050565b61191a611aca565b73ffffffffffffffffffffffffffffffffffffffff16611938611358565b73ffffffffffffffffffffffffffffffffffffffff161461198e576040517f08c379a0000000000000000000000000000000000000000000000000000000008152600401611985906128bf565b60405180910390fd5b80600660006101000a81548173ffffffffffffffffffffffffffffffffffffffff021916908373ffffffffffffffffffffffffffffffffffffffff16021790555050565b6119da611aca565b73ffffffffffffffffffffffffffffffffffffffff166119f8611358565b73ffffffffffffffffffffffffffffffffffffffff1614611a4e576040517f08c379a0000000000000000000000000000000000000000000000000000000008152600401611a45906128bf565b60405180910390fd5b600073ffffffffffffffffffffffffffffffffffffffff168173ffffffffffffffffffffffffffffffffffffffff161415611abe576040517f08c379a0000000000000000000000000000000000000000000000000000000008152600401611ab5906127ff565b60405180910390fd5b611ac7816121f6565b50565b600033905090565b6000806000611aff84611afa8773ffffffffffffffffffffffffffffffffffffffff16611b24565b611030565b915091508082611b0f9190612a6d565b611b18866110ff565b10159250505092915050565b6000808273ffffffffffffffffffffffffffffffffffffffff163b119050919050565b600073ffffffffffffffffffffffffffffffffffffffff168373ffffffffffffffffffffffffffffffffffffffff161415611bb7576040517f08c379a0000000000000000000000000000000000000000000000000000000008152600401611bae9061295f565b60405180910390fd5b600073ffffffffffffffffffffffffffffffffffffffff168273ffffffffffffffffffffffffffffffffffffffff161415611c27576040517f08c379a0000000000000000000000000000000000000000000000000000000008152600401611c1e9061281f565b60405180910390fd5b80600160008573ffffffffffffffffffffffffffffffffffffffff1673ffffffffffffffffffffffffffffffffffffffff16815260200190815260200160002060008473ffffffffffffffffffffffffffffffffffffffff1673ffffffffffffffffffffffffffffffffffffffff168152602001908152602001600020819055508173ffffffffffffffffffffffffffffffffffffffff168373ffffffffffffffffffffffffffffffffffffffff167f8c5be1e5ebec7d5bd14f71427d1e84f3dd0314c0f7b2291e5b200ac8c7c3b92583604051611d0591906129ba565b60405180910390a3505050565b600073ffffffffffffffffffffffffffffffffffffffff168373ffffffffffffffffffffffffffffffffffffffff161415611d82576040517f08c379a0000000000000000000000000000000000000000000000000000000008152600401611d79906128ff565b60405180910390fd5b600073ffffffffffffffffffffffffffffffffffffffff168273ffffffffffffffffffffffffffffffffffffffff161415611df2576040517f08c379a0000000000000000000000000000000000000000000000000000000008152600401611de9906127bf565b60405180910390fd5b611dfd8383836122bc565b60008060008573ffffffffffffffffffffffffffffffffffffffff1673ffffffffffffffffffffffffffffffffffffffff16815260200190815260200160002054905081811015611e83576040517f08c379a0000000000000000000000000000000000000000000000000000000008152600401611e7a9061285f565b60405180910390fd5b8181036000808673ffffffffffffffffffffffffffffffffffffffff1673ffffffffffffffffffffffffffffffffffffffff16815260200190815260200160002081905550816000808573ffffffffffffffffffffffffffffffffffffffff1673ffffffffffffffffffffffffffffffffffffffff1681526020019081526020016000206000828254611f169190612a6d565b925050819055508273ffffffffffffffffffffffffffffffffffffffff168473ffffffffffffffffffffffffffffffffffffffff167fddf252ad1be2c89b69c2b068fc378daa952ba7f163c4a11628f55a4df523b3ef84604051611f7a91906129ba565b60405180910390a3611f8d8484846122c1565b50505050565b6000611f9f8484611842565b90507fffffffffffffffffffffffffffffffffffffffffffffffffffffffffffffffff8114612019578181101561200b576040517f08c379a00000000000000000000000000000000000000000000000000000000081526004016120029061283f565b60405180910390fd5b6120188484848403611b47565b5b50505050565b600073ffffffffffffffffffffffffffffffffffffffff168273ffffffffffffffffffffffffffffffffffffffff16141561208f576040517f08c379a0000000000000000000000000000000000000000000000000000000008152600401612086906128df565b60405180910390fd5b61209b826000836122bc565b60008060008473ffffffffffffffffffffffffffffffffffffffff1673ffffffffffffffffffffffffffffffffffffffff16815260200190815260200160002054905081811015612121576040517f08c379a0000000000000000000000000000000000000000000000000000000008152600401612118906127df565b60405180910390fd5b8181036000808573ffffffffffffffffffffffffffffffffffffffff1673ffffffffffffffffffffffffffffffffffffffff1681526020019081526020016000208190555081600260008282546121789190612b4e565b92505081905550600073ffffffffffffffffffffffffffffffffffffffff168373ffffffffffffffffffffffffffffffffffffffff167fddf252ad1be2c89b69c2b068fc378daa952ba7f163c4a11628f55a4df523b3ef846040516121dd91906129ba565b60405180910390a36121f1836000846122c1565b505050565b6000600560009054906101000a900473ffffffffffffffffffffffffffffffffffffffff16905081600560006101000a81548173ffffffffffffffffffffffffffffffffffffffff021916908373ffffffffffffffffffffffffffffffffffffffff1602179055508173ffffffffffffffffffffffffffffffffffffffff168173ffffffffffffffffffffffffffffffffffffffff167f8be0079c531659141344cd1fd0a4f28419497f9722a3daafe3b4186f6b6457e060405160405180910390a35050565b505050565b505050565b6000813590506122d5816130dd565b92915050565b6000813590506122ea816130f4565b92915050565b6000813590506122ff8161310b565b92915050565b60008135905061231481613122565b92915050565b60008135905061232981613139565b92915050565b60006020828403121561234157600080fd5b600061234f848285016122c6565b91505092915050565b60006020828403121561236a57600080fd5b6000612378848285016122db565b91505092915050565b6000806040838503121561239457600080fd5b60006123a2858286016122c6565b92505060206123b3858286016122c6565b9150509250929050565b6000806000606084860312156123d257600080fd5b60006123e0868287016122c6565b93505060206123f1868287016122c6565b92505060406124028682870161231a565b9150509250925092565b6000806040838503121561241f57600080fd5b600061242d858286016122c6565b925050602061243e8582860161231a565b9150509250929050565b60006020828403121561245a57600080fd5b600061246884828501612305565b91505092915050565b60006020828403121561248357600080fd5b60006124918482850161231a565b91505092915050565b600080604083850312156124ad57600080fd5b60006124bb8582860161231a565b92505060206124cc858286016122f0565b9150509250929050565b6124df81612b82565b82525050565b6124ee81612ba6565b82525050565b60006124ff82612a19565b6125098185612a24565b9350612519818560208601612bf7565b61252281612ce9565b840191505092915050565b600061253a602383612a24565b915061254582612cfa565b604082019050919050565b600061255d602283612a24565b915061256882612d49565b604082019050919050565b6000612580602683612a24565b915061258b82612d98565b604082019050919050565b60006125a3602283612a24565b91506125ae82612de7565b604082019050919050565b60006125c6601d83612a24565b91506125d182612e36565b602082019050919050565b60006125e9602683612a24565b91506125f482612e5f565b604082019050919050565b600061260c602583612a24565b915061261782612eae565b604082019050919050565b600061262f601983612a24565b915061263a82612efd565b602082019050919050565b6000612652602083612a24565b915061265d82612f26565b602082019050919050565b6000612675602183612a24565b915061268082612f4f565b604082019050919050565b6000612698602583612a24565b91506126a382612f9e565b604082019050919050565b60006126bb602083612a24565b91506126c682612fed565b602082019050919050565b60006126de601583612a24565b91506126e982613016565b602082019050919050565b6000612701602483612a24565b915061270c8261303f565b604082019050919050565b6000612724602583612a24565b915061272f8261308e565b604082019050919050565b61274381612bb2565b82525050565b61275281612be0565b82525050565b61276181612bea565b82525050565b600060208201905061277c60008301846124d6565b92915050565b600060208201905061279760008301846124e5565b92915050565b600060208201905081810360008301526127b781846124f4565b905092915050565b600060208201905081810360008301526127d88161252d565b9050919050565b600060208201905081810360008301526127f881612550565b9050919050565b6000602082019050818103600083015261281881612573565b9050919050565b6000602082019050818103600083015261283881612596565b9050919050565b60006020820190508181036000830152612858816125b9565b9050919050565b60006020820190508181036000830152612878816125dc565b9050919050565b60006020820190508181036000830152612898816125ff565b9050919050565b600060208201905081810360008301526128b881612622565b9050919050565b600060208201905081810360008301526128d881612645565b9050919050565b600060208201905081810360008301526128f881612668565b9050919050565b600060208201905081810360008301526129188161268b565b9050919050565b60006020820190508181036000830152612938816126ae565b9050919050565b60006020820190508181036000830152612958816126d1565b9050919050565b60006020820190508181036000830152612978816126f4565b9050919050565b6000602082019050818103600083015261299881612717565b9050919050565b60006020820190506129b4600083018461273a565b92915050565b60006020820190506129cf6000830184612749565b92915050565b60006040820190506129ea6000830185612749565b6129f76020830184612749565b9392505050565b6000602082019050612a136000830184612758565b92915050565b600081519050919050565b600082825260208201905092915050565b6000612a4082612bb2565b9150612a4b83612bb2565b92508261ffff03821115612a6257612a61612c5c565b5b828201905092915050565b6000612a7882612be0565b9150612a8383612be0565b9250827fffffffffffffffffffffffffffffffffffffffffffffffffffffffffffffffff03821115612ab857612ab7612c5c565b5b828201905092915050565b6000612ace82612be0565b9150612ad983612be0565b925082612ae957612ae8612c8b565b5b828204905092915050565b6000612aff82612be0565b9150612b0a83612be0565b9250817fffffffffffffffffffffffffffffffffffffffffffffffffffffffffffffffff0483118215151615612b4357612b42612c5c565b5b828202905092915050565b6000612b5982612be0565b9150612b6483612be0565b925082821015612b7757612b76612c5c565b5b828203905092915050565b6000612b8d82612bc0565b9050919050565b6000612b9f82612bc0565b9050919050565b60008115159050919050565b600061ffff82169050919050565b600073ffffffffffffffffffffffffffffffffffffffff82169050919050565b6000819050919050565b600060ff82169050919050565b60005b83811015612c15578082015181840152602081019050612bfa565b83811115612c24576000848401525b50505050565b60006002820490506001821680612c4257607f821691505b60208210811415612c5657612c55612cba565b5b50919050565b7f4e487b7100000000000000000000000000000000000000000000000000000000600052601160045260246000fd5b7f4e487b7100000000000000000000000000000000000000000000000000000000600052601260045260246000fd5b7f4e487b7100000000000000000000000000000000000000000000000000000000600052602260045260246000fd5b6000601f19601f8301169050919050565b7f45524332303a207472616e7366657220746f20746865207a65726f206164647260008201527f6573730000000000000000000000000000000000000000000000000000000000602082015250565b7f45524332303a206275726e20616d6f756e7420657863656564732062616c616e60008201527f6365000000000000000000000000000000000000000000000000000000000000602082015250565b7f4f776e61626c653a206e6577206f776e657220697320746865207a65726f206160008201527f6464726573730000000000000000000000000000000000000000000000000000602082015250565b7f45524332303a20617070726f766520746f20746865207a65726f20616464726560008201527f7373000000000000000000000000000000000000000000000000000000000000602082015250565b7f45524332303a20696e73756666696369656e7420616c6c6f77616e6365000000600082015250565b7f45524332303a207472616e7366657220616d6f756e742065786365656473206260008201527f616c616e63650000000000000000000000000000000000000000000000000000602082015250565b7f43616e6e6f74207365742070726f746f636f6c2067726561746572207468616e60008201527f2031303025000000000000000000000000000000000000000000000000000000602082015250565b7f4163636f756e7420697320616c7265616479206578656d707400000000000000600082015250565b7f4f776e61626c653a2063616c6c6572206973206e6f7420746865206f776e6572600082015250565b7f45524332303a206275726e2066726f6d20746865207a65726f2061646472657360008201527f7300000000000000000000000000000000000000000000000000000000000000602082015250565b7f45524332303a207472616e736665722066726f6d20746865207a65726f20616460008201527f6472657373000000000000000000000000000000000000000000000000000000602082015250565b7f434f4d524144453a2043616e6e6f74207061792070726f746f636f6c20666565600082015250565b7f4163636f756e74206973206e6f74206578656d70740000000000000000000000600082015250565b7f45524332303a20617070726f76652066726f6d20746865207a65726f2061646460008201527f7265737300000000000000000000000000000000000000000000000000000000602082015250565b7f45524332303a2064656372656173656420616c6c6f77616e63652062656c6f7760008201527f207a65726f000000000000000000000000000000000000000000000000000000602082015250565b6130e681612b82565b81146130f157600080fd5b50565b6130fd81612b94565b811461310857600080fd5b50565b61311481612ba6565b811461311f57600080fd5b50565b61312b81612bb2565b811461313657600080fd5b50565b61314281612be0565b811461314d57600080fd5b5056fea264697066735822122046cb2d14339c6dd5cd3022adc9ab21dc4a6a6fe66a4bb6594d38fb39b581554664736f6c63430008040033",
  "linkReferences": {},
  "deployedLinkReferences": {}
}