{
  "_format": "hh-sol-artifact-1",
  "contractName": "ComradeToken",
  "sourceName": "contracts/ComradeToken.sol",
  "abi": [
    {
      "inputs": [
        {
          "internalType": "uint16",
          "name": "_protocolPerc",
          "type": "uint16"
        },
        {
          "internalType": "address payable",
          "name": "_protocolWallet",
          "type": "address"
        },
        {
          "internalType": "string",
          "name": "_tokenName",
          "type": "string"
        },
        {
          "internalType": "string",
          "name": "_tokenSymbol",
          "type": "string"
        }
      ],
      "stateMutability": "nonpayable",
      "type": "constructor"
    },
    {
      "anonymous": false,
      "inputs": [
        {
          "indexed": true,
          "internalType": "address",
          "name": "owner",
          "type": "address"
        },
        {
          "indexed": true,
          "internalType": "address",
          "name": "spender",
          "type": "address"
        },
        {
          "indexed": false,
          "internalType": "uint256",
          "name": "value",
          "type": "uint256"
        }
      ],
      "name": "Approval",
      "type": "event"
    },
    {
      "anonymous": false,
      "inputs": [
        {
          "indexed": true,
          "internalType": "address",
          "name": "from",
          "type": "address"
        },
        {
          "indexed": true,
          "internalType": "address",
          "name": "to",
          "type": "address"
        },
        {
          "indexed": false,
          "internalType": "uint256",
          "name": "value",
          "type": "uint256"
        }
      ],
      "name": "Transfer",
      "type": "event"
    },
    {
      "inputs": [
        {
          "internalType": "address",
          "name": "owner",
          "type": "address"
        },
        {
          "internalType": "address",
          "name": "spender",
          "type": "address"
        }
      ],
      "name": "allowance",
      "outputs": [
        {
          "internalType": "uint256",
          "name": "",
          "type": "uint256"
        }
      ],
      "stateMutability": "view",
      "type": "function"
    },
    {
      "inputs": [
        {
          "internalType": "address",
          "name": "_spender",
          "type": "address"
        },
        {
          "internalType": "uint256",
          "name": "_amount",
          "type": "uint256"
        }
      ],
      "name": "approve",
      "outputs": [
        {
          "internalType": "bool",
          "name": "",
          "type": "bool"
        }
      ],
      "stateMutability": "nonpayable",
      "type": "function"
    },
    {
      "inputs": [
        {
          "internalType": "address",
          "name": "account",
          "type": "address"
        }
      ],
      "name": "balanceOf",
      "outputs": [
        {
          "internalType": "uint256",
          "name": "",
          "type": "uint256"
        }
      ],
      "stateMutability": "view",
      "type": "function"
    },
    {
      "inputs": [
        {
          "internalType": "uint256",
          "name": "amount",
          "type": "uint256"
        }
      ],
      "name": "burn",
      "outputs": [],
      "stateMutability": "nonpayable",
      "type": "function"
    },
    {
      "inputs": [
        {
          "internalType": "address",
          "name": "account",
          "type": "address"
        },
        {
          "internalType": "uint256",
          "name": "amount",
          "type": "uint256"
        }
      ],
      "name": "burnFrom",
      "outputs": [],
      "stateMutability": "nonpayable",
      "type": "function"
    },
    {
      "inputs": [
        {
          "internalType": "uint256",
          "name": "_amount",
          "type": "uint256"
        }
      ],
      "name": "calculateProtocolFee",
      "outputs": [
        {
          "internalType": "uint256",
          "name": "",
          "type": "uint256"
        }
      ],
      "stateMutability": "view",
      "type": "function"
    },
    {
      "inputs": [],
      "name": "decimals",
      "outputs": [
        {
          "internalType": "uint8",
          "name": "",
          "type": "uint8"
        }
      ],
      "stateMutability": "view",
      "type": "function"
    },
    {
      "inputs": [
        {
          "internalType": "address",
          "name": "_spender",
          "type": "address"
        },
        {
          "internalType": "uint256",
          "name": "_subtractedValue",
          "type": "uint256"
        }
      ],
      "name": "decreaseAllowance",
      "outputs": [
        {
          "internalType": "bool",
          "name": "",
          "type": "bool"
        }
      ],
      "stateMutability": "nonpayable",
      "type": "function"
    },
    {
      "inputs": [
        {
          "internalType": "address",
          "name": "_user",
          "type": "address"
        }
      ],
      "name": "getAllowanceHolding",
      "outputs": [
        {
          "internalType": "uint256",
          "name": "",
          "type": "uint256"
        }
      ],
      "stateMutability": "view",
      "type": "function"
    },
    {
      "inputs": [
        {
          "internalType": "address",
          "name": "_user",
          "type": "address"
        }
      ],
      "name": "getTotalFeesPaid",
      "outputs": [
        {
          "internalType": "uint256",
          "name": "",
          "type": "uint256"
        }
      ],
      "stateMutability": "view",
      "type": "function"
    },
    {
      "inputs": [
        {
          "internalType": "address",
          "name": "_user",
          "type": "address"
        }
      ],
      "name": "getTotalTokensSent",
      "outputs": [
        {
          "internalType": "uint256",
          "name": "",
          "type": "uint256"
        }
      ],
      "stateMutability": "view",
      "type": "function"
    },
    {
      "inputs": [
        {
          "internalType": "address",
          "name": "_spender",
          "type": "address"
        },
        {
          "internalType": "uint256",
          "name": "_addedValue",
          "type": "uint256"
        }
      ],
      "name": "increaseAllowance",
      "outputs": [
        {
          "internalType": "bool",
          "name": "",
          "type": "bool"
        }
      ],
      "stateMutability": "nonpayable",
      "type": "function"
    },
    {
      "inputs": [],
      "name": "name",
      "outputs": [
        {
          "internalType": "string",
          "name": "",
          "type": "string"
        }
      ],
      "stateMutability": "view",
      "type": "function"
    },
    {
      "inputs": [],
      "name": "symbol",
      "outputs": [
        {
          "internalType": "string",
          "name": "",
          "type": "string"
        }
      ],
      "stateMutability": "view",
      "type": "function"
    },
    {
      "inputs": [],
      "name": "totalSupply",
      "outputs": [
        {
          "internalType": "uint256",
          "name": "",
          "type": "uint256"
        }
      ],
      "stateMutability": "view",
      "type": "function"
    },
    {
      "inputs": [
        {
          "internalType": "address",
          "name": "_to",
          "type": "address"
        },
        {
          "internalType": "uint256",
          "name": "_amount",
          "type": "uint256"
        }
      ],
      "name": "transfer",
      "outputs": [
        {
          "internalType": "bool",
          "name": "",
          "type": "bool"
        }
      ],
      "stateMutability": "nonpayable",
      "type": "function"
    },
    {
      "inputs": [
        {
          "internalType": "address",
          "name": "_from",
          "type": "address"
        },
        {
          "internalType": "address",
          "name": "_to",
          "type": "address"
        },
        {
          "internalType": "uint256",
          "name": "_amount",
          "type": "uint256"
        }
      ],
      "name": "transferFrom",
      "outputs": [
        {
          "internalType": "bool",
          "name": "",
          "type": "bool"
        }
      ],
      "stateMutability": "nonpayable",
      "type": "function"
    }
  ],
  "bytecode": "0x60806040523480156200001157600080fd5b50604051620028b8380380620028b88339818101604052810190620000379190620003f1565b8181816003908051906020019062000051929190620002a1565b5080600490805190602001906200006a929190620002a1565b505050620000ad33620000826200011560201b60201c565b60126200009091906200062e565b633b9aca00620000a191906200076b565b6200011e60201b60201c565b83600560006101000a81548161ffff021916908361ffff16021790555082600560026101000a81548173ffffffffffffffffffffffffffffffffffffffff021916908373ffffffffffffffffffffffffffffffffffffffff16021790555050505050620009cf565b60006012905090565b600073ffffffffffffffffffffffffffffffffffffffff168273ffffffffffffffffffffffffffffffffffffffff16141562000191576040517f08c379a00000000000000000000000000000000000000000000000000000000081526004016200018890620004c7565b60405180910390fd5b620001a5600083836200029760201b60201c565b8060026000828254620001b9919062000576565b92505081905550806000808473ffffffffffffffffffffffffffffffffffffffff1673ffffffffffffffffffffffffffffffffffffffff168152602001908152602001600020600082825462000210919062000576565b925050819055508173ffffffffffffffffffffffffffffffffffffffff16600073ffffffffffffffffffffffffffffffffffffffff167fddf252ad1be2c89b69c2b068fc378daa952ba7f163c4a11628f55a4df523b3ef83604051620002779190620004e9565b60405180910390a362000293600083836200029c60201b60201c565b5050565b505050565b505050565b828054620002af906200085b565b90600052602060002090601f016020900481019282620002d357600085556200031f565b82601f10620002ee57805160ff19168380011785556200031f565b828001600101855582156200031f579182015b828111156200031e57825182559160200191906001019062000301565b5b5090506200032e919062000332565b5090565b5b808211156200034d57600081600090555060010162000333565b5090565b60006200036862000362846200052f565b62000506565b9050828152602081018484840111156200038157600080fd5b6200038e84828562000825565b509392505050565b600081519050620003a7816200099b565b92915050565b600082601f830112620003bf57600080fd5b8151620003d184826020860162000351565b91505092915050565b600081519050620003eb81620009b5565b92915050565b600080600080608085870312156200040857600080fd5b60006200041887828801620003da565b94505060206200042b8782880162000396565b935050604085015167ffffffffffffffff8111156200044957600080fd5b6200045787828801620003ad565b925050606085015167ffffffffffffffff8111156200047557600080fd5b6200048387828801620003ad565b91505092959194509250565b60006200049e601f8362000565565b9150620004ab8262000972565b602082019050919050565b620004c1816200080e565b82525050565b60006020820190508181036000830152620004e2816200048f565b9050919050565b6000602082019050620005006000830184620004b6565b92915050565b60006200051262000525565b905062000520828262000891565b919050565b6000604051905090565b600067ffffffffffffffff8211156200054d576200054c62000925565b5b620005588262000954565b9050602081019050919050565b600082825260208201905092915050565b600062000583826200080e565b915062000590836200080e565b9250827fffffffffffffffffffffffffffffffffffffffffffffffffffffffffffffffff03821115620005c857620005c7620008c7565b5b828201905092915050565b6000808291508390505b60018511156200062557808604811115620005fd57620005fc620008c7565b5b60018516156200060d5780820291505b80810290506200061d8562000965565b9450620005dd565b94509492505050565b60006200063b826200080e565b9150620006488362000818565b9250620006777fffffffffffffffffffffffffffffffffffffffffffffffffffffffffffffffff84846200067f565b905092915050565b60008262000691576001905062000764565b81620006a1576000905062000764565b8160018114620006ba5760028114620006c557620006fb565b600191505062000764565b60ff841115620006da57620006d9620008c7565b5b8360020a915084821115620006f457620006f3620008c7565b5b5062000764565b5060208310610133831016604e8410600b8410161715620007355782820a9050838111156200072f576200072e620008c7565b5b62000764565b620007448484846001620005d3565b925090508184048111156200075e576200075d620008c7565b5b81810290505b9392505050565b600062000778826200080e565b915062000785836200080e565b9250817fffffffffffffffffffffffffffffffffffffffffffffffffffffffffffffffff0483118215151615620007c157620007c0620008c7565b5b828202905092915050565b6000620007d982620007ee565b9050919050565b600061ffff82169050919050565b600073ffffffffffffffffffffffffffffffffffffffff82169050919050565b6000819050919050565b600060ff82169050919050565b60005b838110156200084557808201518184015260208101905062000828565b8381111562000855576000848401525b50505050565b600060028204905060018216806200087457607f821691505b602082108114156200088b576200088a620008f6565b5b50919050565b6200089c8262000954565b810181811067ffffffffffffffff82111715620008be57620008bd62000925565b5b80604052505050565b7f4e487b7100000000000000000000000000000000000000000000000000000000600052601160045260246000fd5b7f4e487b7100000000000000000000000000000000000000000000000000000000600052602260045260246000fd5b7f4e487b7100000000000000000000000000000000000000000000000000000000600052604160045260246000fd5b6000601f19601f8301169050919050565b60008160011c9050919050565b7f45524332303a206d696e7420746f20746865207a65726f206164647265737300600082015250565b620009a681620007cc565b8114620009b257600080fd5b50565b620009c081620007e0565b8114620009cc57600080fd5b50565b611ed980620009df6000396000f3fe608060405234801561001057600080fd5b506004361061010b5760003560e01c806370a08231116100a25780639c7c270c116100715780639c7c270c146102e0578063a457c2d714610310578063a9059cbb14610340578063dd62ed3e14610370578063ed845666146103a05761010b565b806370a082311461024657806379cc67901461027657806395d89b4114610292578063961b6219146102b05761010b565b806323b872dd116100de57806323b872dd146101ac578063313ce567146101dc57806339509351146101fa57806342966c681461022a5761010b565b806306fdde0314610110578063095ea7b31461012e5780630f554be61461015e57806318160ddd1461018e575b600080fd5b6101186103d0565b604051610125919061178a565b60405180910390f35b61014860048036038101906101439190611546565b610462565b604051610155919061176f565b60405180910390f35b61017860048036038101906101739190611492565b610587565b60405161018591906118ec565b60405180910390f35b6101966105d3565b6040516101a391906118ec565b60405180910390f35b6101c660048036038101906101c191906114f7565b6105dd565b6040516101d3919061176f565b60405180910390f35b6101e461074f565b6040516101f19190611907565b60405180910390f35b610214600480360381019061020f9190611546565b610758565b604051610221919061176f565b60405180910390f35b610244600480360381019061023f9190611582565b610891565b005b610260600480360381019061025b9190611492565b6108a5565b60405161026d91906118ec565b60405180910390f35b610290600480360381019061028b9190611546565b6108ed565b005b61029a61090d565b6040516102a7919061178a565b60405180910390f35b6102ca60048036038101906102c59190611492565b61099f565b6040516102d791906118ec565b60405180910390f35b6102fa60048036038101906102f59190611582565b6109eb565b60405161030791906118ec565b60405180910390f35b61032a60048036038101906103259190611546565b610a21565b604051610337919061176f565b60405180910390f35b61035a60048036038101906103559190611546565b610aed565b604051610367919061176f565b60405180910390f35b61038a600480360381019061038591906114bb565b610ca9565b60405161039791906118ec565b60405180910390f35b6103ba60048036038101906103b59190611492565b610d30565b6040516103c791906118ec565b60405180910390f35b6060600380546103df90611adb565b80601f016020809104026020016040519081016040528092919081815260200182805461040b90611adb565b80156104585780601f1061042d57610100808354040283529160200191610458565b820191906000526020600020905b81548152906001019060200180831161043b57829003601f168201915b5050505050905090565b600081600061046f610d79565b90508161047b826108a5565b10156104bc576040517f08c379a00000000000000000000000000000000000000000000000000000000081526004016104b39061182c565b60405180910390fd5b6104c68183610d81565b610505576040517f08c379a00000000000000000000000000000000000000000000000000000000081526004016104fc9061188c565b60405180910390fd5b600061050f610d79565b905061051a856109eb565b600660008373ffffffffffffffffffffffffffffffffffffffff1673ffffffffffffffffffffffffffffffffffffffff1681526020019081526020016000206000828254610568919061193e565b9250508190555061057a818787610daf565b6001935050505092915050565b6000600760008373ffffffffffffffffffffffffffffffffffffffff1673ffffffffffffffffffffffffffffffffffffffff168152602001908152602001600020600001549050919050565b6000600254905090565b6000806105e8610d79565b905060006105f5846109eb565b905080600760008873ffffffffffffffffffffffffffffffffffffffff1673ffffffffffffffffffffffffffffffffffffffff1681526020019081526020016000206000016000828254610649919061193e565b9250508190555083600760008873ffffffffffffffffffffffffffffffffffffffff1673ffffffffffffffffffffffffffffffffffffffff16815260200190815260200160002060010160008282546106a2919061193e565b9250508190555080600660008873ffffffffffffffffffffffffffffffffffffffff1673ffffffffffffffffffffffffffffffffffffffff16815260200190815260200160002060008282546106f89190611a1f565b9250508190555061072c86600560029054906101000a900473ffffffffffffffffffffffffffffffffffffffff1683610f7a565b6107378683866111fb565b610742868686610f7a565b6001925050509392505050565b60006012905090565b6000816000610765610d79565b905081610771826108a5565b10156107b2576040517f08c379a00000000000000000000000000000000000000000000000000000000081526004016107a99061182c565b60405180910390fd5b6107bc8183610d81565b6107fb576040517f08c379a00000000000000000000000000000000000000000000000000000000081526004016107f29061188c565b60405180910390fd5b6000610805610d79565b9050610810856109eb565b600660008373ffffffffffffffffffffffffffffffffffffffff1673ffffffffffffffffffffffffffffffffffffffff168152602001908152602001600020600082825461085e919061193e565b92505081905550610884818787610875858b610ca9565b61087f919061193e565b610daf565b6001935050505092915050565b6108a261089c610d79565b82611287565b50565b60008060008373ffffffffffffffffffffffffffffffffffffffff1673ffffffffffffffffffffffffffffffffffffffff168152602001908152602001600020549050919050565b6108ff826108f9610d79565b836111fb565b6109098282611287565b5050565b60606004805461091c90611adb565b80601f016020809104026020016040519081016040528092919081815260200182805461094890611adb565b80156109955780601f1061096a57610100808354040283529160200191610995565b820191906000526020600020905b81548152906001019060200180831161097857829003601f168201915b5050505050905090565b6000600760008373ffffffffffffffffffffffffffffffffffffffff1673ffffffffffffffffffffffffffffffffffffffff168152602001908152602001600020600101549050919050565b6000612710600560009054906101000a900461ffff1661ffff1683610a1091906119c5565b610a1a9190611994565b9050919050565b600080610a2c610d79565b90506000610a3a8286610ca9565b905083811015610a7f576040517f08c379a0000000000000000000000000000000000000000000000000000000008152600401610a76906118cc565b60405180910390fd5b610a88846109eb565b600660008473ffffffffffffffffffffffffffffffffffffffff1673ffffffffffffffffffffffffffffffffffffffff16815260200190815260200160002060008282540392505081905550610ae18286868403610daf565b60019250505092915050565b6000816000610afa610d79565b905081610b06826108a5565b1015610b47576040517f08c379a0000000000000000000000000000000000000000000000000000000008152600401610b3e9061182c565b60405180910390fd5b610b518183610d81565b610b90576040517f08c379a0000000000000000000000000000000000000000000000000000000008152600401610b879061188c565b60405180910390fd5b6000610b9a610d79565b90506000610ba7866109eb565b905080600760008473ffffffffffffffffffffffffffffffffffffffff1673ffffffffffffffffffffffffffffffffffffffff1681526020019081526020016000206000016000828254610bfb919061193e565b9250508190555085600760008473ffffffffffffffffffffffffffffffffffffffff1673ffffffffffffffffffffffffffffffffffffffff1681526020019081526020016000206001016000828254610c54919061193e565b92505081905550610c9082600560029054906101000a900473ffffffffffffffffffffffffffffffffffffffff16610c8b896109eb565b610f7a565b610c9b828888610f7a565b600194505050505092915050565b6000600160008473ffffffffffffffffffffffffffffffffffffffff1673ffffffffffffffffffffffffffffffffffffffff16815260200190815260200160002060008373ffffffffffffffffffffffffffffffffffffffff1673ffffffffffffffffffffffffffffffffffffffff16815260200190815260200160002054905092915050565b6000600660008373ffffffffffffffffffffffffffffffffffffffff1673ffffffffffffffffffffffffffffffffffffffff168152602001908152602001600020549050919050565b600033905090565b600080610d8d836109eb565b83610d98919061193e565b905080610da4856108a5565b101591505092915050565b600073ffffffffffffffffffffffffffffffffffffffff168373ffffffffffffffffffffffffffffffffffffffff161415610e1f576040517f08c379a0000000000000000000000000000000000000000000000000000000008152600401610e16906118ac565b60405180910390fd5b600073ffffffffffffffffffffffffffffffffffffffff168273ffffffffffffffffffffffffffffffffffffffff161415610e8f576040517f08c379a0000000000000000000000000000000000000000000000000000000008152600401610e86906117ec565b60405180910390fd5b80600160008573ffffffffffffffffffffffffffffffffffffffff1673ffffffffffffffffffffffffffffffffffffffff16815260200190815260200160002060008473ffffffffffffffffffffffffffffffffffffffff1673ffffffffffffffffffffffffffffffffffffffff168152602001908152602001600020819055508173ffffffffffffffffffffffffffffffffffffffff168373ffffffffffffffffffffffffffffffffffffffff167f8c5be1e5ebec7d5bd14f71427d1e84f3dd0314c0f7b2291e5b200ac8c7c3b92583604051610f6d91906118ec565b60405180910390a3505050565b600073ffffffffffffffffffffffffffffffffffffffff168373ffffffffffffffffffffffffffffffffffffffff161415610fea576040517f08c379a0000000000000000000000000000000000000000000000000000000008152600401610fe19061186c565b60405180910390fd5b600073ffffffffffffffffffffffffffffffffffffffff168273ffffffffffffffffffffffffffffffffffffffff16141561105a576040517f08c379a0000000000000000000000000000000000000000000000000000000008152600401611051906117ac565b60405180910390fd5b61106583838361145e565b60008060008573ffffffffffffffffffffffffffffffffffffffff1673ffffffffffffffffffffffffffffffffffffffff168152602001908152602001600020549050818110156110eb576040517f08c379a00000000000000000000000000000000000000000000000000000000081526004016110e29061182c565b60405180910390fd5b8181036000808673ffffffffffffffffffffffffffffffffffffffff1673ffffffffffffffffffffffffffffffffffffffff16815260200190815260200160002081905550816000808573ffffffffffffffffffffffffffffffffffffffff1673ffffffffffffffffffffffffffffffffffffffff168152602001908152602001600020600082825461117e919061193e565b925050819055508273ffffffffffffffffffffffffffffffffffffffff168473ffffffffffffffffffffffffffffffffffffffff167fddf252ad1be2c89b69c2b068fc378daa952ba7f163c4a11628f55a4df523b3ef846040516111e291906118ec565b60405180910390a36111f5848484611463565b50505050565b60006112078484610ca9565b90507fffffffffffffffffffffffffffffffffffffffffffffffffffffffffffffffff81146112815781811015611273576040517f08c379a000000000000000000000000000000000000000000000000000000000815260040161126a9061180c565b60405180910390fd5b6112808484848403610daf565b5b50505050565b600073ffffffffffffffffffffffffffffffffffffffff168273ffffffffffffffffffffffffffffffffffffffff1614156112f7576040517f08c379a00000000000000000000000000000000000000000000000000000000081526004016112ee9061184c565b60405180910390fd5b6113038260008361145e565b60008060008473ffffffffffffffffffffffffffffffffffffffff1673ffffffffffffffffffffffffffffffffffffffff16815260200190815260200160002054905081811015611389576040517f08c379a0000000000000000000000000000000000000000000000000000000008152600401611380906117cc565b60405180910390fd5b8181036000808573ffffffffffffffffffffffffffffffffffffffff1673ffffffffffffffffffffffffffffffffffffffff1681526020019081526020016000208190555081600260008282546113e09190611a1f565b92505081905550600073ffffffffffffffffffffffffffffffffffffffff168373ffffffffffffffffffffffffffffffffffffffff167fddf252ad1be2c89b69c2b068fc378daa952ba7f163c4a11628f55a4df523b3ef8460405161144591906118ec565b60405180910390a361145983600084611463565b505050565b505050565b505050565b60008135905061147781611e75565b92915050565b60008135905061148c81611e8c565b92915050565b6000602082840312156114a457600080fd5b60006114b284828501611468565b91505092915050565b600080604083850312156114ce57600080fd5b60006114dc85828601611468565b92505060206114ed85828601611468565b9150509250929050565b60008060006060848603121561150c57600080fd5b600061151a86828701611468565b935050602061152b86828701611468565b925050604061153c8682870161147d565b9150509250925092565b6000806040838503121561155957600080fd5b600061156785828601611468565b92505060206115788582860161147d565b9150509250929050565b60006020828403121561159457600080fd5b60006115a28482850161147d565b91505092915050565b6115b481611a65565b82525050565b60006115c582611922565b6115cf818561192d565b93506115df818560208601611aa8565b6115e881611b9a565b840191505092915050565b600061160060238361192d565b915061160b82611bab565b604082019050919050565b600061162360228361192d565b915061162e82611bfa565b604082019050919050565b600061164660228361192d565b915061165182611c49565b604082019050919050565b6000611669601d8361192d565b915061167482611c98565b602082019050919050565b600061168c60268361192d565b915061169782611cc1565b604082019050919050565b60006116af60218361192d565b91506116ba82611d10565b604082019050919050565b60006116d260258361192d565b91506116dd82611d5f565b604082019050919050565b60006116f560208361192d565b915061170082611dae565b602082019050919050565b600061171860248361192d565b915061172382611dd7565b604082019050919050565b600061173b60258361192d565b915061174682611e26565b604082019050919050565b61175a81611a91565b82525050565b61176981611a9b565b82525050565b600060208201905061178460008301846115ab565b92915050565b600060208201905081810360008301526117a481846115ba565b905092915050565b600060208201905081810360008301526117c5816115f3565b9050919050565b600060208201905081810360008301526117e581611616565b9050919050565b6000602082019050818103600083015261180581611639565b9050919050565b600060208201905081810360008301526118258161165c565b9050919050565b600060208201905081810360008301526118458161167f565b9050919050565b60006020820190508181036000830152611865816116a2565b9050919050565b60006020820190508181036000830152611885816116c5565b9050919050565b600060208201905081810360008301526118a5816116e8565b9050919050565b600060208201905081810360008301526118c58161170b565b9050919050565b600060208201905081810360008301526118e58161172e565b9050919050565b60006020820190506119016000830184611751565b92915050565b600060208201905061191c6000830184611760565b92915050565b600081519050919050565b600082825260208201905092915050565b600061194982611a91565b915061195483611a91565b9250827fffffffffffffffffffffffffffffffffffffffffffffffffffffffffffffffff0382111561198957611988611b0d565b5b828201905092915050565b600061199f82611a91565b91506119aa83611a91565b9250826119ba576119b9611b3c565b5b828204905092915050565b60006119d082611a91565b91506119db83611a91565b9250817fffffffffffffffffffffffffffffffffffffffffffffffffffffffffffffffff0483118215151615611a1457611a13611b0d565b5b828202905092915050565b6000611a2a82611a91565b9150611a3583611a91565b925082821015611a4857611a47611b0d565b5b828203905092915050565b6000611a5e82611a71565b9050919050565b60008115159050919050565b600073ffffffffffffffffffffffffffffffffffffffff82169050919050565b6000819050919050565b600060ff82169050919050565b60005b83811015611ac6578082015181840152602081019050611aab565b83811115611ad5576000848401525b50505050565b60006002820490506001821680611af357607f821691505b60208210811415611b0757611b06611b6b565b5b50919050565b7f4e487b7100000000000000000000000000000000000000000000000000000000600052601160045260246000fd5b7f4e487b7100000000000000000000000000000000000000000000000000000000600052601260045260246000fd5b7f4e487b7100000000000000000000000000000000000000000000000000000000600052602260045260246000fd5b6000601f19601f8301169050919050565b7f45524332303a207472616e7366657220746f20746865207a65726f206164647260008201527f6573730000000000000000000000000000000000000000000000000000000000602082015250565b7f45524332303a206275726e20616d6f756e7420657863656564732062616c616e60008201527f6365000000000000000000000000000000000000000000000000000000000000602082015250565b7f45524332303a20617070726f766520746f20746865207a65726f20616464726560008201527f7373000000000000000000000000000000000000000000000000000000000000602082015250565b7f45524332303a20696e73756666696369656e7420616c6c6f77616e6365000000600082015250565b7f45524332303a207472616e7366657220616d6f756e742065786365656473206260008201527f616c616e63650000000000000000000000000000000000000000000000000000602082015250565b7f45524332303a206275726e2066726f6d20746865207a65726f2061646472657360008201527f7300000000000000000000000000000000000000000000000000000000000000602082015250565b7f45524332303a207472616e736665722066726f6d20746865207a65726f20616460008201527f6472657373000000000000000000000000000000000000000000000000000000602082015250565b7f434f4d524144453a2043616e6e6f74207061792070726f746f636f6c20666565600082015250565b7f45524332303a20617070726f76652066726f6d20746865207a65726f2061646460008201527f7265737300000000000000000000000000000000000000000000000000000000602082015250565b7f45524332303a2064656372656173656420616c6c6f77616e63652062656c6f7760008201527f207a65726f000000000000000000000000000000000000000000000000000000602082015250565b611e7e81611a53565b8114611e8957600080fd5b50565b611e9581611a91565b8114611ea057600080fd5b5056fea26469706673582212205532136adefecbbd7172c581450919b2895c1ee5fc6d00dbbb0ca10b76cd811c64736f6c63430008040033",
  "linkReferences": {},
  "deployedLinkReferences": {}
}