{
  "_format": "hh-sol-artifact-1",
  "contractName": "ComradeToken",
  "sourceName": "contracts/ComradeToken.sol",
  "abi": [
    {
      "inputs": [
        {
          "internalType": "uint16",
          "name": "_protocolPerc",
          "type": "uint16"
        },
        {
          "internalType": "address payable",
          "name": "_protocolWallet",
          "type": "address"
        },
        {
          "internalType": "string",
          "name": "_tokenName",
          "type": "string"
        },
        {
          "internalType": "string",
          "name": "_tokenSymbol",
          "type": "string"
        }
      ],
      "stateMutability": "nonpayable",
      "type": "constructor"
    },
    {
      "anonymous": false,
      "inputs": [
        {
          "indexed": true,
          "internalType": "address",
          "name": "owner",
          "type": "address"
        },
        {
          "indexed": true,
          "internalType": "address",
          "name": "spender",
          "type": "address"
        },
        {
          "indexed": false,
          "internalType": "uint256",
          "name": "value",
          "type": "uint256"
        }
      ],
      "name": "Approval",
      "type": "event"
    },
    {
      "anonymous": false,
      "inputs": [
        {
          "indexed": true,
          "internalType": "address",
          "name": "from",
          "type": "address"
        },
        {
          "indexed": true,
          "internalType": "address",
          "name": "to",
          "type": "address"
        },
        {
          "indexed": false,
          "internalType": "uint256",
          "name": "value",
          "type": "uint256"
        }
      ],
      "name": "Transfer",
      "type": "event"
    },
    {
      "inputs": [
        {
          "internalType": "address",
          "name": "owner",
          "type": "address"
        },
        {
          "internalType": "address",
          "name": "spender",
          "type": "address"
        }
      ],
      "name": "allowance",
      "outputs": [
        {
          "internalType": "uint256",
          "name": "",
          "type": "uint256"
        }
      ],
      "stateMutability": "view",
      "type": "function"
    },
    {
      "inputs": [
        {
          "internalType": "address",
          "name": "_spender",
          "type": "address"
        },
        {
          "internalType": "uint256",
          "name": "_amount",
          "type": "uint256"
        }
      ],
      "name": "approve",
      "outputs": [
        {
          "internalType": "bool",
          "name": "",
          "type": "bool"
        }
      ],
      "stateMutability": "nonpayable",
      "type": "function"
    },
    {
      "inputs": [
        {
          "internalType": "address",
          "name": "account",
          "type": "address"
        }
      ],
      "name": "balanceOf",
      "outputs": [
        {
          "internalType": "uint256",
          "name": "",
          "type": "uint256"
        }
      ],
      "stateMutability": "view",
      "type": "function"
    },
    {
      "inputs": [
        {
          "internalType": "uint256",
          "name": "amount",
          "type": "uint256"
        }
      ],
      "name": "burn",
      "outputs": [],
      "stateMutability": "nonpayable",
      "type": "function"
    },
    {
      "inputs": [
        {
          "internalType": "address",
          "name": "account",
          "type": "address"
        },
        {
          "internalType": "uint256",
          "name": "amount",
          "type": "uint256"
        }
      ],
      "name": "burnFrom",
      "outputs": [],
      "stateMutability": "nonpayable",
      "type": "function"
    },
    {
      "inputs": [
        {
          "internalType": "uint256",
          "name": "_amount",
          "type": "uint256"
        }
      ],
      "name": "calculateProtocolFee",
      "outputs": [
        {
          "internalType": "uint256",
          "name": "",
          "type": "uint256"
        }
      ],
      "stateMutability": "view",
      "type": "function"
    },
    {
      "inputs": [],
      "name": "decimals",
      "outputs": [
        {
          "internalType": "uint8",
          "name": "",
          "type": "uint8"
        }
      ],
      "stateMutability": "view",
      "type": "function"
    },
    {
      "inputs": [
        {
          "internalType": "address",
          "name": "_spender",
          "type": "address"
        },
        {
          "internalType": "uint256",
          "name": "_subtractedValue",
          "type": "uint256"
        }
      ],
      "name": "decreaseAllowance",
      "outputs": [
        {
          "internalType": "bool",
          "name": "",
          "type": "bool"
        }
      ],
      "stateMutability": "nonpayable",
      "type": "function"
    },
    {
      "inputs": [
        {
          "internalType": "address",
          "name": "_user",
          "type": "address"
        }
      ],
      "name": "getAllowanceHolding",
      "outputs": [
        {
          "internalType": "uint256",
          "name": "",
          "type": "uint256"
        }
      ],
      "stateMutability": "view",
      "type": "function"
    },
    {
      "inputs": [
        {
          "internalType": "address",
          "name": "_spender",
          "type": "address"
        },
        {
          "internalType": "uint256",
          "name": "_addedValue",
          "type": "uint256"
        }
      ],
      "name": "increaseAllowance",
      "outputs": [
        {
          "internalType": "bool",
          "name": "",
          "type": "bool"
        }
      ],
      "stateMutability": "nonpayable",
      "type": "function"
    },
    {
      "inputs": [],
      "name": "name",
      "outputs": [
        {
          "internalType": "string",
          "name": "",
          "type": "string"
        }
      ],
      "stateMutability": "view",
      "type": "function"
    },
    {
      "inputs": [],
      "name": "symbol",
      "outputs": [
        {
          "internalType": "string",
          "name": "",
          "type": "string"
        }
      ],
      "stateMutability": "view",
      "type": "function"
    },
    {
      "inputs": [],
      "name": "totalSupply",
      "outputs": [
        {
          "internalType": "uint256",
          "name": "",
          "type": "uint256"
        }
      ],
      "stateMutability": "view",
      "type": "function"
    },
    {
      "inputs": [
        {
          "internalType": "address",
          "name": "_to",
          "type": "address"
        },
        {
          "internalType": "uint256",
          "name": "_amount",
          "type": "uint256"
        }
      ],
      "name": "transfer",
      "outputs": [
        {
          "internalType": "bool",
          "name": "",
          "type": "bool"
        }
      ],
      "stateMutability": "nonpayable",
      "type": "function"
    },
    {
      "inputs": [
        {
          "internalType": "address",
          "name": "_from",
          "type": "address"
        },
        {
          "internalType": "address",
          "name": "_to",
          "type": "address"
        },
        {
          "internalType": "uint256",
          "name": "_amount",
          "type": "uint256"
        }
      ],
      "name": "transferFrom",
      "outputs": [
        {
          "internalType": "bool",
          "name": "",
          "type": "bool"
        }
      ],
      "stateMutability": "nonpayable",
      "type": "function"
    }
  ],
  "bytecode": "0x60806040523480156200001157600080fd5b5060405162002638380380620026388339818101604052810190620000379190620003f1565b8181816003908051906020019062000051929190620002a1565b5080600490805190602001906200006a929190620002a1565b505050620000ad33620000826200011560201b60201c565b60126200009091906200062e565b633b9aca00620000a191906200076b565b6200011e60201b60201c565b83600560006101000a81548161ffff021916908361ffff16021790555082600560026101000a81548173ffffffffffffffffffffffffffffffffffffffff021916908373ffffffffffffffffffffffffffffffffffffffff16021790555050505050620009cf565b60006012905090565b600073ffffffffffffffffffffffffffffffffffffffff168273ffffffffffffffffffffffffffffffffffffffff16141562000191576040517f08c379a00000000000000000000000000000000000000000000000000000000081526004016200018890620004c7565b60405180910390fd5b620001a5600083836200029760201b60201c565b8060026000828254620001b9919062000576565b92505081905550806000808473ffffffffffffffffffffffffffffffffffffffff1673ffffffffffffffffffffffffffffffffffffffff168152602001908152602001600020600082825462000210919062000576565b925050819055508173ffffffffffffffffffffffffffffffffffffffff16600073ffffffffffffffffffffffffffffffffffffffff167fddf252ad1be2c89b69c2b068fc378daa952ba7f163c4a11628f55a4df523b3ef83604051620002779190620004e9565b60405180910390a362000293600083836200029c60201b60201c565b5050565b505050565b505050565b828054620002af906200085b565b90600052602060002090601f016020900481019282620002d357600085556200031f565b82601f10620002ee57805160ff19168380011785556200031f565b828001600101855582156200031f579182015b828111156200031e57825182559160200191906001019062000301565b5b5090506200032e919062000332565b5090565b5b808211156200034d57600081600090555060010162000333565b5090565b60006200036862000362846200052f565b62000506565b9050828152602081018484840111156200038157600080fd5b6200038e84828562000825565b509392505050565b600081519050620003a7816200099b565b92915050565b600082601f830112620003bf57600080fd5b8151620003d184826020860162000351565b91505092915050565b600081519050620003eb81620009b5565b92915050565b600080600080608085870312156200040857600080fd5b60006200041887828801620003da565b94505060206200042b8782880162000396565b935050604085015167ffffffffffffffff8111156200044957600080fd5b6200045787828801620003ad565b925050606085015167ffffffffffffffff8111156200047557600080fd5b6200048387828801620003ad565b91505092959194509250565b60006200049e601f8362000565565b9150620004ab8262000972565b602082019050919050565b620004c1816200080e565b82525050565b60006020820190508181036000830152620004e2816200048f565b9050919050565b6000602082019050620005006000830184620004b6565b92915050565b60006200051262000525565b905062000520828262000891565b919050565b6000604051905090565b600067ffffffffffffffff8211156200054d576200054c62000925565b5b620005588262000954565b9050602081019050919050565b600082825260208201905092915050565b600062000583826200080e565b915062000590836200080e565b9250827fffffffffffffffffffffffffffffffffffffffffffffffffffffffffffffffff03821115620005c857620005c7620008c7565b5b828201905092915050565b6000808291508390505b60018511156200062557808604811115620005fd57620005fc620008c7565b5b60018516156200060d5780820291505b80810290506200061d8562000965565b9450620005dd565b94509492505050565b60006200063b826200080e565b9150620006488362000818565b9250620006777fffffffffffffffffffffffffffffffffffffffffffffffffffffffffffffffff84846200067f565b905092915050565b60008262000691576001905062000764565b81620006a1576000905062000764565b8160018114620006ba5760028114620006c557620006fb565b600191505062000764565b60ff841115620006da57620006d9620008c7565b5b8360020a915084821115620006f457620006f3620008c7565b5b5062000764565b5060208310610133831016604e8410600b8410161715620007355782820a9050838111156200072f576200072e620008c7565b5b62000764565b620007448484846001620005d3565b925090508184048111156200075e576200075d620008c7565b5b81810290505b9392505050565b600062000778826200080e565b915062000785836200080e565b9250817fffffffffffffffffffffffffffffffffffffffffffffffffffffffffffffffff0483118215151615620007c157620007c0620008c7565b5b828202905092915050565b6000620007d982620007ee565b9050919050565b600061ffff82169050919050565b600073ffffffffffffffffffffffffffffffffffffffff82169050919050565b6000819050919050565b600060ff82169050919050565b60005b838110156200084557808201518184015260208101905062000828565b8381111562000855576000848401525b50505050565b600060028204905060018216806200087457607f821691505b602082108114156200088b576200088a620008f6565b5b50919050565b6200089c8262000954565b810181811067ffffffffffffffff82111715620008be57620008bd62000925565b5b80604052505050565b7f4e487b7100000000000000000000000000000000000000000000000000000000600052601160045260246000fd5b7f4e487b7100000000000000000000000000000000000000000000000000000000600052602260045260246000fd5b7f4e487b7100000000000000000000000000000000000000000000000000000000600052604160045260246000fd5b6000601f19601f8301169050919050565b60008160011c9050919050565b7f45524332303a206d696e7420746f20746865207a65726f206164647265737300600082015250565b620009a681620007cc565b8114620009b257600080fd5b50565b620009c081620007e0565b8114620009cc57600080fd5b50565b611c5980620009df6000396000f3fe608060405234801561001057600080fd5b50600436106100f55760003560e01c806370a0823111610097578063a457c2d711610066578063a457c2d71461029a578063a9059cbb146102ca578063dd62ed3e146102fa578063ed8456661461032a576100f5565b806370a082311461020057806379cc67901461023057806395d89b411461024c5780639c7c270c1461026a576100f5565b806323b872dd116100d357806323b872dd14610166578063313ce5671461019657806339509351146101b457806342966c68146101e4576100f5565b806306fdde03146100fa578063095ea7b31461011857806318160ddd14610148575b600080fd5b61010261035a565b60405161010f919061150a565b60405180910390f35b610132600480360381019061012d91906112c6565b6103ec565b60405161013f91906114ef565b60405180910390f35b610150610511565b60405161015d919061166c565b60405180910390f35b610180600480360381019061017b9190611277565b61051b565b60405161018d91906114ef565b60405180910390f35b61019e6105db565b6040516101ab9190611687565b60405180910390f35b6101ce60048036038101906101c991906112c6565b6105e4565b6040516101db91906114ef565b60405180910390f35b6101fe60048036038101906101f99190611302565b61071d565b005b61021a60048036038101906102159190611212565b610731565b604051610227919061166c565b60405180910390f35b61024a600480360381019061024591906112c6565b610779565b005b610254610799565b604051610261919061150a565b60405180910390f35b610284600480360381019061027f9190611302565b61082b565b604051610291919061166c565b60405180910390f35b6102b460048036038101906102af91906112c6565b610861565b6040516102c191906114ef565b60405180910390f35b6102e460048036038101906102df91906112c6565b61092d565b6040516102f191906114ef565b60405180910390f35b610314600480360381019061030f919061123b565b610a29565b604051610321919061166c565b60405180910390f35b610344600480360381019061033f9190611212565b610ab0565b604051610351919061166c565b60405180910390f35b6060600380546103699061185b565b80601f01602080910402602001604051908101604052809291908181526020018280546103959061185b565b80156103e25780601f106103b7576101008083540402835291602001916103e2565b820191906000526020600020905b8154815290600101906020018083116103c557829003601f168201915b5050505050905090565b60008160006103f9610af9565b90508161040582610731565b1015610446576040517f08c379a000000000000000000000000000000000000000000000000000000000815260040161043d906115ac565b60405180910390fd5b6104508183610b01565b61048f576040517f08c379a00000000000000000000000000000000000000000000000000000000081526004016104869061160c565b60405180910390fd5b6000610499610af9565b90506104a48561082b565b600660008373ffffffffffffffffffffffffffffffffffffffff1673ffffffffffffffffffffffffffffffffffffffff16815260200190815260200160002060008282546104f291906116be565b92505081905550610504818787610b2f565b6001935050505092915050565b6000600254905090565b600080610526610af9565b905060006105338461082b565b905061056286600560029054906101000a900473ffffffffffffffffffffffffffffffffffffffff1683610cfa565b80600660008873ffffffffffffffffffffffffffffffffffffffff1673ffffffffffffffffffffffffffffffffffffffff16815260200190815260200160002060008282546105b1919061179f565b925050819055506105c3868386610f7b565b6105ce868686610cfa565b6001925050509392505050565b60006012905090565b60008160006105f1610af9565b9050816105fd82610731565b101561063e576040517f08c379a0000000000000000000000000000000000000000000000000000000008152600401610635906115ac565b60405180910390fd5b6106488183610b01565b610687576040517f08c379a000000000000000000000000000000000000000000000000000000000815260040161067e9061160c565b60405180910390fd5b6000610691610af9565b905061069c8561082b565b600660008373ffffffffffffffffffffffffffffffffffffffff1673ffffffffffffffffffffffffffffffffffffffff16815260200190815260200160002060008282546106ea91906116be565b92505081905550610710818787610701858b610a29565b61070b91906116be565b610b2f565b6001935050505092915050565b61072e610728610af9565b82611007565b50565b60008060008373ffffffffffffffffffffffffffffffffffffffff1673ffffffffffffffffffffffffffffffffffffffff168152602001908152602001600020549050919050565b61078b82610785610af9565b83610f7b565b6107958282611007565b5050565b6060600480546107a89061185b565b80601f01602080910402602001604051908101604052809291908181526020018280546107d49061185b565b80156108215780601f106107f657610100808354040283529160200191610821565b820191906000526020600020905b81548152906001019060200180831161080457829003601f168201915b5050505050905090565b6000612710600560009054906101000a900461ffff1661ffff16836108509190611745565b61085a9190611714565b9050919050565b60008061086c610af9565b9050600061087a8286610a29565b9050838110156108bf576040517f08c379a00000000000000000000000000000000000000000000000000000000081526004016108b69061164c565b60405180910390fd5b6108c88461082b565b600660008473ffffffffffffffffffffffffffffffffffffffff1673ffffffffffffffffffffffffffffffffffffffff168152602001908152602001600020600082825403925050819055506109218286868403610b2f565b60019250505092915050565b600081600061093a610af9565b90508161094682610731565b1015610987576040517f08c379a000000000000000000000000000000000000000000000000000000000815260040161097e906115ac565b60405180910390fd5b6109918183610b01565b6109d0576040517f08c379a00000000000000000000000000000000000000000000000000000000081526004016109c79061160c565b60405180910390fd5b60006109da610af9565b9050610a1181600560029054906101000a900473ffffffffffffffffffffffffffffffffffffffff16610a0c8861082b565b610cfa565b610a1c818787610cfa565b6001935050505092915050565b6000600160008473ffffffffffffffffffffffffffffffffffffffff1673ffffffffffffffffffffffffffffffffffffffff16815260200190815260200160002060008373ffffffffffffffffffffffffffffffffffffffff1673ffffffffffffffffffffffffffffffffffffffff16815260200190815260200160002054905092915050565b6000600660008373ffffffffffffffffffffffffffffffffffffffff1673ffffffffffffffffffffffffffffffffffffffff168152602001908152602001600020549050919050565b600033905090565b600080610b0d8361082b565b83610b1891906116be565b905080610b2485610731565b101591505092915050565b600073ffffffffffffffffffffffffffffffffffffffff168373ffffffffffffffffffffffffffffffffffffffff161415610b9f576040517f08c379a0000000000000000000000000000000000000000000000000000000008152600401610b969061162c565b60405180910390fd5b600073ffffffffffffffffffffffffffffffffffffffff168273ffffffffffffffffffffffffffffffffffffffff161415610c0f576040517f08c379a0000000000000000000000000000000000000000000000000000000008152600401610c069061156c565b60405180910390fd5b80600160008573ffffffffffffffffffffffffffffffffffffffff1673ffffffffffffffffffffffffffffffffffffffff16815260200190815260200160002060008473ffffffffffffffffffffffffffffffffffffffff1673ffffffffffffffffffffffffffffffffffffffff168152602001908152602001600020819055508173ffffffffffffffffffffffffffffffffffffffff168373ffffffffffffffffffffffffffffffffffffffff167f8c5be1e5ebec7d5bd14f71427d1e84f3dd0314c0f7b2291e5b200ac8c7c3b92583604051610ced919061166c565b60405180910390a3505050565b600073ffffffffffffffffffffffffffffffffffffffff168373ffffffffffffffffffffffffffffffffffffffff161415610d6a576040517f08c379a0000000000000000000000000000000000000000000000000000000008152600401610d61906115ec565b60405180910390fd5b600073ffffffffffffffffffffffffffffffffffffffff168273ffffffffffffffffffffffffffffffffffffffff161415610dda576040517f08c379a0000000000000000000000000000000000000000000000000000000008152600401610dd19061152c565b60405180910390fd5b610de58383836111de565b60008060008573ffffffffffffffffffffffffffffffffffffffff1673ffffffffffffffffffffffffffffffffffffffff16815260200190815260200160002054905081811015610e6b576040517f08c379a0000000000000000000000000000000000000000000000000000000008152600401610e62906115ac565b60405180910390fd5b8181036000808673ffffffffffffffffffffffffffffffffffffffff1673ffffffffffffffffffffffffffffffffffffffff16815260200190815260200160002081905550816000808573ffffffffffffffffffffffffffffffffffffffff1673ffffffffffffffffffffffffffffffffffffffff1681526020019081526020016000206000828254610efe91906116be565b925050819055508273ffffffffffffffffffffffffffffffffffffffff168473ffffffffffffffffffffffffffffffffffffffff167fddf252ad1be2c89b69c2b068fc378daa952ba7f163c4a11628f55a4df523b3ef84604051610f62919061166c565b60405180910390a3610f758484846111e3565b50505050565b6000610f878484610a29565b90507fffffffffffffffffffffffffffffffffffffffffffffffffffffffffffffffff81146110015781811015610ff3576040517f08c379a0000000000000000000000000000000000000000000000000000000008152600401610fea9061158c565b60405180910390fd5b6110008484848403610b2f565b5b50505050565b600073ffffffffffffffffffffffffffffffffffffffff168273ffffffffffffffffffffffffffffffffffffffff161415611077576040517f08c379a000000000000000000000000000000000000000000000000000000000815260040161106e906115cc565b60405180910390fd5b611083826000836111de565b60008060008473ffffffffffffffffffffffffffffffffffffffff1673ffffffffffffffffffffffffffffffffffffffff16815260200190815260200160002054905081811015611109576040517f08c379a00000000000000000000000000000000000000000000000000000000081526004016111009061154c565b60405180910390fd5b8181036000808573ffffffffffffffffffffffffffffffffffffffff1673ffffffffffffffffffffffffffffffffffffffff168152602001908152602001600020819055508160026000828254611160919061179f565b92505081905550600073ffffffffffffffffffffffffffffffffffffffff168373ffffffffffffffffffffffffffffffffffffffff167fddf252ad1be2c89b69c2b068fc378daa952ba7f163c4a11628f55a4df523b3ef846040516111c5919061166c565b60405180910390a36111d9836000846111e3565b505050565b505050565b505050565b6000813590506111f781611bf5565b92915050565b60008135905061120c81611c0c565b92915050565b60006020828403121561122457600080fd5b6000611232848285016111e8565b91505092915050565b6000806040838503121561124e57600080fd5b600061125c858286016111e8565b925050602061126d858286016111e8565b9150509250929050565b60008060006060848603121561128c57600080fd5b600061129a868287016111e8565b93505060206112ab868287016111e8565b92505060406112bc868287016111fd565b9150509250925092565b600080604083850312156112d957600080fd5b60006112e7858286016111e8565b92505060206112f8858286016111fd565b9150509250929050565b60006020828403121561131457600080fd5b6000611322848285016111fd565b91505092915050565b611334816117e5565b82525050565b6000611345826116a2565b61134f81856116ad565b935061135f818560208601611828565b6113688161191a565b840191505092915050565b60006113806023836116ad565b915061138b8261192b565b604082019050919050565b60006113a36022836116ad565b91506113ae8261197a565b604082019050919050565b60006113c66022836116ad565b91506113d1826119c9565b604082019050919050565b60006113e9601d836116ad565b91506113f482611a18565b602082019050919050565b600061140c6026836116ad565b915061141782611a41565b604082019050919050565b600061142f6021836116ad565b915061143a82611a90565b604082019050919050565b60006114526025836116ad565b915061145d82611adf565b604082019050919050565b60006114756020836116ad565b915061148082611b2e565b602082019050919050565b60006114986024836116ad565b91506114a382611b57565b604082019050919050565b60006114bb6025836116ad565b91506114c682611ba6565b604082019050919050565b6114da81611811565b82525050565b6114e98161181b565b82525050565b6000602082019050611504600083018461132b565b92915050565b60006020820190508181036000830152611524818461133a565b905092915050565b6000602082019050818103600083015261154581611373565b9050919050565b6000602082019050818103600083015261156581611396565b9050919050565b60006020820190508181036000830152611585816113b9565b9050919050565b600060208201905081810360008301526115a5816113dc565b9050919050565b600060208201905081810360008301526115c5816113ff565b9050919050565b600060208201905081810360008301526115e581611422565b9050919050565b6000602082019050818103600083015261160581611445565b9050919050565b6000602082019050818103600083015261162581611468565b9050919050565b600060208201905081810360008301526116458161148b565b9050919050565b60006020820190508181036000830152611665816114ae565b9050919050565b600060208201905061168160008301846114d1565b92915050565b600060208201905061169c60008301846114e0565b92915050565b600081519050919050565b600082825260208201905092915050565b60006116c982611811565b91506116d483611811565b9250827fffffffffffffffffffffffffffffffffffffffffffffffffffffffffffffffff038211156117095761170861188d565b5b828201905092915050565b600061171f82611811565b915061172a83611811565b92508261173a576117396118bc565b5b828204905092915050565b600061175082611811565b915061175b83611811565b9250817fffffffffffffffffffffffffffffffffffffffffffffffffffffffffffffffff04831182151516156117945761179361188d565b5b828202905092915050565b60006117aa82611811565b91506117b583611811565b9250828210156117c8576117c761188d565b5b828203905092915050565b60006117de826117f1565b9050919050565b60008115159050919050565b600073ffffffffffffffffffffffffffffffffffffffff82169050919050565b6000819050919050565b600060ff82169050919050565b60005b8381101561184657808201518184015260208101905061182b565b83811115611855576000848401525b50505050565b6000600282049050600182168061187357607f821691505b60208210811415611887576118866118eb565b5b50919050565b7f4e487b7100000000000000000000000000000000000000000000000000000000600052601160045260246000fd5b7f4e487b7100000000000000000000000000000000000000000000000000000000600052601260045260246000fd5b7f4e487b7100000000000000000000000000000000000000000000000000000000600052602260045260246000fd5b6000601f19601f8301169050919050565b7f45524332303a207472616e7366657220746f20746865207a65726f206164647260008201527f6573730000000000000000000000000000000000000000000000000000000000602082015250565b7f45524332303a206275726e20616d6f756e7420657863656564732062616c616e60008201527f6365000000000000000000000000000000000000000000000000000000000000602082015250565b7f45524332303a20617070726f766520746f20746865207a65726f20616464726560008201527f7373000000000000000000000000000000000000000000000000000000000000602082015250565b7f45524332303a20696e73756666696369656e7420616c6c6f77616e6365000000600082015250565b7f45524332303a207472616e7366657220616d6f756e742065786365656473206260008201527f616c616e63650000000000000000000000000000000000000000000000000000602082015250565b7f45524332303a206275726e2066726f6d20746865207a65726f2061646472657360008201527f7300000000000000000000000000000000000000000000000000000000000000602082015250565b7f45524332303a207472616e736665722066726f6d20746865207a65726f20616460008201527f6472657373000000000000000000000000000000000000000000000000000000602082015250565b7f434f4d524144453a2043616e6e6f74207061792070726f746f636f6c20666565600082015250565b7f45524332303a20617070726f76652066726f6d20746865207a65726f2061646460008201527f7265737300000000000000000000000000000000000000000000000000000000602082015250565b7f45524332303a2064656372656173656420616c6c6f77616e63652062656c6f7760008201527f207a65726f000000000000000000000000000000000000000000000000000000602082015250565b611bfe816117d3565b8114611c0957600080fd5b50565b611c1581611811565b8114611c2057600080fd5b5056fea2646970667358221220a36800f8ce68644ed7bbad1c72efcfa02758cb3f7bf73e498654095adee9d11764736f6c63430008040033",
  "linkReferences": {},
  "deployedLinkReferences": {}
}