{
  "_format": "hh-sol-artifact-1",
  "contractName": "ComradeToken",
  "sourceName": "contracts/ComradeToken.sol",
  "abi": [
    {
      "inputs": [
        {
          "internalType": "uint16",
          "name": "_protocolPerc",
          "type": "uint16"
        },
        {
          "internalType": "address payable",
          "name": "_protocolWallet",
          "type": "address"
        },
        {
          "internalType": "string",
          "name": "_tokenName",
          "type": "string"
        },
        {
          "internalType": "string",
          "name": "_tokenSymbol",
          "type": "string"
        }
      ],
      "stateMutability": "nonpayable",
      "type": "constructor"
    },
    {
      "anonymous": false,
      "inputs": [
        {
          "indexed": true,
          "internalType": "address",
          "name": "owner",
          "type": "address"
        },
        {
          "indexed": true,
          "internalType": "address",
          "name": "spender",
          "type": "address"
        },
        {
          "indexed": false,
          "internalType": "uint256",
          "name": "value",
          "type": "uint256"
        }
      ],
      "name": "Approval",
      "type": "event"
    },
    {
      "anonymous": false,
      "inputs": [
        {
          "indexed": true,
          "internalType": "address",
          "name": "previousOwner",
          "type": "address"
        },
        {
          "indexed": true,
          "internalType": "address",
          "name": "newOwner",
          "type": "address"
        }
      ],
      "name": "OwnershipTransferred",
      "type": "event"
    },
    {
      "anonymous": false,
      "inputs": [
        {
          "indexed": true,
          "internalType": "address",
          "name": "from",
          "type": "address"
        },
        {
          "indexed": true,
          "internalType": "address",
          "name": "to",
          "type": "address"
        },
        {
          "indexed": false,
          "internalType": "uint256",
          "name": "value",
          "type": "uint256"
        }
      ],
      "name": "Transfer",
      "type": "event"
    },
    {
      "inputs": [
        {
          "internalType": "address",
          "name": "owner",
          "type": "address"
        },
        {
          "internalType": "address",
          "name": "spender",
          "type": "address"
        }
      ],
      "name": "allowance",
      "outputs": [
        {
          "internalType": "uint256",
          "name": "",
          "type": "uint256"
        }
      ],
      "stateMutability": "view",
      "type": "function"
    },
    {
      "inputs": [
        {
          "internalType": "address",
          "name": "_spender",
          "type": "address"
        },
        {
          "internalType": "uint256",
          "name": "_amount",
          "type": "uint256"
        }
      ],
      "name": "approve",
      "outputs": [
        {
          "internalType": "bool",
          "name": "",
          "type": "bool"
        }
      ],
      "stateMutability": "nonpayable",
      "type": "function"
    },
    {
      "inputs": [
        {
          "internalType": "address",
          "name": "account",
          "type": "address"
        }
      ],
      "name": "balanceOf",
      "outputs": [
        {
          "internalType": "uint256",
          "name": "",
          "type": "uint256"
        }
      ],
      "stateMutability": "view",
      "type": "function"
    },
    {
      "inputs": [
        {
          "internalType": "uint256",
          "name": "amount",
          "type": "uint256"
        }
      ],
      "name": "burn",
      "outputs": [],
      "stateMutability": "nonpayable",
      "type": "function"
    },
    {
      "inputs": [
        {
          "internalType": "address",
          "name": "account",
          "type": "address"
        },
        {
          "internalType": "uint256",
          "name": "amount",
          "type": "uint256"
        }
      ],
      "name": "burnFrom",
      "outputs": [],
      "stateMutability": "nonpayable",
      "type": "function"
    },
    {
      "inputs": [
        {
          "internalType": "uint256",
          "name": "_amount",
          "type": "uint256"
        }
      ],
      "name": "calculateProtocolFee",
      "outputs": [
        {
          "internalType": "uint256",
          "name": "",
          "type": "uint256"
        }
      ],
      "stateMutability": "view",
      "type": "function"
    },
    {
      "inputs": [],
      "name": "decimals",
      "outputs": [
        {
          "internalType": "uint8",
          "name": "",
          "type": "uint8"
        }
      ],
      "stateMutability": "view",
      "type": "function"
    },
    {
      "inputs": [
        {
          "internalType": "address",
          "name": "_spender",
          "type": "address"
        },
        {
          "internalType": "uint256",
          "name": "_subtractedValue",
          "type": "uint256"
        }
      ],
      "name": "decreaseAllowance",
      "outputs": [
        {
          "internalType": "bool",
          "name": "",
          "type": "bool"
        }
      ],
      "stateMutability": "nonpayable",
      "type": "function"
    },
    {
      "inputs": [
        {
          "internalType": "address",
          "name": "_user",
          "type": "address"
        }
      ],
      "name": "getAllowanceHolding",
      "outputs": [
        {
          "internalType": "uint256",
          "name": "",
          "type": "uint256"
        }
      ],
      "stateMutability": "view",
      "type": "function"
    },
    {
      "inputs": [],
      "name": "getProtocolPerc",
      "outputs": [
        {
          "internalType": "uint16",
          "name": "",
          "type": "uint16"
        }
      ],
      "stateMutability": "view",
      "type": "function"
    },
    {
      "inputs": [],
      "name": "getProtocolWallet",
      "outputs": [
        {
          "internalType": "address",
          "name": "",
          "type": "address"
        }
      ],
      "stateMutability": "view",
      "type": "function"
    },
    {
      "inputs": [
        {
          "internalType": "address",
          "name": "_user",
          "type": "address"
        }
      ],
      "name": "getTotalFeesPaid",
      "outputs": [
        {
          "internalType": "uint256",
          "name": "",
          "type": "uint256"
        }
      ],
      "stateMutability": "view",
      "type": "function"
    },
    {
      "inputs": [
        {
          "internalType": "address",
          "name": "_user",
          "type": "address"
        }
      ],
      "name": "getTotalTokensSent",
      "outputs": [
        {
          "internalType": "uint256",
          "name": "",
          "type": "uint256"
        }
      ],
      "stateMutability": "view",
      "type": "function"
    },
    {
      "inputs": [
        {
          "internalType": "address",
          "name": "_spender",
          "type": "address"
        },
        {
          "internalType": "uint256",
          "name": "_addedValue",
          "type": "uint256"
        }
      ],
      "name": "increaseAllowance",
      "outputs": [
        {
          "internalType": "bool",
          "name": "",
          "type": "bool"
        }
      ],
      "stateMutability": "nonpayable",
      "type": "function"
    },
    {
      "inputs": [],
      "name": "name",
      "outputs": [
        {
          "internalType": "string",
          "name": "",
          "type": "string"
        }
      ],
      "stateMutability": "view",
      "type": "function"
    },
    {
      "inputs": [],
      "name": "owner",
      "outputs": [
        {
          "internalType": "address",
          "name": "",
          "type": "address"
        }
      ],
      "stateMutability": "view",
      "type": "function"
    },
    {
      "inputs": [],
      "name": "renounceOwnership",
      "outputs": [],
      "stateMutability": "nonpayable",
      "type": "function"
    },
    {
      "inputs": [
        {
          "internalType": "uint16",
          "name": "_newProtocolPerc",
          "type": "uint16"
        }
      ],
      "name": "setProtocolPerc",
      "outputs": [],
      "stateMutability": "nonpayable",
      "type": "function"
    },
    {
      "inputs": [
        {
          "internalType": "address payable",
          "name": "_newProtocolWallet",
          "type": "address"
        }
      ],
      "name": "setProtocolWallet",
      "outputs": [],
      "stateMutability": "nonpayable",
      "type": "function"
    },
    {
      "inputs": [],
      "name": "symbol",
      "outputs": [
        {
          "internalType": "string",
          "name": "",
          "type": "string"
        }
      ],
      "stateMutability": "view",
      "type": "function"
    },
    {
      "inputs": [],
      "name": "totalSupply",
      "outputs": [
        {
          "internalType": "uint256",
          "name": "",
          "type": "uint256"
        }
      ],
      "stateMutability": "view",
      "type": "function"
    },
    {
      "inputs": [
        {
          "internalType": "address",
          "name": "_to",
          "type": "address"
        },
        {
          "internalType": "uint256",
          "name": "_amount",
          "type": "uint256"
        }
      ],
      "name": "transfer",
      "outputs": [
        {
          "internalType": "bool",
          "name": "",
          "type": "bool"
        }
      ],
      "stateMutability": "nonpayable",
      "type": "function"
    },
    {
      "inputs": [
        {
          "internalType": "address",
          "name": "_from",
          "type": "address"
        },
        {
          "internalType": "address",
          "name": "_to",
          "type": "address"
        },
        {
          "internalType": "uint256",
          "name": "_amount",
          "type": "uint256"
        }
      ],
      "name": "transferFrom",
      "outputs": [
        {
          "internalType": "bool",
          "name": "",
          "type": "bool"
        }
      ],
      "stateMutability": "nonpayable",
      "type": "function"
    },
    {
      "inputs": [
        {
          "internalType": "address",
          "name": "newOwner",
          "type": "address"
        }
      ],
      "name": "transferOwnership",
      "outputs": [],
      "stateMutability": "nonpayable",
      "type": "function"
    }
  ],
  "bytecode": "0x6080604052612710600560146101000a81548161ffff021916908361ffff1602179055503480156200003057600080fd5b50604051620032e9380380620032e983398181016040528101906200005691906200055c565b81818160039080519060200190620000709291906200040c565b508060049080519060200190620000899291906200040c565b505050620000ac620000a0620001b260201b60201c565b620001ba60201b60201c565b600560149054906101000a900461ffff1661ffff168461ffff1611156200010a576040517f08c379a0000000000000000000000000000000000000000000000000000000008152600401620001019062000659565b60405180910390fd5b6200014a336200011f6200028060201b60201c565b60126200012d9190620007e2565b633b9aca006200013e91906200091f565b6200028960201b60201c565b83600560166101000a81548161ffff021916908361ffff16021790555082600660006101000a81548173ffffffffffffffffffffffffffffffffffffffff021916908373ffffffffffffffffffffffffffffffffffffffff1602179055505050505062000bd2565b600033905090565b6000600560009054906101000a900473ffffffffffffffffffffffffffffffffffffffff16905081600560006101000a81548173ffffffffffffffffffffffffffffffffffffffff021916908373ffffffffffffffffffffffffffffffffffffffff1602179055508173ffffffffffffffffffffffffffffffffffffffff168173ffffffffffffffffffffffffffffffffffffffff167f8be0079c531659141344cd1fd0a4f28419497f9722a3daafe3b4186f6b6457e060405160405180910390a35050565b60006012905090565b600073ffffffffffffffffffffffffffffffffffffffff168273ffffffffffffffffffffffffffffffffffffffff161415620002fc576040517f08c379a0000000000000000000000000000000000000000000000000000000008152600401620002f3906200067b565b60405180910390fd5b62000310600083836200040260201b60201c565b80600260008282546200032491906200072a565b92505081905550806000808473ffffffffffffffffffffffffffffffffffffffff1673ffffffffffffffffffffffffffffffffffffffff16815260200190815260200160002060008282546200037b91906200072a565b925050819055508173ffffffffffffffffffffffffffffffffffffffff16600073ffffffffffffffffffffffffffffffffffffffff167fddf252ad1be2c89b69c2b068fc378daa952ba7f163c4a11628f55a4df523b3ef83604051620003e291906200069d565b60405180910390a3620003fe600083836200040760201b60201c565b5050565b505050565b505050565b8280546200041a9062000a0f565b90600052602060002090601f0160209004810192826200043e57600085556200048a565b82601f106200045957805160ff19168380011785556200048a565b828001600101855582156200048a579182015b82811115620004895782518255916020019190600101906200046c565b5b5090506200049991906200049d565b5090565b5b80821115620004b85760008160009055506001016200049e565b5090565b6000620004d3620004cd84620006e3565b620006ba565b905082815260208101848484011115620004ec57600080fd5b620004f9848285620009d9565b509392505050565b600081519050620005128162000b9e565b92915050565b600082601f8301126200052a57600080fd5b81516200053c848260208601620004bc565b91505092915050565b600081519050620005568162000bb8565b92915050565b600080600080608085870312156200057357600080fd5b6000620005838782880162000545565b9450506020620005968782880162000501565b935050604085015167ffffffffffffffff811115620005b457600080fd5b620005c28782880162000518565b925050606085015167ffffffffffffffff811115620005e057600080fd5b620005ee8782880162000518565b91505092959194509250565b60006200060960258362000719565b9150620006168262000b26565b604082019050919050565b600062000630601f8362000719565b91506200063d8262000b75565b602082019050919050565b6200065381620009c2565b82525050565b600060208201905081810360008301526200067481620005fa565b9050919050565b60006020820190508181036000830152620006968162000621565b9050919050565b6000602082019050620006b4600083018462000648565b92915050565b6000620006c6620006d9565b9050620006d4828262000a45565b919050565b6000604051905090565b600067ffffffffffffffff82111562000701576200070062000ad9565b5b6200070c8262000b08565b9050602081019050919050565b600082825260208201905092915050565b60006200073782620009c2565b91506200074483620009c2565b9250827fffffffffffffffffffffffffffffffffffffffffffffffffffffffffffffffff038211156200077c576200077b62000a7b565b5b828201905092915050565b6000808291508390505b6001851115620007d957808604811115620007b157620007b062000a7b565b5b6001851615620007c15780820291505b8081029050620007d18562000b19565b945062000791565b94509492505050565b6000620007ef82620009c2565b9150620007fc83620009cc565b92506200082b7fffffffffffffffffffffffffffffffffffffffffffffffffffffffffffffffff848462000833565b905092915050565b60008262000845576001905062000918565b8162000855576000905062000918565b81600181146200086e57600281146200087957620008af565b600191505062000918565b60ff8411156200088e576200088d62000a7b565b5b8360020a915084821115620008a857620008a762000a7b565b5b5062000918565b5060208310610133831016604e8410600b8410161715620008e95782820a905083811115620008e357620008e262000a7b565b5b62000918565b620008f8848484600162000787565b9250905081840481111562000912576200091162000a7b565b5b81810290505b9392505050565b60006200092c82620009c2565b91506200093983620009c2565b9250817fffffffffffffffffffffffffffffffffffffffffffffffffffffffffffffffff048311821515161562000975576200097462000a7b565b5b828202905092915050565b60006200098d82620009a2565b9050919050565b600061ffff82169050919050565b600073ffffffffffffffffffffffffffffffffffffffff82169050919050565b6000819050919050565b600060ff82169050919050565b60005b83811015620009f9578082015181840152602081019050620009dc565b8381111562000a09576000848401525b50505050565b6000600282049050600182168062000a2857607f821691505b6020821081141562000a3f5762000a3e62000aaa565b5b50919050565b62000a508262000b08565b810181811067ffffffffffffffff8211171562000a725762000a7162000ad9565b5b80604052505050565b7f4e487b7100000000000000000000000000000000000000000000000000000000600052601160045260246000fd5b7f4e487b7100000000000000000000000000000000000000000000000000000000600052602260045260246000fd5b7f4e487b7100000000000000000000000000000000000000000000000000000000600052604160045260246000fd5b6000601f19601f8301169050919050565b60008160011c9050919050565b7f43616e6e6f74207365742070726f746f636f6c2067726561746572207468616e60008201527f2031303025000000000000000000000000000000000000000000000000000000602082015250565b7f45524332303a206d696e7420746f20746865207a65726f206164647265737300600082015250565b62000ba98162000980565b811462000bb557600080fd5b50565b62000bc38162000994565b811462000bcf57600080fd5b50565b6127078062000be26000396000f3fe608060405234801561001057600080fd5b50600436106101585760003560e01c8063715018a6116100c3578063a457c2d71161007c578063a457c2d7146103dd578063a9059cbb1461040d578063dd62ed3e1461043d578063ed8456661461046d578063f01e9a8b1461049d578063f2fde38b146104b957610158565b8063715018a61461031b57806379cc6790146103255780638da5cb5b1461034157806395d89b411461035f578063961b62191461037d5780639c7c270c146103ad57610158565b8063195c07c711610115578063195c07c71461023357806323b872dd14610251578063313ce56714610281578063395093511461029f57806342966c68146102cf57806370a08231146102eb57610158565b806306fdde031461015d578063095ea7b31461017b5780630e70e64e146101ab5780630f554be6146101c757806311796434146101f757806318160ddd14610215575b600080fd5b6101656104d5565b6040516101729190611e28565b60405180910390f35b61019560048036038101906101909190611b19565b610567565b6040516101a29190611e0d565b60405180910390f35b6101c560048036038101906101c09190611b55565b61068c565b005b6101e160048036038101906101dc9190611a3c565b610783565b6040516101ee9190612005565b60405180910390f35b6101ff6107cf565b60405161020c9190611df2565b60405180910390f35b61021d6107f9565b60405161022a9190612005565b60405180910390f35b61023b610803565b6040516102489190611fea565b60405180910390f35b61026b60048036038101906102669190611aca565b61081b565b6040516102789190611e0d565b60405180910390f35b61028961098d565b6040516102969190612020565b60405180910390f35b6102b960048036038101906102b49190611b19565b610996565b6040516102c69190611e0d565b60405180910390f35b6102e960048036038101906102e49190611b7e565b610acf565b005b61030560048036038101906103009190611a3c565b610ae3565b6040516103129190612005565b60405180910390f35b610323610b2b565b005b61033f600480360381019061033a9190611b19565b610bb3565b005b610349610bd3565b6040516103569190611df2565b60405180910390f35b610367610bfd565b6040516103749190611e28565b60405180910390f35b61039760048036038101906103929190611a3c565b610c8f565b6040516103a49190612005565b60405180910390f35b6103c760048036038101906103c29190611b7e565b610cdb565b6040516103d49190612005565b60405180910390f35b6103f760048036038101906103f29190611b19565b610d23565b6040516104049190611e0d565b60405180910390f35b61042760048036038101906104229190611b19565b610def565b6040516104349190611e0d565b60405180910390f35b61045760048036038101906104529190611a8e565b610fab565b6040516104649190612005565b60405180910390f35b61048760048036038101906104829190611a3c565b611032565b6040516104949190612005565b60405180910390f35b6104b760048036038101906104b29190611a65565b61107b565b005b6104d360048036038101906104ce9190611a3c565b61113b565b005b6060600380546104e490612214565b80601f016020809104026020016040519081016040528092919081815260200182805461051090612214565b801561055d5780601f106105325761010080835404028352916020019161055d565b820191906000526020600020905b81548152906001019060200180831161054057829003601f168201915b5050505050905090565b6000816000610574611233565b90508161058082610ae3565b10156105c1576040517f08c379a00000000000000000000000000000000000000000000000000000000081526004016105b890611eea565b60405180910390fd5b6105cb818361123b565b61060a576040517f08c379a000000000000000000000000000000000000000000000000000000000815260040161060190611f8a565b60405180910390fd5b6000610614611233565b905061061f85610cdb565b600760008373ffffffffffffffffffffffffffffffffffffffff1673ffffffffffffffffffffffffffffffffffffffff168152602001908152602001600020600082825461066d9190612057565b9250508190555061067f818787611269565b6001935050505092915050565b610694611233565b73ffffffffffffffffffffffffffffffffffffffff166106b2610bd3565b73ffffffffffffffffffffffffffffffffffffffff1614610708576040517f08c379a00000000000000000000000000000000000000000000000000000000081526004016106ff90611f2a565b60405180910390fd5b600560149054906101000a900461ffff1661ffff168161ffff161115610763576040517f08c379a000000000000000000000000000000000000000000000000000000000815260040161075a90611f0a565b60405180910390fd5b80600560166101000a81548161ffff021916908361ffff16021790555050565b6000600860008373ffffffffffffffffffffffffffffffffffffffff1673ffffffffffffffffffffffffffffffffffffffff168152602001908152602001600020600001549050919050565b6000600660009054906101000a900473ffffffffffffffffffffffffffffffffffffffff16905090565b6000600254905090565b6000600560169054906101000a900461ffff16905090565b600080610826611233565b9050600061083384610cdb565b905080600860008873ffffffffffffffffffffffffffffffffffffffff1673ffffffffffffffffffffffffffffffffffffffff16815260200190815260200160002060000160008282546108879190612057565b9250508190555083600860008873ffffffffffffffffffffffffffffffffffffffff1673ffffffffffffffffffffffffffffffffffffffff16815260200190815260200160002060010160008282546108e09190612057565b9250508190555080600760008873ffffffffffffffffffffffffffffffffffffffff1673ffffffffffffffffffffffffffffffffffffffff16815260200190815260200160002060008282546109369190612138565b9250508190555061096a86600660009054906101000a900473ffffffffffffffffffffffffffffffffffffffff1683611434565b6109758683866116b5565b610980868686611434565b6001925050509392505050565b60006012905090565b60008160006109a3611233565b9050816109af82610ae3565b10156109f0576040517f08c379a00000000000000000000000000000000000000000000000000000000081526004016109e790611eea565b60405180910390fd5b6109fa818361123b565b610a39576040517f08c379a0000000000000000000000000000000000000000000000000000000008152600401610a3090611f8a565b60405180910390fd5b6000610a43611233565b9050610a4e85610cdb565b600760008373ffffffffffffffffffffffffffffffffffffffff1673ffffffffffffffffffffffffffffffffffffffff1681526020019081526020016000206000828254610a9c9190612057565b92505081905550610ac2818787610ab3858b610fab565b610abd9190612057565b611269565b6001935050505092915050565b610ae0610ada611233565b82611741565b50565b60008060008373ffffffffffffffffffffffffffffffffffffffff1673ffffffffffffffffffffffffffffffffffffffff168152602001908152602001600020549050919050565b610b33611233565b73ffffffffffffffffffffffffffffffffffffffff16610b51610bd3565b73ffffffffffffffffffffffffffffffffffffffff1614610ba7576040517f08c379a0000000000000000000000000000000000000000000000000000000008152600401610b9e90611f2a565b60405180910390fd5b610bb16000611918565b565b610bc582610bbf611233565b836116b5565b610bcf8282611741565b5050565b6000600560009054906101000a900473ffffffffffffffffffffffffffffffffffffffff16905090565b606060048054610c0c90612214565b80601f0160208091040260200160405190810160405280929190818152602001828054610c3890612214565b8015610c855780601f10610c5a57610100808354040283529160200191610c85565b820191906000526020600020905b815481529060010190602001808311610c6857829003601f168201915b5050505050905090565b6000600860008373ffffffffffffffffffffffffffffffffffffffff1673ffffffffffffffffffffffffffffffffffffffff168152602001908152602001600020600101549050919050565b6000600560149054906101000a900461ffff1661ffff16600560169054906101000a900461ffff1661ffff1683610d1291906120de565b610d1c91906120ad565b9050919050565b600080610d2e611233565b90506000610d3c8286610fab565b905083811015610d81576040517f08c379a0000000000000000000000000000000000000000000000000000000008152600401610d7890611fca565b60405180910390fd5b610d8a84610cdb565b600760008473ffffffffffffffffffffffffffffffffffffffff1673ffffffffffffffffffffffffffffffffffffffff16815260200190815260200160002060008282540392505081905550610de38286868403611269565b60019250505092915050565b6000816000610dfc611233565b905081610e0882610ae3565b1015610e49576040517f08c379a0000000000000000000000000000000000000000000000000000000008152600401610e4090611eea565b60405180910390fd5b610e53818361123b565b610e92576040517f08c379a0000000000000000000000000000000000000000000000000000000008152600401610e8990611f8a565b60405180910390fd5b6000610e9c611233565b90506000610ea986610cdb565b905080600860008473ffffffffffffffffffffffffffffffffffffffff1673ffffffffffffffffffffffffffffffffffffffff1681526020019081526020016000206000016000828254610efd9190612057565b9250508190555085600860008473ffffffffffffffffffffffffffffffffffffffff1673ffffffffffffffffffffffffffffffffffffffff1681526020019081526020016000206001016000828254610f569190612057565b92505081905550610f9282600660009054906101000a900473ffffffffffffffffffffffffffffffffffffffff16610f8d89610cdb565b611434565b610f9d828888611434565b600194505050505092915050565b6000600160008473ffffffffffffffffffffffffffffffffffffffff1673ffffffffffffffffffffffffffffffffffffffff16815260200190815260200160002060008373ffffffffffffffffffffffffffffffffffffffff1673ffffffffffffffffffffffffffffffffffffffff16815260200190815260200160002054905092915050565b6000600760008373ffffffffffffffffffffffffffffffffffffffff1673ffffffffffffffffffffffffffffffffffffffff168152602001908152602001600020549050919050565b611083611233565b73ffffffffffffffffffffffffffffffffffffffff166110a1610bd3565b73ffffffffffffffffffffffffffffffffffffffff16146110f7576040517f08c379a00000000000000000000000000000000000000000000000000000000081526004016110ee90611f2a565b60405180910390fd5b80600660006101000a81548173ffffffffffffffffffffffffffffffffffffffff021916908373ffffffffffffffffffffffffffffffffffffffff16021790555050565b611143611233565b73ffffffffffffffffffffffffffffffffffffffff16611161610bd3565b73ffffffffffffffffffffffffffffffffffffffff16146111b7576040517f08c379a00000000000000000000000000000000000000000000000000000000081526004016111ae90611f2a565b60405180910390fd5b600073ffffffffffffffffffffffffffffffffffffffff168173ffffffffffffffffffffffffffffffffffffffff161415611227576040517f08c379a000000000000000000000000000000000000000000000000000000000815260040161121e90611e8a565b60405180910390fd5b61123081611918565b50565b600033905090565b60008061124783610cdb565b836112529190612057565b90508061125e85610ae3565b101591505092915050565b600073ffffffffffffffffffffffffffffffffffffffff168373ffffffffffffffffffffffffffffffffffffffff1614156112d9576040517f08c379a00000000000000000000000000000000000000000000000000000000081526004016112d090611faa565b60405180910390fd5b600073ffffffffffffffffffffffffffffffffffffffff168273ffffffffffffffffffffffffffffffffffffffff161415611349576040517f08c379a000000000000000000000000000000000000000000000000000000000815260040161134090611eaa565b60405180910390fd5b80600160008573ffffffffffffffffffffffffffffffffffffffff1673ffffffffffffffffffffffffffffffffffffffff16815260200190815260200160002060008473ffffffffffffffffffffffffffffffffffffffff1673ffffffffffffffffffffffffffffffffffffffff168152602001908152602001600020819055508173ffffffffffffffffffffffffffffffffffffffff168373ffffffffffffffffffffffffffffffffffffffff167f8c5be1e5ebec7d5bd14f71427d1e84f3dd0314c0f7b2291e5b200ac8c7c3b925836040516114279190612005565b60405180910390a3505050565b600073ffffffffffffffffffffffffffffffffffffffff168373ffffffffffffffffffffffffffffffffffffffff1614156114a4576040517f08c379a000000000000000000000000000000000000000000000000000000000815260040161149b90611f6a565b60405180910390fd5b600073ffffffffffffffffffffffffffffffffffffffff168273ffffffffffffffffffffffffffffffffffffffff161415611514576040517f08c379a000000000000000000000000000000000000000000000000000000000815260040161150b90611e4a565b60405180910390fd5b61151f8383836119de565b60008060008573ffffffffffffffffffffffffffffffffffffffff1673ffffffffffffffffffffffffffffffffffffffff168152602001908152602001600020549050818110156115a5576040517f08c379a000000000000000000000000000000000000000000000000000000000815260040161159c90611eea565b60405180910390fd5b8181036000808673ffffffffffffffffffffffffffffffffffffffff1673ffffffffffffffffffffffffffffffffffffffff16815260200190815260200160002081905550816000808573ffffffffffffffffffffffffffffffffffffffff1673ffffffffffffffffffffffffffffffffffffffff16815260200190815260200160002060008282546116389190612057565b925050819055508273ffffffffffffffffffffffffffffffffffffffff168473ffffffffffffffffffffffffffffffffffffffff167fddf252ad1be2c89b69c2b068fc378daa952ba7f163c4a11628f55a4df523b3ef8460405161169c9190612005565b60405180910390a36116af8484846119e3565b50505050565b60006116c18484610fab565b90507fffffffffffffffffffffffffffffffffffffffffffffffffffffffffffffffff811461173b578181101561172d576040517f08c379a000000000000000000000000000000000000000000000000000000000815260040161172490611eca565b60405180910390fd5b61173a8484848403611269565b5b50505050565b600073ffffffffffffffffffffffffffffffffffffffff168273ffffffffffffffffffffffffffffffffffffffff1614156117b1576040517f08c379a00000000000000000000000000000000000000000000000000000000081526004016117a890611f4a565b60405180910390fd5b6117bd826000836119de565b60008060008473ffffffffffffffffffffffffffffffffffffffff1673ffffffffffffffffffffffffffffffffffffffff16815260200190815260200160002054905081811015611843576040517f08c379a000000000000000000000000000000000000000000000000000000000815260040161183a90611e6a565b60405180910390fd5b8181036000808573ffffffffffffffffffffffffffffffffffffffff1673ffffffffffffffffffffffffffffffffffffffff16815260200190815260200160002081905550816002600082825461189a9190612138565b92505081905550600073ffffffffffffffffffffffffffffffffffffffff168373ffffffffffffffffffffffffffffffffffffffff167fddf252ad1be2c89b69c2b068fc378daa952ba7f163c4a11628f55a4df523b3ef846040516118ff9190612005565b60405180910390a3611913836000846119e3565b505050565b6000600560009054906101000a900473ffffffffffffffffffffffffffffffffffffffff16905081600560006101000a81548173ffffffffffffffffffffffffffffffffffffffff021916908373ffffffffffffffffffffffffffffffffffffffff1602179055508173ffffffffffffffffffffffffffffffffffffffff168173ffffffffffffffffffffffffffffffffffffffff167f8be0079c531659141344cd1fd0a4f28419497f9722a3daafe3b4186f6b6457e060405160405180910390a35050565b505050565b505050565b6000813590506119f781612675565b92915050565b600081359050611a0c8161268c565b92915050565b600081359050611a21816126a3565b92915050565b600081359050611a36816126ba565b92915050565b600060208284031215611a4e57600080fd5b6000611a5c848285016119e8565b91505092915050565b600060208284031215611a7757600080fd5b6000611a85848285016119fd565b91505092915050565b60008060408385031215611aa157600080fd5b6000611aaf858286016119e8565b9250506020611ac0858286016119e8565b9150509250929050565b600080600060608486031215611adf57600080fd5b6000611aed868287016119e8565b9350506020611afe868287016119e8565b9250506040611b0f86828701611a27565b9150509250925092565b60008060408385031215611b2c57600080fd5b6000611b3a858286016119e8565b9250506020611b4b85828601611a27565b9150509250929050565b600060208284031215611b6757600080fd5b6000611b7584828501611a12565b91505092915050565b600060208284031215611b9057600080fd5b6000611b9e84828501611a27565b91505092915050565b611bb08161216c565b82525050565b611bbf81612190565b82525050565b6000611bd08261203b565b611bda8185612046565b9350611bea8185602086016121e1565b611bf3816122d3565b840191505092915050565b6000611c0b602383612046565b9150611c16826122e4565b604082019050919050565b6000611c2e602283612046565b9150611c3982612333565b604082019050919050565b6000611c51602683612046565b9150611c5c82612382565b604082019050919050565b6000611c74602283612046565b9150611c7f826123d1565b604082019050919050565b6000611c97601d83612046565b9150611ca282612420565b602082019050919050565b6000611cba602683612046565b9150611cc582612449565b604082019050919050565b6000611cdd602583612046565b9150611ce882612498565b604082019050919050565b6000611d00602083612046565b9150611d0b826124e7565b602082019050919050565b6000611d23602183612046565b9150611d2e82612510565b604082019050919050565b6000611d46602583612046565b9150611d518261255f565b604082019050919050565b6000611d69602083612046565b9150611d74826125ae565b602082019050919050565b6000611d8c602483612046565b9150611d97826125d7565b604082019050919050565b6000611daf602583612046565b9150611dba82612626565b604082019050919050565b611dce8161219c565b82525050565b611ddd816121ca565b82525050565b611dec816121d4565b82525050565b6000602082019050611e076000830184611ba7565b92915050565b6000602082019050611e226000830184611bb6565b92915050565b60006020820190508181036000830152611e428184611bc5565b905092915050565b60006020820190508181036000830152611e6381611bfe565b9050919050565b60006020820190508181036000830152611e8381611c21565b9050919050565b60006020820190508181036000830152611ea381611c44565b9050919050565b60006020820190508181036000830152611ec381611c67565b9050919050565b60006020820190508181036000830152611ee381611c8a565b9050919050565b60006020820190508181036000830152611f0381611cad565b9050919050565b60006020820190508181036000830152611f2381611cd0565b9050919050565b60006020820190508181036000830152611f4381611cf3565b9050919050565b60006020820190508181036000830152611f6381611d16565b9050919050565b60006020820190508181036000830152611f8381611d39565b9050919050565b60006020820190508181036000830152611fa381611d5c565b9050919050565b60006020820190508181036000830152611fc381611d7f565b9050919050565b60006020820190508181036000830152611fe381611da2565b9050919050565b6000602082019050611fff6000830184611dc5565b92915050565b600060208201905061201a6000830184611dd4565b92915050565b60006020820190506120356000830184611de3565b92915050565b600081519050919050565b600082825260208201905092915050565b6000612062826121ca565b915061206d836121ca565b9250827fffffffffffffffffffffffffffffffffffffffffffffffffffffffffffffffff038211156120a2576120a1612246565b5b828201905092915050565b60006120b8826121ca565b91506120c3836121ca565b9250826120d3576120d2612275565b5b828204905092915050565b60006120e9826121ca565b91506120f4836121ca565b9250817fffffffffffffffffffffffffffffffffffffffffffffffffffffffffffffffff048311821515161561212d5761212c612246565b5b828202905092915050565b6000612143826121ca565b915061214e836121ca565b92508282101561216157612160612246565b5b828203905092915050565b6000612177826121aa565b9050919050565b6000612189826121aa565b9050919050565b60008115159050919050565b600061ffff82169050919050565b600073ffffffffffffffffffffffffffffffffffffffff82169050919050565b6000819050919050565b600060ff82169050919050565b60005b838110156121ff5780820151818401526020810190506121e4565b8381111561220e576000848401525b50505050565b6000600282049050600182168061222c57607f821691505b602082108114156122405761223f6122a4565b5b50919050565b7f4e487b7100000000000000000000000000000000000000000000000000000000600052601160045260246000fd5b7f4e487b7100000000000000000000000000000000000000000000000000000000600052601260045260246000fd5b7f4e487b7100000000000000000000000000000000000000000000000000000000600052602260045260246000fd5b6000601f19601f8301169050919050565b7f45524332303a207472616e7366657220746f20746865207a65726f206164647260008201527f6573730000000000000000000000000000000000000000000000000000000000602082015250565b7f45524332303a206275726e20616d6f756e7420657863656564732062616c616e60008201527f6365000000000000000000000000000000000000000000000000000000000000602082015250565b7f4f776e61626c653a206e6577206f776e657220697320746865207a65726f206160008201527f6464726573730000000000000000000000000000000000000000000000000000602082015250565b7f45524332303a20617070726f766520746f20746865207a65726f20616464726560008201527f7373000000000000000000000000000000000000000000000000000000000000602082015250565b7f45524332303a20696e73756666696369656e7420616c6c6f77616e6365000000600082015250565b7f45524332303a207472616e7366657220616d6f756e742065786365656473206260008201527f616c616e63650000000000000000000000000000000000000000000000000000602082015250565b7f43616e6e6f74207365742070726f746f636f6c2067726561746572207468616e60008201527f2031303025000000000000000000000000000000000000000000000000000000602082015250565b7f4f776e61626c653a2063616c6c6572206973206e6f7420746865206f776e6572600082015250565b7f45524332303a206275726e2066726f6d20746865207a65726f2061646472657360008201527f7300000000000000000000000000000000000000000000000000000000000000602082015250565b7f45524332303a207472616e736665722066726f6d20746865207a65726f20616460008201527f6472657373000000000000000000000000000000000000000000000000000000602082015250565b7f434f4d524144453a2043616e6e6f74207061792070726f746f636f6c20666565600082015250565b7f45524332303a20617070726f76652066726f6d20746865207a65726f2061646460008201527f7265737300000000000000000000000000000000000000000000000000000000602082015250565b7f45524332303a2064656372656173656420616c6c6f77616e63652062656c6f7760008201527f207a65726f000000000000000000000000000000000000000000000000000000602082015250565b61267e8161216c565b811461268957600080fd5b50565b6126958161217e565b81146126a057600080fd5b50565b6126ac8161219c565b81146126b757600080fd5b50565b6126c3816121ca565b81146126ce57600080fd5b5056fea2646970667358221220ea1b0495eb55fefa33d16b88a22a6c76ad23ac90d7ba3cdde39b7af9e63af07964736f6c63430008040033",
  "linkReferences": {},
  "deployedLinkReferences": {}
}